{"project/contracts/WayneLockGuardianRecovery.sol":{"WayneLockGuardianRecovery":{"abi":[{"inputs":[],"name":"AlreadyApproved","type":"error"},{"inputs":[],"name":"DuplicateGuardian","type":"error"},{"inputs":[],"name":"EmptyUid","type":"error"},{"inputs":[],"name":"EntryAlreadyExists","type":"error"},{"inputs":[],"name":"EntryNotFound","type":"error"},{"inputs":[],"name":"InvalidGuardian","type":"error"},{"inputs":[],"name":"InvalidThreshold","type":"error"},{"inputs":[],"name":"NotGuardian","type":"error"},{"inputs":[],"name":"NotOwner","type":"error"},{"inputs":[],"name":"RecoveryNotActive","type":"error"},{"inputs":[],"name":"VaultNotInitialized","type":"error"},{"anonymous":false,"inputs":[{"indexed":true,"internalType":"address","name":"owner","type":"address"},{"indexed":false,"internalType":"string","name":"uid","type":"string"}],"name":"EntryAdded","type":"event"},{"anonymous":false,"inputs":[{"indexed":true,"internalType":"address","name":"owner","type":"address"},{"indexed":false,"internalType":"string","name":"uid","type":"string"}],"name":"EntryRemoved","type":"event"},{"anonymous":false,"inputs":[{"indexed":true,"internalType":"address","name":"owner","type":"address"},{"indexed":false,"internalType":"string","name":"uid","type":"string"}],"name":"EntryUpdated","type":"event"},{"anonymous":false,"inputs":[{"indexed":true,"internalType":"address","name":"owner","type":"address"},{"indexed":true,"internalType":"uint256","name":"recoveryId","type":"uint256"},{"indexed":true,"internalType":"address","name":"guardian","type":"address"},{"indexed":false,"internalType":"uint256","name":"approvals","type":"uint256"}],"name":"RecoveryApproved","type":"event"},{"anonymous":false,"inputs":[{"indexed":true,"internalType":"address","name":"owner","type":"address"},{"indexed":true,"internalType":"uint256","name":"recoveryId","type":"uint256"}],"name":"RecoveryFinalized","type":"event"},{"anonymous":false,"inputs":[{"indexed":true,"internalType":"address","name":"owner","type":"address"},{"indexed":true,"internalType":"uint256","name":"recoveryId","type":"uint256"}],"name":"RecoveryStarted","type":"event"},{"anonymous":false,"inputs":[{"indexed":true,"internalType":"address","name":"owner","type":"address"},{"indexed":false,"internalType":"string","name":"ipfsCid","type":"string"}],"name":"VaultCidUpdated","type":"event"},{"anonymous":false,"inputs":[{"indexed":true,"internalType":"address","name":"owner","type":"address"},{"indexed":false,"internalType":"string","name":"ipfsCid","type":"string"},{"indexed":false,"internalType":"uint8","name":"threshold","type":"uint8"},{"indexed":false,"internalType":"address[]","name":"guardians","type":"address[]"}],"name":"VaultRegistered","type":"event"},{"inputs":[],"name":"RECOVERY_WINDOW","outputs":[{"internalType":"uint256","name":"","type":"uint256"}],"stateMutability":"view","type":"function"},{"inputs":[{"internalType":"string","name":"uid","type":"string"},{"internalType":"string","name":"metadataJson","type":"string"}],"name":"addEntry","outputs":[],"stateMutability":"nonpayable","type":"function"},{"inputs":[{"internalType":"address","name":"owner","type":"address"}],"name":"approveRecovery","outputs":[],"stateMutability":"nonpayable","type":"function"},{"inputs":[],"name":"finalizeRecovery","outputs":[],"stateMutability":"nonpayable","type":"function"},{"inputs":[{"internalType":"address","name":"owner","type":"address"},{"internalType":"string","name":"uid","type":"string"}],"name":"getEntry","outputs":[{"internalType":"string","name":"metadataJson","type":"string"},{"internalType":"uint256","name":"createdAt","type":"uint256"},{"internalType":"bool","name":"exists","type":"bool"}],"stateMutability":"view","type":"function"},{"inputs":[{"internalType":"address","name":"owner","type":"address"}],"name":"getEntryCount","outputs":[{"internalType":"uint256","name":"","type":"uint256"}],"stateMutability":"view","type":"function"},{"inputs":[{"internalType":"address","name":"owner","type":"address"}],"name":"getEntryUids","outputs":[{"internalType":"string[]","name":"","type":"string[]"}],"stateMutability":"view","type":"function"},{"inputs":[{"internalType":"address","name":"owner","type":"address"}],"name":"getGuardians","outputs":[{"internalType":"address[]","name":"","type":"address[]"}],"stateMutability":"view","type":"function"},{"inputs":[{"internalType":"address","name":"owner","type":"address"}],"name":"getRecoveryStatus","outputs":[{"internalType":"uint256","name":"recoveryId","type":"uint256"},{"internalType":"bool","name":"active","type":"bool"},{"internalType":"uint256","name":"approvals","type":"uint256"},{"internalType":"uint8","name":"threshold","type":"uint8"}],"stateMutability":"view","type":"function"},{"inputs":[{"internalType":"address","name":"owner","type":"address"}],"name":"getThreshold","outputs":[{"internalType":"uint8","name":"","type":"uint8"}],"stateMutability":"view","type":"function"},{"inputs":[{"internalType":"address","name":"owner","type":"address"}],"name":"getVaultCid","outputs":[{"internalType":"string","name":"","type":"string"}],"stateMutability":"view","type":"function"},{"inputs":[{"internalType":"address","name":"owner","type":"address"},{"internalType":"uint256","name":"recoveryId","type":"uint256"},{"internalType":"address","name":"guardian","type":"address"}],"name":"hasApproved","outputs":[{"internalType":"bool","name":"","type":"bool"}],"stateMutability":"view","type":"function"},{"inputs":[{"internalType":"address","name":"owner","type":"address"},{"internalType":"address","name":"guardian","type":"address"}],"name":"isGuardianFor","outputs":[{"internalType":"bool","name":"","type":"bool"}],"stateMutability":"view","type":"function"},{"inputs":[{"internalType":"address","name":"owner","type":"address"}],"name":"isRecoveryApprovedForOwner","outputs":[{"internalType":"bool","name":"","type":"bool"}],"stateMutability":"view","type":"function"},{"inputs":[{"internalType":"address","name":"owner","type":"address"}],"name":"isVaultInitialized","outputs":[{"internalType":"bool","name":"","type":"bool"}],"stateMutability":"view","type":"function"},{"inputs":[{"internalType":"string","name":"ipfsCid","type":"string"},{"internalType":"address[]","name":"newGuardians","type":"address[]"},{"internalType":"uint8","name":"threshold","type":"uint8"}],"name":"registerVault","outputs":[],"stateMutability":"nonpayable","type":"function"},{"inputs":[{"internalType":"string","name":"ipfsCid","type":"string"},{"internalType":"address[]","name":"newGuardians","type":"address[]"},{"internalType":"uint8","name":"threshold","type":"uint8"},{"internalType":"string","name":"uid","type":"string"},{"internalType":"string","name":"metadataJson","type":"string"}],"name":"registerVaultAndAddEntry","outputs":[],"stateMutability":"nonpayable","type":"function"},{"inputs":[{"internalType":"string","name":"uid","type":"string"}],"name":"removeEntry","outputs":[],"stateMutability":"nonpayable","type":"function"},{"inputs":[],"name":"startRecovery","outputs":[],"stateMutability":"nonpayable","type":"function"},{"inputs":[{"internalType":"string","name":"uid","type":"string"},{"internalType":"string","name":"metadataJson","type":"string"}],"name":"updateEntry","outputs":[],"stateMutability":"nonpayable","type":"function"},{"inputs":[{"internalType":"string","name":"ipfsCid","type":"string"}],"name":"updateVaultCid","outputs":[],"stateMutability":"nonpayable","type":"function"}],"evm":{"bytecode":{"linkReferences":{},"object":"608060405234801561000f575f80fd5b506122798061001d5f395ff3fe608060405234801561000f575f80fd5b5060043610610132575f3560e01c8063b11797e6116100b4578063cbc3b3c211610079578063cbc3b3c214610368578063d26067931461037b578063d759889e1461038e578063e2ccb305146103ae578063f18858ab146103b6578063f7617a25146103d6575f80fd5b8063b11797e6146102c4578063b51ec7df146102d7578063b90f0aac146102ea578063c32a60a5146102fd578063c5c9bd2514610340575f80fd5b806362157727116100fa578063621577271461020957806378977168146102475780638957d76714610287578063923689e4146102a9578063b067d186146102b1575f80fd5b806307c73d34146101365780630a4636b2146101aa57806312e301d9146101c1578063355a68d6146101d65780635ce308a7146101f6575b5f80fd5b61018261014436600461192f565b6001600160a01b03165f908152602081905260409020600281015460058201546003830154600190930154919361010090910460ff90811693921690565b6040805194855292151560208501529183015260ff1660608201526080015b60405180910390f35b6101b361012c81565b6040519081526020016101a1565b6101d46101cf3660046119e5565b6103e9565b005b6101e96101e436600461192f565b61088f565b6040516101a19190611af8565b6101d4610204366004611b0a565b610938565b61023761021736600461192f565b6001600160a01b03165f9081526020819052604090206005015460ff1690565b60405190151581526020016101a1565b61027561025536600461192f565b6001600160a01b03165f9081526020819052604090206001015460ff1690565b60405160ff90911681526020016101a1565b61029a610295366004611b71565b610b02565b6040516101a193929190611bc0565b6101d4610bf9565b6101d46102bf366004611be9565b610ca7565b6101d46102d2366004611be9565b610eb8565b6101d46102e5366004611c28565b610f4c565b6102376102f836600461192f565b61122c565b61023761030b366004611ca3565b6001600160a01b039283165f908152600560209081526040808320948352938152838220929094168152925290205460ff1690565b6101b361034e36600461192f565b6001600160a01b03165f9081526004602052604090205490565b6101d461037636600461192f565b6112c4565b6101d4610389366004611b0a565b6114cd565b6103a161039c36600461192f565b6115cb565b6040516101a19190611cdc565b6101d46116b5565b6103c96103c436600461192f565b61180a565b6040516101a19190611d3c565b6102376103e4366004611d88565b61187c565b5f86900361040a5760405163a6c1146b60e01b815260040160405180910390fd5b60ff8516158061041c575060ff851686105b1561043a5760405163aabd5a0960e01b815260040160405180910390fd5b5f83900361045b57604051630c19b64360e31b815260040160405180910390fd5b335f818152600160205260408120905b81548110156104e6576001600160a01b0383165f908152600260205260408120835482908590859081106104a1576104a1611db9565b5f918252602080832091909101546001600160a01b031683528201929092526040019020805460ff1916911515919091179055806104de81611de1565b91505061046b565b506001600160a01b0382165f908152600160205260408120610507916118ab565b5f5b88811015610636575f8a8a8381811061052457610524611db9565b9050602002016020810190610539919061192f565b90506001600160a01b03811615806105625750836001600160a01b0316816001600160a01b0316145b156105805760405163a6c1146b60e01b815260040160405180910390fd5b6001600160a01b038085165f9081526002602090815260408083209385168352929052205460ff16156105c657604051636f3bdabb60e01b815260040160405180910390fd5b6001600160a01b038085165f81815260026020908152604080832095909416808352948152838220805460ff19166001908117909155928252828152928120805492830181558152919091200180546001600160a01b03191690911790558061062e81611de1565b915050610509565b506001600160a01b0382165f9081526020819052604090208061065a8c8e83611ea1565b506001818101805460ff191660ff8b161790555f60028301819055600380840182905560058401805461ffff19169093179092556001600160a01b038516815260209190915260409081902090516106b59089908990611f58565b9081526040519081900360200190206002015460ff16156106e95760405163fea82a7d60e01b815260040160405180910390fd5b604051806060016040528086868080601f0160208091040260200160405190810160405280939291908181526020018383808284375f92018290525093855250504260208085019190915260016040948501526001600160a01b03881683526003905250819020905161075f908a908a90611f58565b9081526040519081900360200190208151819061077c9082611f67565b506020828101516001838101919091556040938401516002909301805460ff1916931515939093179092556001600160a01b0386165f90815260048252928320805492830181558352909120016107d4878983611ea1565b50826001600160a01b03167f820657cc0b60fa6a5579dcfe63e64b56562d6e099cfcf9ad1ab5d3b25c45a4638d8d8b60015f896001600160a01b03166001600160a01b031681526020019081526020015f206040516108369493929190612046565b60405180910390a2826001600160a01b03167fa39bf56b0e015deece3471e3a54cf84b07202031b637f5d7b644e3cd71b8171a88886040516108799291906120b4565b60405180910390a2505050505050505050505050565b6001600160a01b0381165f9081526020819052604090208054606091906108b590611e0d565b80601f01602080910402602001604051908101604052809291908181526020018280546108e190611e0d565b801561092c5780601f106109035761010080835404028352916020019161092c565b820191905f5260205f20905b81548152906001019060200180831161090f57829003601f168201915b50505050509050919050565b335f8181526020819052604090206005015460ff1661096a57604051639a09fd8760e01b815260040160405180910390fd5b5f84900361098b57604051630c19b64360e31b815260040160405180910390fd5b335f908152600360205260409081902090516109aa9087908790611f58565b9081526040519081900360200190206002015460ff16156109de5760405163fea82a7d60e01b815260040160405180910390fd5b604051806060016040528084848080601f0160208091040260200160405190810160405280939291908181526020018383808284375f920182905250938552505042602080850191909152600160409485015233835260039052508190209051610a4b9088908890611f58565b90815260405190819003602001902081518190610a689082611f67565b506020828101516001838101919091556040938401516002909301805460ff191693151593909317909255335f9081526004825292832080549283018155835290912001610ab7858783611ea1565b50336001600160a01b03167fa39bf56b0e015deece3471e3a54cf84b07202031b637f5d7b644e3cd71b8171a8686604051610af39291906120b4565b60405180910390a25050505050565b60605f805f60035f886001600160a01b03166001600160a01b031681526020019081526020015f208686604051610b3a929190611f58565b908152604051908190036020019020600181015460028201548254929350839260ff909116908390610b6b90611e0d565b80601f0160208091040260200160405190810160405280929190818152602001828054610b9790611e0d565b8015610be25780601f10610bb957610100808354040283529160200191610be2565b820191905f5260205f20905b815481529060010190602001808311610bc557829003601f168201915b505050505092509350935093505093509350939050565b335f8181526020819052604090206005015460ff16610c2b57604051639a09fd8760e01b815260040160405180910390fd5b335f9081526020819052604081206002810180549192600192610c4f9084906120cf565b90915550505f6003820181905560058201805461ff0019166101001790554260048301556002820154604051909133917f68ed0096b24a0e62be18a90af2932f6da5fe498003e14175d1028e2d1c207cd59190a35050565b335f8181526020819052604090206005015460ff16610cd957604051639a09fd8760e01b815260040160405180910390fd5b335f90815260036020526040908190209051610cf89085908590611f58565b9081526040519081900360200190206002015460ff16610d2b57604051635d47e14960e11b815260040160405180910390fd5b335f90815260036020526040908190209051610d4a9085908590611f58565b9081526040519081900360200190205f610d6482826118c9565b505f600182018190556002909101805460ff19169055338152600460205260408120905b8154811015610e6e578484604051610da1929190611f58565b6040518091039020828281548110610dbb57610dbb611db9565b905f5260205f2001604051610dd091906120e2565b604051809103902003610e5c5781548290610ded90600190612154565b81548110610dfd57610dfd611db9565b905f5260205f2001828281548110610e1757610e17611db9565b905f5260205f20019081610e2b9190612167565b5081805480610e3c57610e3c61222f565b600190038181905f5260205f20015f610e5591906118c9565b9055610e6e565b80610e6681611de1565b915050610d88565b50336001600160a01b03167fba9b962fb9ee465a8877d213f2158c7b0437e68d39c8f1a273d45cc70813f2de8585604051610eaa9291906120b4565b60405180910390a250505050565b335f8181526020819052604090206005015460ff16610eea57604051639a09fd8760e01b815260040160405180910390fd5b335f908152602081905260409020610f03838583611ea1565b50336001600160a01b03167fe6d2edded44df0e1445fbe0a40703575ce09cd5824537c4194124c0b567dfe038484604051610f3f9291906120b4565b60405180910390a2505050565b5f829003610f6d5760405163a6c1146b60e01b815260040160405180910390fd5b60ff81161580610f7f575060ff811682105b15610f9d5760405163aabd5a0960e01b815260040160405180910390fd5b335f818152600160205260408120905b8154811015611028576001600160a01b0383165f90815260026020526040812083548290859085908110610fe357610fe3611db9565b5f918252602080832091909101546001600160a01b031683528201929092526040019020805460ff19169115159190911790558061102081611de1565b915050610fad565b506001600160a01b0382165f908152600160205260408120611049916118ab565b5f5b84811015611178575f86868381811061106657611066611db9565b905060200201602081019061107b919061192f565b90506001600160a01b03811615806110a45750836001600160a01b0316816001600160a01b0316145b156110c25760405163a6c1146b60e01b815260040160405180910390fd5b6001600160a01b038085165f9081526002602090815260408083209385168352929052205460ff161561110857604051636f3bdabb60e01b815260040160405180910390fd5b6001600160a01b038085165f81815260026020908152604080832095909416808352948152838220805460ff19166001908117909155928252828152928120805492830181558152919091200180546001600160a01b03191690911790558061117081611de1565b91505061104b565b506001600160a01b0382165f9081526020819052604090208061119c888a83611ea1565b506001818101805460ff191660ff87161790555f600283018190556003830181905560058301805461ffff1916831790556001600160a01b03851680825260209290925260409081902090517f820657cc0b60fa6a5579dcfe63e64b56562d6e099cfcf9ad1ab5d3b25c45a4639161121a918c918c918a9190612046565b60405180910390a25050505050505050565b6001600160a01b0381165f90815260208190526040812060050154829060ff1661126957604051639a09fd8760e01b815260040160405180910390fd5b6001600160a01b0383165f9081526020819052604090206005810154610100900460ff16158061129b57506002810154155b156112a9575f9250506112be565b600181015460039091015460ff909116111591505b50919050565b6001600160a01b0381165f90815260208190526040902060050154819060ff1661130157604051639a09fd8760e01b815260040160405180910390fd5b6001600160a01b0382165f908152600260209081526040808320338452909152902054829060ff16611346576040516377b6878160e11b815260040160405180910390fd5b6001600160a01b0383165f9081526020819052604090206005810154610100900460ff16158061137857506002810154155b1561139657604051635caa354760e01b815260040160405180910390fd5b61012c81600401546113a891906120cf565b4211156113d65760058101805461ff001916905560408051635caa354760e01b815290519081900360040190fd5b6001600160a01b0384165f90815260056020908152604080832060028501548452825280832033845290915290205460ff16156114265760405163080fc0bd60e11b815260040160405180910390fd5b6001600160a01b0384165f9081526005602090815260408083206002850154845282528083203384529091528120805460ff19166001908117909155600383018054919290916114779084906120cf565b9091555050600281015460038201546040519081523391906001600160a01b038716907f66a24788c1f8a1e2c9f4f326c823531a758a5bf8b9937b312f683c56143a6e8a9060200160405180910390a450505050565b335f8181526020819052604090206005015460ff166114ff57604051639a09fd8760e01b815260040160405180910390fd5b335f9081526003602052604090819020905161151e9087908790611f58565b9081526040519081900360200190206002015460ff1661155157604051635d47e14960e11b815260040160405180910390fd5b335f90815260036020526040908190209051849184916115749089908990611f58565b9081526040519081900360200190209161158f919083611ea1565b50336001600160a01b03167f379c1d2b166dddca664ed07eea9f2cde55a32fd3010f384aa08a04f49ed4df958686604051610af39291906120b4565b6001600160a01b0381165f908152600460209081526040808320805482518185028101850190935280835260609492939192909184015b828210156116aa578382905f5260205f2001805461161f90611e0d565b80601f016020809104026020016040519081016040528092919081815260200182805461164b90611e0d565b80156116965780601f1061166d57610100808354040283529160200191611696565b820191905f5260205f20905b81548152906001019060200180831161167957829003601f168201915b505050505081526020019060010190611602565b505050509050919050565b335f8181526020819052604090206005015460ff166116e757604051639a09fd8760e01b815260040160405180910390fd5b335f9081526020819052604090206005810154610100900460ff16158061171057506002810154155b1561172e57604051635caa354760e01b815260040160405180910390fd5b335f908152600160205260408120905b81548110156117bf57335f9081526005602090815260408083206002870154845290915281208354829085908590811061177a5761177a611db9565b5f918252602080832091909101546001600160a01b031683528201929092526040019020805460ff1916911515919091179055806117b781611de1565b91505061173e565b505f6003830181905560058301805461ff00191690556002830154604051909133917f4e19d4165c8ec779f6414c11c110b66128a1aeffe6596c4fad0e3af0eccba33d9190a3505050565b6001600160a01b0381165f9081526001602090815260409182902080548351818402810184019094528084526060939283018282801561092c57602002820191905f5260205f20905b81546001600160a01b031681526001909101906020018083116118535750505050509050919050565b6001600160a01b038083165f9081526002602090815260408083209385168352929052205460ff165b92915050565b5080545f8255905f5260205f20908101906118c691906118fc565b50565b5080546118d590611e0d565b5f825580601f106118e4575050565b601f0160209004905f5260205f20908101906118c691905b5b80821115611910575f81556001016118fd565b5090565b80356001600160a01b038116811461192a575f80fd5b919050565b5f6020828403121561193f575f80fd5b61194882611914565b9392505050565b5f8083601f84011261195f575f80fd5b50813567ffffffffffffffff811115611976575f80fd5b60208301915083602082850101111561198d575f80fd5b9250929050565b5f8083601f8401126119a4575f80fd5b50813567ffffffffffffffff8111156119bb575f80fd5b6020830191508360208260051b850101111561198d575f80fd5b803560ff8116811461192a575f80fd5b5f805f805f805f805f60a08a8c0312156119fd575f80fd5b893567ffffffffffffffff80821115611a14575f80fd5b611a208d838e0161194f565b909b50995060208c0135915080821115611a38575f80fd5b611a448d838e01611994565b9099509750879150611a5860408d016119d5565b965060608c0135915080821115611a6d575f80fd5b611a798d838e0161194f565b909650945060808c0135915080821115611a91575f80fd5b50611a9e8c828d0161194f565b915080935050809150509295985092959850929598565b5f81518084525f5b81811015611ad957602081850181015186830182015201611abd565b505f602082860101526020601f19601f83011685010191505092915050565b602081525f6119486020830184611ab5565b5f805f8060408587031215611b1d575f80fd5b843567ffffffffffffffff80821115611b34575f80fd5b611b408883890161194f565b90965094506020870135915080821115611b58575f80fd5b50611b658782880161194f565b95989497509550505050565b5f805f60408486031215611b83575f80fd5b611b8c84611914565b9250602084013567ffffffffffffffff811115611ba7575f80fd5b611bb38682870161194f565b9497909650939450505050565b606081525f611bd26060830186611ab5565b602083019490945250901515604090910152919050565b5f8060208385031215611bfa575f80fd5b823567ffffffffffffffff811115611c10575f80fd5b611c1c8582860161194f565b90969095509350505050565b5f805f805f60608688031215611c3c575f80fd5b853567ffffffffffffffff80821115611c53575f80fd5b611c5f89838a0161194f565b90975095506020880135915080821115611c77575f80fd5b50611c8488828901611994565b9094509250611c979050604087016119d5565b90509295509295909350565b5f805f60608486031215611cb5575f80fd5b611cbe84611914565b925060208401359150611cd360408501611914565b90509250925092565b5f602080830181845280855180835260408601915060408160051b87010192508387015f5b82811015611d2f57603f19888603018452611d1d858351611ab5565b94509285019290850190600101611d01565b5092979650505050505050565b602080825282518282018190525f9190848201906040850190845b81811015611d7c5783516001600160a01b031683529284019291840191600101611d57565b50909695505050505050565b5f8060408385031215611d99575f80fd5b611da283611914565b9150611db060208401611914565b90509250929050565b634e487b7160e01b5f52603260045260245ffd5b634e487b7160e01b5f52601160045260245ffd5b5f60018201611df257611df2611dcd565b5060010190565b634e487b7160e01b5f52604160045260245ffd5b600181811c90821680611e2157607f821691505b6020821081036112be57634e487b7160e01b5f52602260045260245ffd5b601f821115611e88575f81815260208120601f850160051c81016020861015611e655750805b601f850160051c820191505b81811015611e8457828155600101611e71565b5050505b505050565b5f19600383901b1c191660019190911b1790565b67ffffffffffffffff831115611eb957611eb9611df9565b611ecd83611ec78354611e0d565b83611e3f565b5f601f841160018114611ef9575f8515611ee75750838201355b611ef18682611e8d565b845550611f51565b5f83815260209020601f19861690835b82811015611f295786850135825560209485019460019092019101611f09565b5086821015611f45575f1960f88860031b161c19848701351681555b505060018560011b0183555b5050505050565b818382375f9101908152919050565b815167ffffffffffffffff811115611f8157611f81611df9565b611f9581611f8f8454611e0d565b84611e3f565b602080601f831160018114611fc3575f8415611fb15750858301515b611fbb8582611e8d565b865550611e84565b5f85815260208120601f198616915b82811015611ff157888601518255948401946001909101908401611fd2565b508582101561200e57878501515f19600388901b60f8161c191681555b5050505050600190811b01905550565b81835281816020850137505f828201602090810191909152601f909101601f19169091010190565b606081525f61205960608301868861201e565b602060ff86168185015283820360408501528185548084528284019150865f52825f2093505f5b818110156120a55784546001600160a01b031683526001948501949284019201612080565b50909998505050505050505050565b602081525f6120c760208301848661201e565b949350505050565b808201808211156118a5576118a5611dcd565b5f8083546120ef81611e0d565b60018281168015612107576001811461211c57612148565b60ff1984168752821515830287019450612148565b875f526020805f205f5b8581101561213f5781548a820152908401908201612126565b50505082870194505b50929695505050505050565b818103818111156118a5576118a5611dcd565b818103612172575050565b61217c8254611e0d565b67ffffffffffffffff81111561219457612194611df9565b6121a281611f8f8454611e0d565b5f601f8211600181146121ce575f83156121bc5750848201545b6121c68482611e8d565b855550611f51565b5f85815260209020601f198416905f86815260209020845b8381101561220657828601548255600195860195909101906020016121e6565b508583101561200e579301545f1960f8600387901b161c19169092555050600190811b01905550565b634e487b7160e01b5f52603160045260245ffdfea26469706673582212205d2424f01463e7c1acfd246b26c4dcad01aecbae5be49fd6ae1ec7c85c24a56664736f6c63430008150033","opcodes":"PUSH1 0x80 PUSH1 0x40 MSTORE CALLVALUE DUP1 ISZERO PUSH2 0xF JUMPI PUSH0 DUP1 REVERT JUMPDEST POP PUSH2 0x2279 DUP1 PUSH2 0x1D PUSH0 CODECOPY PUSH0 RETURN INVALID PUSH1 0x80 PUSH1 0x40 MSTORE CALLVALUE DUP1 ISZERO PUSH2 0xF JUMPI PUSH0 DUP1 REVERT JUMPDEST POP PUSH1 0x4 CALLDATASIZE LT PUSH2 0x132 JUMPI PUSH0 CALLDATALOAD PUSH1 0xE0 SHR DUP1 PUSH4 0xB11797E6 GT PUSH2 0xB4 JUMPI DUP1 PUSH4 0xCBC3B3C2 GT PUSH2 0x79 JUMPI DUP1 PUSH4 0xCBC3B3C2 EQ PUSH2 0x368 JUMPI DUP1 PUSH4 0xD2606793 EQ PUSH2 0x37B JUMPI DUP1 PUSH4 0xD759889E EQ PUSH2 0x38E JUMPI DUP1 PUSH4 0xE2CCB305 EQ PUSH2 0x3AE JUMPI DUP1 PUSH4 0xF18858AB EQ PUSH2 0x3B6 JUMPI DUP1 PUSH4 0xF7617A25 EQ PUSH2 0x3D6 JUMPI PUSH0 DUP1 REVERT JUMPDEST DUP1 PUSH4 0xB11797E6 EQ PUSH2 0x2C4 JUMPI DUP1 PUSH4 0xB51EC7DF EQ PUSH2 0x2D7 JUMPI DUP1 PUSH4 0xB90F0AAC EQ PUSH2 0x2EA JUMPI DUP1 PUSH4 0xC32A60A5 EQ PUSH2 0x2FD JUMPI DUP1 PUSH4 0xC5C9BD25 EQ PUSH2 0x340 JUMPI PUSH0 DUP1 REVERT JUMPDEST DUP1 PUSH4 0x62157727 GT PUSH2 0xFA JUMPI DUP1 PUSH4 0x62157727 EQ PUSH2 0x209 JUMPI DUP1 PUSH4 0x78977168 EQ PUSH2 0x247 JUMPI DUP1 PUSH4 0x8957D767 EQ PUSH2 0x287 JUMPI DUP1 PUSH4 0x923689E4 EQ PUSH2 0x2A9 JUMPI DUP1 PUSH4 0xB067D186 EQ PUSH2 0x2B1 JUMPI PUSH0 DUP1 REVERT JUMPDEST DUP1 PUSH4 0x7C73D34 EQ PUSH2 0x136 JUMPI DUP1 PUSH4 0xA4636B2 EQ PUSH2 0x1AA JUMPI DUP1 PUSH4 0x12E301D9 EQ PUSH2 0x1C1 JUMPI DUP1 PUSH4 0x355A68D6 EQ PUSH2 0x1D6 JUMPI DUP1 PUSH4 0x5CE308A7 EQ PUSH2 0x1F6 JUMPI JUMPDEST PUSH0 DUP1 REVERT JUMPDEST PUSH2 0x182 PUSH2 0x144 CALLDATASIZE PUSH1 0x4 PUSH2 0x192F JUMP JUMPDEST PUSH1 0x1 PUSH1 0x1 PUSH1 0xA0 SHL SUB AND PUSH0 SWAP1 DUP2 MSTORE PUSH1 0x20 DUP2 SWAP1 MSTORE PUSH1 0x40 SWAP1 KECCAK256 PUSH1 0x2 DUP2 ADD SLOAD PUSH1 0x5 DUP3 ADD SLOAD PUSH1 0x3 DUP4 ADD SLOAD PUSH1 0x1 SWAP1 SWAP4 ADD SLOAD SWAP2 SWAP4 PUSH2 0x100 SWAP1 SWAP2 DIV PUSH1 0xFF SWAP1 DUP2 AND SWAP4 SWAP3 AND SWAP1 JUMP JUMPDEST PUSH1 0x40 DUP1 MLOAD SWAP5 DUP6 MSTORE SWAP3 ISZERO ISZERO PUSH1 0x20 DUP6 ADD MSTORE SWAP2 DUP4 ADD MSTORE PUSH1 0xFF AND PUSH1 0x60 DUP3 ADD MSTORE PUSH1 0x80 ADD JUMPDEST PUSH1 0x40 MLOAD DUP1 SWAP2 SUB SWAP1 RETURN JUMPDEST PUSH2 0x1B3 PUSH2 0x12C DUP2 JUMP JUMPDEST PUSH1 0x40 MLOAD SWAP1 DUP2 MSTORE PUSH1 0x20 ADD PUSH2 0x1A1 JUMP JUMPDEST PUSH2 0x1D4 PUSH2 0x1CF CALLDATASIZE PUSH1 0x4 PUSH2 0x19E5 JUMP JUMPDEST PUSH2 0x3E9 JUMP JUMPDEST STOP JUMPDEST PUSH2 0x1E9 PUSH2 0x1E4 CALLDATASIZE PUSH1 0x4 PUSH2 0x192F JUMP JUMPDEST PUSH2 0x88F JUMP JUMPDEST PUSH1 0x40 MLOAD PUSH2 0x1A1 SWAP2 SWAP1 PUSH2 0x1AF8 JUMP JUMPDEST PUSH2 0x1D4 PUSH2 0x204 CALLDATASIZE PUSH1 0x4 PUSH2 0x1B0A JUMP JUMPDEST PUSH2 0x938 JUMP JUMPDEST PUSH2 0x237 PUSH2 0x217 CALLDATASIZE PUSH1 0x4 PUSH2 0x192F JUMP JUMPDEST PUSH1 0x1 PUSH1 0x1 PUSH1 0xA0 SHL SUB AND PUSH0 SWAP1 DUP2 MSTORE PUSH1 0x20 DUP2 SWAP1 MSTORE PUSH1 0x40 SWAP1 KECCAK256 PUSH1 0x5 ADD SLOAD PUSH1 0xFF AND SWAP1 JUMP JUMPDEST PUSH1 0x40 MLOAD SWAP1 ISZERO ISZERO DUP2 MSTORE PUSH1 0x20 ADD PUSH2 0x1A1 JUMP JUMPDEST PUSH2 0x275 PUSH2 0x255 CALLDATASIZE PUSH1 0x4 PUSH2 0x192F JUMP JUMPDEST PUSH1 0x1 PUSH1 0x1 PUSH1 0xA0 SHL SUB AND PUSH0 SWAP1 DUP2 MSTORE PUSH1 0x20 DUP2 SWAP1 MSTORE PUSH1 0x40 SWAP1 KECCAK256 PUSH1 0x1 ADD SLOAD PUSH1 0xFF AND SWAP1 JUMP JUMPDEST PUSH1 0x40 MLOAD PUSH1 0xFF SWAP1 SWAP2 AND DUP2 MSTORE PUSH1 0x20 ADD PUSH2 0x1A1 JUMP JUMPDEST PUSH2 0x29A PUSH2 0x295 CALLDATASIZE PUSH1 0x4 PUSH2 0x1B71 JUMP JUMPDEST PUSH2 0xB02 JUMP JUMPDEST PUSH1 0x40 MLOAD PUSH2 0x1A1 SWAP4 SWAP3 SWAP2 SWAP1 PUSH2 0x1BC0 JUMP JUMPDEST PUSH2 0x1D4 PUSH2 0xBF9 JUMP JUMPDEST PUSH2 0x1D4 PUSH2 0x2BF CALLDATASIZE PUSH1 0x4 PUSH2 0x1BE9 JUMP JUMPDEST PUSH2 0xCA7 JUMP JUMPDEST PUSH2 0x1D4 PUSH2 0x2D2 CALLDATASIZE PUSH1 0x4 PUSH2 0x1BE9 JUMP JUMPDEST PUSH2 0xEB8 JUMP JUMPDEST PUSH2 0x1D4 PUSH2 0x2E5 CALLDATASIZE PUSH1 0x4 PUSH2 0x1C28 JUMP JUMPDEST PUSH2 0xF4C JUMP JUMPDEST PUSH2 0x237 PUSH2 0x2F8 CALLDATASIZE PUSH1 0x4 PUSH2 0x192F JUMP JUMPDEST PUSH2 0x122C JUMP JUMPDEST PUSH2 0x237 PUSH2 0x30B CALLDATASIZE PUSH1 0x4 PUSH2 0x1CA3 JUMP JUMPDEST PUSH1 0x1 PUSH1 0x1 PUSH1 0xA0 SHL SUB SWAP3 DUP4 AND PUSH0 SWAP1 DUP2 MSTORE PUSH1 0x5 PUSH1 0x20 SWAP1 DUP2 MSTORE PUSH1 0x40 DUP1 DUP4 KECCAK256 SWAP5 DUP4 MSTORE SWAP4 DUP2 MSTORE DUP4 DUP3 KECCAK256 SWAP3 SWAP1 SWAP5 AND DUP2 MSTORE SWAP3 MSTORE SWAP1 KECCAK256 SLOAD PUSH1 0xFF AND SWAP1 JUMP JUMPDEST PUSH2 0x1B3 PUSH2 0x34E CALLDATASIZE PUSH1 0x4 PUSH2 0x192F JUMP JUMPDEST PUSH1 0x1 PUSH1 0x1 PUSH1 0xA0 SHL SUB AND PUSH0 SWAP1 DUP2 MSTORE PUSH1 0x4 PUSH1 0x20 MSTORE PUSH1 0x40 SWAP1 KECCAK256 SLOAD SWAP1 JUMP JUMPDEST PUSH2 0x1D4 PUSH2 0x376 CALLDATASIZE PUSH1 0x4 PUSH2 0x192F JUMP JUMPDEST PUSH2 0x12C4 JUMP JUMPDEST PUSH2 0x1D4 PUSH2 0x389 CALLDATASIZE PUSH1 0x4 PUSH2 0x1B0A JUMP JUMPDEST PUSH2 0x14CD JUMP JUMPDEST PUSH2 0x3A1 PUSH2 0x39C CALLDATASIZE PUSH1 0x4 PUSH2 0x192F JUMP JUMPDEST PUSH2 0x15CB JUMP JUMPDEST PUSH1 0x40 MLOAD PUSH2 0x1A1 SWAP2 SWAP1 PUSH2 0x1CDC JUMP JUMPDEST PUSH2 0x1D4 PUSH2 0x16B5 JUMP JUMPDEST PUSH2 0x3C9 PUSH2 0x3C4 CALLDATASIZE PUSH1 0x4 PUSH2 0x192F JUMP JUMPDEST PUSH2 0x180A JUMP JUMPDEST PUSH1 0x40 MLOAD PUSH2 0x1A1 SWAP2 SWAP1 PUSH2 0x1D3C JUMP JUMPDEST PUSH2 0x237 PUSH2 0x3E4 CALLDATASIZE PUSH1 0x4 PUSH2 0x1D88 JUMP JUMPDEST PUSH2 0x187C JUMP JUMPDEST PUSH0 DUP7 SWAP1 SUB PUSH2 0x40A JUMPI PUSH1 0x40 MLOAD PUSH4 0xA6C1146B PUSH1 0xE0 SHL DUP2 MSTORE PUSH1 0x4 ADD PUSH1 0x40 MLOAD DUP1 SWAP2 SUB SWAP1 REVERT JUMPDEST PUSH1 0xFF DUP6 AND ISZERO DUP1 PUSH2 0x41C JUMPI POP PUSH1 0xFF DUP6 AND DUP7 LT JUMPDEST ISZERO PUSH2 0x43A JUMPI PUSH1 0x40 MLOAD PUSH4 0xAABD5A09 PUSH1 0xE0 SHL DUP2 MSTORE PUSH1 0x4 ADD PUSH1 0x40 MLOAD DUP1 SWAP2 SUB SWAP1 REVERT JUMPDEST PUSH0 DUP4 SWAP1 SUB PUSH2 0x45B JUMPI PUSH1 0x40 MLOAD PUSH4 0xC19B643 PUSH1 0xE3 SHL DUP2 MSTORE PUSH1 0x4 ADD PUSH1 0x40 MLOAD DUP1 SWAP2 SUB SWAP1 REVERT JUMPDEST CALLER PUSH0 DUP2 DUP2 MSTORE PUSH1 0x1 PUSH1 0x20 MSTORE PUSH1 0x40 DUP2 KECCAK256 SWAP1 JUMPDEST DUP2 SLOAD DUP2 LT ISZERO PUSH2 0x4E6 JUMPI PUSH1 0x1 PUSH1 0x1 PUSH1 0xA0 SHL SUB DUP4 AND PUSH0 SWAP1 DUP2 MSTORE PUSH1 0x2 PUSH1 0x20 MSTORE PUSH1 0x40 DUP2 KECCAK256 DUP4 SLOAD DUP3 SWAP1 DUP6 SWAP1 DUP6 SWAP1 DUP2 LT PUSH2 0x4A1 JUMPI PUSH2 0x4A1 PUSH2 0x1DB9 JUMP JUMPDEST PUSH0 SWAP2 DUP3 MSTORE PUSH1 0x20 DUP1 DUP4 KECCAK256 SWAP2 SWAP1 SWAP2 ADD SLOAD PUSH1 0x1 PUSH1 0x1 PUSH1 0xA0 SHL SUB AND DUP4 MSTORE DUP3 ADD SWAP3 SWAP1 SWAP3 MSTORE PUSH1 0x40 ADD SWAP1 KECCAK256 DUP1 SLOAD PUSH1 0xFF NOT AND SWAP2 ISZERO ISZERO SWAP2 SWAP1 SWAP2 OR SWAP1 SSTORE DUP1 PUSH2 0x4DE DUP2 PUSH2 0x1DE1 JUMP JUMPDEST SWAP2 POP POP PUSH2 0x46B JUMP JUMPDEST POP PUSH1 0x1 PUSH1 0x1 PUSH1 0xA0 SHL SUB DUP3 AND PUSH0 SWAP1 DUP2 MSTORE PUSH1 0x1 PUSH1 0x20 MSTORE PUSH1 0x40 DUP2 KECCAK256 PUSH2 0x507 SWAP2 PUSH2 0x18AB JUMP JUMPDEST PUSH0 JUMPDEST DUP9 DUP2 LT ISZERO PUSH2 0x636 JUMPI PUSH0 DUP11 DUP11 DUP4 DUP2 DUP2 LT PUSH2 0x524 JUMPI PUSH2 0x524 PUSH2 0x1DB9 JUMP JUMPDEST SWAP1 POP PUSH1 0x20 MUL ADD PUSH1 0x20 DUP2 ADD SWAP1 PUSH2 0x539 SWAP2 SWAP1 PUSH2 0x192F JUMP JUMPDEST SWAP1 POP PUSH1 0x1 PUSH1 0x1 PUSH1 0xA0 SHL SUB DUP2 AND ISZERO DUP1 PUSH2 0x562 JUMPI POP DUP4 PUSH1 0x1 PUSH1 0x1 PUSH1 0xA0 SHL SUB AND DUP2 PUSH1 0x1 PUSH1 0x1 PUSH1 0xA0 SHL SUB AND EQ JUMPDEST ISZERO PUSH2 0x580 JUMPI PUSH1 0x40 MLOAD PUSH4 0xA6C1146B PUSH1 0xE0 SHL DUP2 MSTORE PUSH1 0x4 ADD PUSH1 0x40 MLOAD DUP1 SWAP2 SUB SWAP1 REVERT JUMPDEST PUSH1 0x1 PUSH1 0x1 PUSH1 0xA0 SHL SUB DUP1 DUP6 AND PUSH0 SWAP1 DUP2 MSTORE PUSH1 0x2 PUSH1 0x20 SWAP1 DUP2 MSTORE PUSH1 0x40 DUP1 DUP4 KECCAK256 SWAP4 DUP6 AND DUP4 MSTORE SWAP3 SWAP1 MSTORE KECCAK256 SLOAD PUSH1 0xFF AND ISZERO PUSH2 0x5C6 JUMPI PUSH1 0x40 MLOAD PUSH4 0x6F3BDABB PUSH1 0xE0 SHL DUP2 MSTORE PUSH1 0x4 ADD PUSH1 0x40 MLOAD DUP1 SWAP2 SUB SWAP1 REVERT JUMPDEST PUSH1 0x1 PUSH1 0x1 PUSH1 0xA0 SHL SUB DUP1 DUP6 AND PUSH0 DUP2 DUP2 MSTORE PUSH1 0x2 PUSH1 0x20 SWAP1 DUP2 MSTORE PUSH1 0x40 DUP1 DUP4 KECCAK256 SWAP6 SWAP1 SWAP5 AND DUP1 DUP4 MSTORE SWAP5 DUP2 MSTORE DUP4 DUP3 KECCAK256 DUP1 SLOAD PUSH1 0xFF NOT AND PUSH1 0x1 SWAP1 DUP2 OR SWAP1 SWAP2 SSTORE SWAP3 DUP3 MSTORE DUP3 DUP2 MSTORE SWAP3 DUP2 KECCAK256 DUP1 SLOAD SWAP3 DUP4 ADD DUP2 SSTORE DUP2 MSTORE SWAP2 SWAP1 SWAP2 KECCAK256 ADD DUP1 SLOAD PUSH1 0x1 PUSH1 0x1 PUSH1 0xA0 SHL SUB NOT AND SWAP1 SWAP2 OR SWAP1 SSTORE DUP1 PUSH2 0x62E DUP2 PUSH2 0x1DE1 JUMP JUMPDEST SWAP2 POP POP PUSH2 0x509 JUMP JUMPDEST POP PUSH1 0x1 PUSH1 0x1 PUSH1 0xA0 SHL SUB DUP3 AND PUSH0 SWAP1 DUP2 MSTORE PUSH1 0x20 DUP2 SWAP1 MSTORE PUSH1 0x40 SWAP1 KECCAK256 DUP1 PUSH2 0x65A DUP13 DUP15 DUP4 PUSH2 0x1EA1 JUMP JUMPDEST POP PUSH1 0x1 DUP2 DUP2 ADD DUP1 SLOAD PUSH1 0xFF NOT AND PUSH1 0xFF DUP12 AND OR SWAP1 SSTORE PUSH0 PUSH1 0x2 DUP4 ADD DUP2 SWAP1 SSTORE PUSH1 0x3 DUP1 DUP5 ADD DUP3 SWAP1 SSTORE PUSH1 0x5 DUP5 ADD DUP1 SLOAD PUSH2 0xFFFF NOT AND SWAP1 SWAP4 OR SWAP1 SWAP3 SSTORE PUSH1 0x1 PUSH1 0x1 PUSH1 0xA0 SHL SUB DUP6 AND DUP2 MSTORE PUSH1 0x20 SWAP2 SWAP1 SWAP2 MSTORE PUSH1 0x40 SWAP1 DUP2 SWAP1 KECCAK256 SWAP1 MLOAD PUSH2 0x6B5 SWAP1 DUP10 SWAP1 DUP10 SWAP1 PUSH2 0x1F58 JUMP JUMPDEST SWAP1 DUP2 MSTORE PUSH1 0x40 MLOAD SWAP1 DUP2 SWAP1 SUB PUSH1 0x20 ADD SWAP1 KECCAK256 PUSH1 0x2 ADD SLOAD PUSH1 0xFF AND ISZERO PUSH2 0x6E9 JUMPI PUSH1 0x40 MLOAD PUSH4 0xFEA82A7D PUSH1 0xE0 SHL DUP2 MSTORE PUSH1 0x4 ADD PUSH1 0x40 MLOAD DUP1 SWAP2 SUB SWAP1 REVERT JUMPDEST PUSH1 0x40 MLOAD DUP1 PUSH1 0x60 ADD PUSH1 0x40 MSTORE DUP1 DUP7 DUP7 DUP1 DUP1 PUSH1 0x1F ADD PUSH1 0x20 DUP1 SWAP2 DIV MUL PUSH1 0x20 ADD PUSH1 0x40 MLOAD SWAP1 DUP2 ADD PUSH1 0x40 MSTORE DUP1 SWAP4 SWAP3 SWAP2 SWAP1 DUP2 DUP2 MSTORE PUSH1 0x20 ADD DUP4 DUP4 DUP1 DUP3 DUP5 CALLDATACOPY PUSH0 SWAP3 ADD DUP3 SWAP1 MSTORE POP SWAP4 DUP6 MSTORE POP POP TIMESTAMP PUSH1 0x20 DUP1 DUP6 ADD SWAP2 SWAP1 SWAP2 MSTORE PUSH1 0x1 PUSH1 0x40 SWAP5 DUP6 ADD MSTORE PUSH1 0x1 PUSH1 0x1 PUSH1 0xA0 SHL SUB DUP9 AND DUP4 MSTORE PUSH1 0x3 SWAP1 MSTORE POP DUP2 SWAP1 KECCAK256 SWAP1 MLOAD PUSH2 0x75F SWAP1 DUP11 SWAP1 DUP11 SWAP1 PUSH2 0x1F58 JUMP JUMPDEST SWAP1 DUP2 MSTORE PUSH1 0x40 MLOAD SWAP1 DUP2 SWAP1 SUB PUSH1 0x20 ADD SWAP1 KECCAK256 DUP2 MLOAD DUP2 SWAP1 PUSH2 0x77C SWAP1 DUP3 PUSH2 0x1F67 JUMP JUMPDEST POP PUSH1 0x20 DUP3 DUP2 ADD MLOAD PUSH1 0x1 DUP4 DUP2 ADD SWAP2 SWAP1 SWAP2 SSTORE PUSH1 0x40 SWAP4 DUP5 ADD MLOAD PUSH1 0x2 SWAP1 SWAP4 ADD DUP1 SLOAD PUSH1 0xFF NOT AND SWAP4 ISZERO ISZERO SWAP4 SWAP1 SWAP4 OR SWAP1 SWAP3 SSTORE PUSH1 0x1 PUSH1 0x1 PUSH1 0xA0 SHL SUB DUP7 AND PUSH0 SWAP1 DUP2 MSTORE PUSH1 0x4 DUP3 MSTORE SWAP3 DUP4 KECCAK256 DUP1 SLOAD SWAP3 DUP4 ADD DUP2 SSTORE DUP4 MSTORE SWAP1 SWAP2 KECCAK256 ADD PUSH2 0x7D4 DUP8 DUP10 DUP4 PUSH2 0x1EA1 JUMP JUMPDEST POP DUP3 PUSH1 0x1 PUSH1 0x1 PUSH1 0xA0 SHL SUB AND PUSH32 0x820657CC0B60FA6A5579DCFE63E64B56562D6E099CFCF9AD1AB5D3B25C45A463 DUP14 DUP14 DUP12 PUSH1 0x1 PUSH0 DUP10 PUSH1 0x1 PUSH1 0x1 PUSH1 0xA0 SHL SUB AND PUSH1 0x1 PUSH1 0x1 PUSH1 0xA0 SHL SUB AND DUP2 MSTORE PUSH1 0x20 ADD SWAP1 DUP2 MSTORE PUSH1 0x20 ADD PUSH0 KECCAK256 PUSH1 0x40 MLOAD PUSH2 0x836 SWAP5 SWAP4 SWAP3 SWAP2 SWAP1 PUSH2 0x2046 JUMP JUMPDEST PUSH1 0x40 MLOAD DUP1 SWAP2 SUB SWAP1 LOG2 DUP3 PUSH1 0x1 PUSH1 0x1 PUSH1 0xA0 SHL SUB AND PUSH32 0xA39BF56B0E015DEECE3471E3A54CF84B07202031B637F5D7B644E3CD71B8171A DUP9 DUP9 PUSH1 0x40 MLOAD PUSH2 0x879 SWAP3 SWAP2 SWAP1 PUSH2 0x20B4 JUMP JUMPDEST PUSH1 0x40 MLOAD DUP1 SWAP2 SUB SWAP1 LOG2 POP POP POP POP POP POP POP POP POP POP POP POP JUMP JUMPDEST PUSH1 0x1 PUSH1 0x1 PUSH1 0xA0 SHL SUB DUP2 AND PUSH0 SWAP1 DUP2 MSTORE PUSH1 0x20 DUP2 SWAP1 MSTORE PUSH1 0x40 SWAP1 KECCAK256 DUP1 SLOAD PUSH1 0x60 SWAP2 SWAP1 PUSH2 0x8B5 SWAP1 PUSH2 0x1E0D JUMP JUMPDEST DUP1 PUSH1 0x1F ADD PUSH1 0x20 DUP1 SWAP2 DIV MUL PUSH1 0x20 ADD PUSH1 0x40 MLOAD SWAP1 DUP2 ADD PUSH1 0x40 MSTORE DUP1 SWAP3 SWAP2 SWAP1 DUP2 DUP2 MSTORE PUSH1 0x20 ADD DUP3 DUP1 SLOAD PUSH2 0x8E1 SWAP1 PUSH2 0x1E0D JUMP JUMPDEST DUP1 ISZERO PUSH2 0x92C JUMPI DUP1 PUSH1 0x1F LT PUSH2 0x903 JUMPI PUSH2 0x100 DUP1 DUP4 SLOAD DIV MUL DUP4 MSTORE SWAP2 PUSH1 0x20 ADD SWAP2 PUSH2 0x92C JUMP JUMPDEST DUP3 ADD SWAP2 SWAP1 PUSH0 MSTORE PUSH1 0x20 PUSH0 KECCAK256 SWAP1 JUMPDEST DUP2 SLOAD DUP2 MSTORE SWAP1 PUSH1 0x1 ADD SWAP1 PUSH1 0x20 ADD DUP1 DUP4 GT PUSH2 0x90F JUMPI DUP3 SWAP1 SUB PUSH1 0x1F AND DUP3 ADD SWAP2 JUMPDEST POP POP POP POP POP SWAP1 POP SWAP2 SWAP1 POP JUMP JUMPDEST CALLER PUSH0 DUP2 DUP2 MSTORE PUSH1 0x20 DUP2 SWAP1 MSTORE PUSH1 0x40 SWAP1 KECCAK256 PUSH1 0x5 ADD SLOAD PUSH1 0xFF AND PUSH2 0x96A JUMPI PUSH1 0x40 MLOAD PUSH4 0x9A09FD87 PUSH1 0xE0 SHL DUP2 MSTORE PUSH1 0x4 ADD PUSH1 0x40 MLOAD DUP1 SWAP2 SUB SWAP1 REVERT JUMPDEST PUSH0 DUP5 SWAP1 SUB PUSH2 0x98B JUMPI PUSH1 0x40 MLOAD PUSH4 0xC19B643 PUSH1 0xE3 SHL DUP2 MSTORE PUSH1 0x4 ADD PUSH1 0x40 MLOAD DUP1 SWAP2 SUB SWAP1 REVERT JUMPDEST CALLER PUSH0 SWAP1 DUP2 MSTORE PUSH1 0x3 PUSH1 0x20 MSTORE PUSH1 0x40 SWAP1 DUP2 SWAP1 KECCAK256 SWAP1 MLOAD PUSH2 0x9AA SWAP1 DUP8 SWAP1 DUP8 SWAP1 PUSH2 0x1F58 JUMP JUMPDEST SWAP1 DUP2 MSTORE PUSH1 0x40 MLOAD SWAP1 DUP2 SWAP1 SUB PUSH1 0x20 ADD SWAP1 KECCAK256 PUSH1 0x2 ADD SLOAD PUSH1 0xFF AND ISZERO PUSH2 0x9DE JUMPI PUSH1 0x40 MLOAD PUSH4 0xFEA82A7D PUSH1 0xE0 SHL DUP2 MSTORE PUSH1 0x4 ADD PUSH1 0x40 MLOAD DUP1 SWAP2 SUB SWAP1 REVERT JUMPDEST PUSH1 0x40 MLOAD DUP1 PUSH1 0x60 ADD PUSH1 0x40 MSTORE DUP1 DUP5 DUP5 DUP1 DUP1 PUSH1 0x1F ADD PUSH1 0x20 DUP1 SWAP2 DIV MUL PUSH1 0x20 ADD PUSH1 0x40 MLOAD SWAP1 DUP2 ADD PUSH1 0x40 MSTORE DUP1 SWAP4 SWAP3 SWAP2 SWAP1 DUP2 DUP2 MSTORE PUSH1 0x20 ADD DUP4 DUP4 DUP1 DUP3 DUP5 CALLDATACOPY PUSH0 SWAP3 ADD DUP3 SWAP1 MSTORE POP SWAP4 DUP6 MSTORE POP POP TIMESTAMP PUSH1 0x20 DUP1 DUP6 ADD SWAP2 SWAP1 SWAP2 MSTORE PUSH1 0x1 PUSH1 0x40 SWAP5 DUP6 ADD MSTORE CALLER DUP4 MSTORE PUSH1 0x3 SWAP1 MSTORE POP DUP2 SWAP1 KECCAK256 SWAP1 MLOAD PUSH2 0xA4B SWAP1 DUP9 SWAP1 DUP9 SWAP1 PUSH2 0x1F58 JUMP JUMPDEST SWAP1 DUP2 MSTORE PUSH1 0x40 MLOAD SWAP1 DUP2 SWAP1 SUB PUSH1 0x20 ADD SWAP1 KECCAK256 DUP2 MLOAD DUP2 SWAP1 PUSH2 0xA68 SWAP1 DUP3 PUSH2 0x1F67 JUMP JUMPDEST POP PUSH1 0x20 DUP3 DUP2 ADD MLOAD PUSH1 0x1 DUP4 DUP2 ADD SWAP2 SWAP1 SWAP2 SSTORE PUSH1 0x40 SWAP4 DUP5 ADD MLOAD PUSH1 0x2 SWAP1 SWAP4 ADD DUP1 SLOAD PUSH1 0xFF NOT AND SWAP4 ISZERO ISZERO SWAP4 SWAP1 SWAP4 OR SWAP1 SWAP3 SSTORE CALLER PUSH0 SWAP1 DUP2 MSTORE PUSH1 0x4 DUP3 MSTORE SWAP3 DUP4 KECCAK256 DUP1 SLOAD SWAP3 DUP4 ADD DUP2 SSTORE DUP4 MSTORE SWAP1 SWAP2 KECCAK256 ADD PUSH2 0xAB7 DUP6 DUP8 DUP4 PUSH2 0x1EA1 JUMP JUMPDEST POP CALLER PUSH1 0x1 PUSH1 0x1 PUSH1 0xA0 SHL SUB AND PUSH32 0xA39BF56B0E015DEECE3471E3A54CF84B07202031B637F5D7B644E3CD71B8171A DUP7 DUP7 PUSH1 0x40 MLOAD PUSH2 0xAF3 SWAP3 SWAP2 SWAP1 PUSH2 0x20B4 JUMP JUMPDEST PUSH1 0x40 MLOAD DUP1 SWAP2 SUB SWAP1 LOG2 POP POP POP POP POP JUMP JUMPDEST PUSH1 0x60 PUSH0 DUP1 PUSH0 PUSH1 0x3 PUSH0 DUP9 PUSH1 0x1 PUSH1 0x1 PUSH1 0xA0 SHL SUB AND PUSH1 0x1 PUSH1 0x1 PUSH1 0xA0 SHL SUB AND DUP2 MSTORE PUSH1 0x20 ADD SWAP1 DUP2 MSTORE PUSH1 0x20 ADD PUSH0 KECCAK256 DUP7 DUP7 PUSH1 0x40 MLOAD PUSH2 0xB3A SWAP3 SWAP2 SWAP1 PUSH2 0x1F58 JUMP JUMPDEST SWAP1 DUP2 MSTORE PUSH1 0x40 MLOAD SWAP1 DUP2 SWAP1 SUB PUSH1 0x20 ADD SWAP1 KECCAK256 PUSH1 0x1 DUP2 ADD SLOAD PUSH1 0x2 DUP3 ADD SLOAD DUP3 SLOAD SWAP3 SWAP4 POP DUP4 SWAP3 PUSH1 0xFF SWAP1 SWAP2 AND SWAP1 DUP4 SWAP1 PUSH2 0xB6B SWAP1 PUSH2 0x1E0D JUMP JUMPDEST DUP1 PUSH1 0x1F ADD PUSH1 0x20 DUP1 SWAP2 DIV MUL PUSH1 0x20 ADD PUSH1 0x40 MLOAD SWAP1 DUP2 ADD PUSH1 0x40 MSTORE DUP1 SWAP3 SWAP2 SWAP1 DUP2 DUP2 MSTORE PUSH1 0x20 ADD DUP3 DUP1 SLOAD PUSH2 0xB97 SWAP1 PUSH2 0x1E0D JUMP JUMPDEST DUP1 ISZERO PUSH2 0xBE2 JUMPI DUP1 PUSH1 0x1F LT PUSH2 0xBB9 JUMPI PUSH2 0x100 DUP1 DUP4 SLOAD DIV MUL DUP4 MSTORE SWAP2 PUSH1 0x20 ADD SWAP2 PUSH2 0xBE2 JUMP JUMPDEST DUP3 ADD SWAP2 SWAP1 PUSH0 MSTORE PUSH1 0x20 PUSH0 KECCAK256 SWAP1 JUMPDEST DUP2 SLOAD DUP2 MSTORE SWAP1 PUSH1 0x1 ADD SWAP1 PUSH1 0x20 ADD DUP1 DUP4 GT PUSH2 0xBC5 JUMPI DUP3 SWAP1 SUB PUSH1 0x1F AND DUP3 ADD SWAP2 JUMPDEST POP POP POP POP POP SWAP3 POP SWAP4 POP SWAP4 POP SWAP4 POP POP SWAP4 POP SWAP4 POP SWAP4 SWAP1 POP JUMP JUMPDEST CALLER PUSH0 DUP2 DUP2 MSTORE PUSH1 0x20 DUP2 SWAP1 MSTORE PUSH1 0x40 SWAP1 KECCAK256 PUSH1 0x5 ADD SLOAD PUSH1 0xFF AND PUSH2 0xC2B JUMPI PUSH1 0x40 MLOAD PUSH4 0x9A09FD87 PUSH1 0xE0 SHL DUP2 MSTORE PUSH1 0x4 ADD PUSH1 0x40 MLOAD DUP1 SWAP2 SUB SWAP1 REVERT JUMPDEST CALLER PUSH0 SWAP1 DUP2 MSTORE PUSH1 0x20 DUP2 SWAP1 MSTORE PUSH1 0x40 DUP2 KECCAK256 PUSH1 0x2 DUP2 ADD DUP1 SLOAD SWAP2 SWAP3 PUSH1 0x1 SWAP3 PUSH2 0xC4F SWAP1 DUP5 SWAP1 PUSH2 0x20CF JUMP JUMPDEST SWAP1 SWAP2 SSTORE POP POP PUSH0 PUSH1 0x3 DUP3 ADD DUP2 SWAP1 SSTORE PUSH1 0x5 DUP3 ADD DUP1 SLOAD PUSH2 0xFF00 NOT AND PUSH2 0x100 OR SWAP1 SSTORE TIMESTAMP PUSH1 0x4 DUP4 ADD SSTORE PUSH1 0x2 DUP3 ADD SLOAD PUSH1 0x40 MLOAD SWAP1 SWAP2 CALLER SWAP2 PUSH32 0x68ED0096B24A0E62BE18A90AF2932F6DA5FE498003E14175D1028E2D1C207CD5 SWAP2 SWAP1 LOG3 POP POP JUMP JUMPDEST CALLER PUSH0 DUP2 DUP2 MSTORE PUSH1 0x20 DUP2 SWAP1 MSTORE PUSH1 0x40 SWAP1 KECCAK256 PUSH1 0x5 ADD SLOAD PUSH1 0xFF AND PUSH2 0xCD9 JUMPI PUSH1 0x40 MLOAD PUSH4 0x9A09FD87 PUSH1 0xE0 SHL DUP2 MSTORE PUSH1 0x4 ADD PUSH1 0x40 MLOAD DUP1 SWAP2 SUB SWAP1 REVERT JUMPDEST CALLER PUSH0 SWAP1 DUP2 MSTORE PUSH1 0x3 PUSH1 0x20 MSTORE PUSH1 0x40 SWAP1 DUP2 SWAP1 KECCAK256 SWAP1 MLOAD PUSH2 0xCF8 SWAP1 DUP6 SWAP1 DUP6 SWAP1 PUSH2 0x1F58 JUMP JUMPDEST SWAP1 DUP2 MSTORE PUSH1 0x40 MLOAD SWAP1 DUP2 SWAP1 SUB PUSH1 0x20 ADD SWAP1 KECCAK256 PUSH1 0x2 ADD SLOAD PUSH1 0xFF AND PUSH2 0xD2B JUMPI PUSH1 0x40 MLOAD PUSH4 0x5D47E149 PUSH1 0xE1 SHL DUP2 MSTORE PUSH1 0x4 ADD PUSH1 0x40 MLOAD DUP1 SWAP2 SUB SWAP1 REVERT JUMPDEST CALLER PUSH0 SWAP1 DUP2 MSTORE PUSH1 0x3 PUSH1 0x20 MSTORE PUSH1 0x40 SWAP1 DUP2 SWAP1 KECCAK256 SWAP1 MLOAD PUSH2 0xD4A SWAP1 DUP6 SWAP1 DUP6 SWAP1 PUSH2 0x1F58 JUMP JUMPDEST SWAP1 DUP2 MSTORE PUSH1 0x40 MLOAD SWAP1 DUP2 SWAP1 SUB PUSH1 0x20 ADD SWAP1 KECCAK256 PUSH0 PUSH2 0xD64 DUP3 DUP3 PUSH2 0x18C9 JUMP JUMPDEST POP PUSH0 PUSH1 0x1 DUP3 ADD DUP2 SWAP1 SSTORE PUSH1 0x2 SWAP1 SWAP2 ADD DUP1 SLOAD PUSH1 0xFF NOT AND SWAP1 SSTORE CALLER DUP2 MSTORE PUSH1 0x4 PUSH1 0x20 MSTORE PUSH1 0x40 DUP2 KECCAK256 SWAP1 JUMPDEST DUP2 SLOAD DUP2 LT ISZERO PUSH2 0xE6E JUMPI DUP5 DUP5 PUSH1 0x40 MLOAD PUSH2 0xDA1 SWAP3 SWAP2 SWAP1 PUSH2 0x1F58 JUMP JUMPDEST PUSH1 0x40 MLOAD DUP1 SWAP2 SUB SWAP1 KECCAK256 DUP3 DUP3 DUP2 SLOAD DUP2 LT PUSH2 0xDBB JUMPI PUSH2 0xDBB PUSH2 0x1DB9 JUMP JUMPDEST SWAP1 PUSH0 MSTORE PUSH1 0x20 PUSH0 KECCAK256 ADD PUSH1 0x40 MLOAD PUSH2 0xDD0 SWAP2 SWAP1 PUSH2 0x20E2 JUMP JUMPDEST PUSH1 0x40 MLOAD DUP1 SWAP2 SUB SWAP1 KECCAK256 SUB PUSH2 0xE5C JUMPI DUP2 SLOAD DUP3 SWAP1 PUSH2 0xDED SWAP1 PUSH1 0x1 SWAP1 PUSH2 0x2154 JUMP JUMPDEST DUP2 SLOAD DUP2 LT PUSH2 0xDFD JUMPI PUSH2 0xDFD PUSH2 0x1DB9 JUMP JUMPDEST SWAP1 PUSH0 MSTORE PUSH1 0x20 PUSH0 KECCAK256 ADD DUP3 DUP3 DUP2 SLOAD DUP2 LT PUSH2 0xE17 JUMPI PUSH2 0xE17 PUSH2 0x1DB9 JUMP JUMPDEST SWAP1 PUSH0 MSTORE PUSH1 0x20 PUSH0 KECCAK256 ADD SWAP1 DUP2 PUSH2 0xE2B SWAP2 SWAP1 PUSH2 0x2167 JUMP JUMPDEST POP DUP2 DUP1 SLOAD DUP1 PUSH2 0xE3C JUMPI PUSH2 0xE3C PUSH2 0x222F JUMP JUMPDEST PUSH1 0x1 SWAP1 SUB DUP2 DUP2 SWAP1 PUSH0 MSTORE PUSH1 0x20 PUSH0 KECCAK256 ADD PUSH0 PUSH2 0xE55 SWAP2 SWAP1 PUSH2 0x18C9 JUMP JUMPDEST SWAP1 SSTORE PUSH2 0xE6E JUMP JUMPDEST DUP1 PUSH2 0xE66 DUP2 PUSH2 0x1DE1 JUMP JUMPDEST SWAP2 POP POP PUSH2 0xD88 JUMP JUMPDEST POP CALLER PUSH1 0x1 PUSH1 0x1 PUSH1 0xA0 SHL SUB AND PUSH32 0xBA9B962FB9EE465A8877D213F2158C7B0437E68D39C8F1A273D45CC70813F2DE DUP6 DUP6 PUSH1 0x40 MLOAD PUSH2 0xEAA SWAP3 SWAP2 SWAP1 PUSH2 0x20B4 JUMP JUMPDEST PUSH1 0x40 MLOAD DUP1 SWAP2 SUB SWAP1 LOG2 POP POP POP POP JUMP JUMPDEST CALLER PUSH0 DUP2 DUP2 MSTORE PUSH1 0x20 DUP2 SWAP1 MSTORE PUSH1 0x40 SWAP1 KECCAK256 PUSH1 0x5 ADD SLOAD PUSH1 0xFF AND PUSH2 0xEEA JUMPI PUSH1 0x40 MLOAD PUSH4 0x9A09FD87 PUSH1 0xE0 SHL DUP2 MSTORE PUSH1 0x4 ADD PUSH1 0x40 MLOAD DUP1 SWAP2 SUB SWAP1 REVERT JUMPDEST CALLER PUSH0 SWAP1 DUP2 MSTORE PUSH1 0x20 DUP2 SWAP1 MSTORE PUSH1 0x40 SWAP1 KECCAK256 PUSH2 0xF03 DUP4 DUP6 DUP4 PUSH2 0x1EA1 JUMP JUMPDEST POP CALLER PUSH1 0x1 PUSH1 0x1 PUSH1 0xA0 SHL SUB AND PUSH32 0xE6D2EDDED44DF0E1445FBE0A40703575CE09CD5824537C4194124C0B567DFE03 DUP5 DUP5 PUSH1 0x40 MLOAD PUSH2 0xF3F SWAP3 SWAP2 SWAP1 PUSH2 0x20B4 JUMP JUMPDEST PUSH1 0x40 MLOAD DUP1 SWAP2 SUB SWAP1 LOG2 POP POP POP JUMP JUMPDEST PUSH0 DUP3 SWAP1 SUB PUSH2 0xF6D JUMPI PUSH1 0x40 MLOAD PUSH4 0xA6C1146B PUSH1 0xE0 SHL DUP2 MSTORE PUSH1 0x4 ADD PUSH1 0x40 MLOAD DUP1 SWAP2 SUB SWAP1 REVERT JUMPDEST PUSH1 0xFF DUP2 AND ISZERO DUP1 PUSH2 0xF7F JUMPI POP PUSH1 0xFF DUP2 AND DUP3 LT JUMPDEST ISZERO PUSH2 0xF9D JUMPI PUSH1 0x40 MLOAD PUSH4 0xAABD5A09 PUSH1 0xE0 SHL DUP2 MSTORE PUSH1 0x4 ADD PUSH1 0x40 MLOAD DUP1 SWAP2 SUB SWAP1 REVERT JUMPDEST CALLER PUSH0 DUP2 DUP2 MSTORE PUSH1 0x1 PUSH1 0x20 MSTORE PUSH1 0x40 DUP2 KECCAK256 SWAP1 JUMPDEST DUP2 SLOAD DUP2 LT ISZERO PUSH2 0x1028 JUMPI PUSH1 0x1 PUSH1 0x1 PUSH1 0xA0 SHL SUB DUP4 AND PUSH0 SWAP1 DUP2 MSTORE PUSH1 0x2 PUSH1 0x20 MSTORE PUSH1 0x40 DUP2 KECCAK256 DUP4 SLOAD DUP3 SWAP1 DUP6 SWAP1 DUP6 SWAP1 DUP2 LT PUSH2 0xFE3 JUMPI PUSH2 0xFE3 PUSH2 0x1DB9 JUMP JUMPDEST PUSH0 SWAP2 DUP3 MSTORE PUSH1 0x20 DUP1 DUP4 KECCAK256 SWAP2 SWAP1 SWAP2 ADD SLOAD PUSH1 0x1 PUSH1 0x1 PUSH1 0xA0 SHL SUB AND DUP4 MSTORE DUP3 ADD SWAP3 SWAP1 SWAP3 MSTORE PUSH1 0x40 ADD SWAP1 KECCAK256 DUP1 SLOAD PUSH1 0xFF NOT AND SWAP2 ISZERO ISZERO SWAP2 SWAP1 SWAP2 OR SWAP1 SSTORE DUP1 PUSH2 0x1020 DUP2 PUSH2 0x1DE1 JUMP JUMPDEST SWAP2 POP POP PUSH2 0xFAD JUMP JUMPDEST POP PUSH1 0x1 PUSH1 0x1 PUSH1 0xA0 SHL SUB DUP3 AND PUSH0 SWAP1 DUP2 MSTORE PUSH1 0x1 PUSH1 0x20 MSTORE PUSH1 0x40 DUP2 KECCAK256 PUSH2 0x1049 SWAP2 PUSH2 0x18AB JUMP JUMPDEST PUSH0 JUMPDEST DUP5 DUP2 LT ISZERO PUSH2 0x1178 JUMPI PUSH0 DUP7 DUP7 DUP4 DUP2 DUP2 LT PUSH2 0x1066 JUMPI PUSH2 0x1066 PUSH2 0x1DB9 JUMP JUMPDEST SWAP1 POP PUSH1 0x20 MUL ADD PUSH1 0x20 DUP2 ADD SWAP1 PUSH2 0x107B SWAP2 SWAP1 PUSH2 0x192F JUMP JUMPDEST SWAP1 POP PUSH1 0x1 PUSH1 0x1 PUSH1 0xA0 SHL SUB DUP2 AND ISZERO DUP1 PUSH2 0x10A4 JUMPI POP DUP4 PUSH1 0x1 PUSH1 0x1 PUSH1 0xA0 SHL SUB AND DUP2 PUSH1 0x1 PUSH1 0x1 PUSH1 0xA0 SHL SUB AND EQ JUMPDEST ISZERO PUSH2 0x10C2 JUMPI PUSH1 0x40 MLOAD PUSH4 0xA6C1146B PUSH1 0xE0 SHL DUP2 MSTORE PUSH1 0x4 ADD PUSH1 0x40 MLOAD DUP1 SWAP2 SUB SWAP1 REVERT JUMPDEST PUSH1 0x1 PUSH1 0x1 PUSH1 0xA0 SHL SUB DUP1 DUP6 AND PUSH0 SWAP1 DUP2 MSTORE PUSH1 0x2 PUSH1 0x20 SWAP1 DUP2 MSTORE PUSH1 0x40 DUP1 DUP4 KECCAK256 SWAP4 DUP6 AND DUP4 MSTORE SWAP3 SWAP1 MSTORE KECCAK256 SLOAD PUSH1 0xFF AND ISZERO PUSH2 0x1108 JUMPI PUSH1 0x40 MLOAD PUSH4 0x6F3BDABB PUSH1 0xE0 SHL DUP2 MSTORE PUSH1 0x4 ADD PUSH1 0x40 MLOAD DUP1 SWAP2 SUB SWAP1 REVERT JUMPDEST PUSH1 0x1 PUSH1 0x1 PUSH1 0xA0 SHL SUB DUP1 DUP6 AND PUSH0 DUP2 DUP2 MSTORE PUSH1 0x2 PUSH1 0x20 SWAP1 DUP2 MSTORE PUSH1 0x40 DUP1 DUP4 KECCAK256 SWAP6 SWAP1 SWAP5 AND DUP1 DUP4 MSTORE SWAP5 DUP2 MSTORE DUP4 DUP3 KECCAK256 DUP1 SLOAD PUSH1 0xFF NOT AND PUSH1 0x1 SWAP1 DUP2 OR SWAP1 SWAP2 SSTORE SWAP3 DUP3 MSTORE DUP3 DUP2 MSTORE SWAP3 DUP2 KECCAK256 DUP1 SLOAD SWAP3 DUP4 ADD DUP2 SSTORE DUP2 MSTORE SWAP2 SWAP1 SWAP2 KECCAK256 ADD DUP1 SLOAD PUSH1 0x1 PUSH1 0x1 PUSH1 0xA0 SHL SUB NOT AND SWAP1 SWAP2 OR SWAP1 SSTORE DUP1 PUSH2 0x1170 DUP2 PUSH2 0x1DE1 JUMP JUMPDEST SWAP2 POP POP PUSH2 0x104B JUMP JUMPDEST POP PUSH1 0x1 PUSH1 0x1 PUSH1 0xA0 SHL SUB DUP3 AND PUSH0 SWAP1 DUP2 MSTORE PUSH1 0x20 DUP2 SWAP1 MSTORE PUSH1 0x40 SWAP1 KECCAK256 DUP1 PUSH2 0x119C DUP9 DUP11 DUP4 PUSH2 0x1EA1 JUMP JUMPDEST POP PUSH1 0x1 DUP2 DUP2 ADD DUP1 SLOAD PUSH1 0xFF NOT AND PUSH1 0xFF DUP8 AND OR SWAP1 SSTORE PUSH0 PUSH1 0x2 DUP4 ADD DUP2 SWAP1 SSTORE PUSH1 0x3 DUP4 ADD DUP2 SWAP1 SSTORE PUSH1 0x5 DUP4 ADD DUP1 SLOAD PUSH2 0xFFFF NOT AND DUP4 OR SWAP1 SSTORE PUSH1 0x1 PUSH1 0x1 PUSH1 0xA0 SHL SUB DUP6 AND DUP1 DUP3 MSTORE PUSH1 0x20 SWAP3 SWAP1 SWAP3 MSTORE PUSH1 0x40 SWAP1 DUP2 SWAP1 KECCAK256 SWAP1 MLOAD PUSH32 0x820657CC0B60FA6A5579DCFE63E64B56562D6E099CFCF9AD1AB5D3B25C45A463 SWAP2 PUSH2 0x121A SWAP2 DUP13 SWAP2 DUP13 SWAP2 DUP11 SWAP2 SWAP1 PUSH2 0x2046 JUMP JUMPDEST PUSH1 0x40 MLOAD DUP1 SWAP2 SUB SWAP1 LOG2 POP POP POP POP POP POP POP POP JUMP JUMPDEST PUSH1 0x1 PUSH1 0x1 PUSH1 0xA0 SHL SUB DUP2 AND PUSH0 SWAP1 DUP2 MSTORE PUSH1 0x20 DUP2 SWAP1 MSTORE PUSH1 0x40 DUP2 KECCAK256 PUSH1 0x5 ADD SLOAD DUP3 SWAP1 PUSH1 0xFF AND PUSH2 0x1269 JUMPI PUSH1 0x40 MLOAD PUSH4 0x9A09FD87 PUSH1 0xE0 SHL DUP2 MSTORE PUSH1 0x4 ADD PUSH1 0x40 MLOAD DUP1 SWAP2 SUB SWAP1 REVERT JUMPDEST PUSH1 0x1 PUSH1 0x1 PUSH1 0xA0 SHL SUB DUP4 AND PUSH0 SWAP1 DUP2 MSTORE PUSH1 0x20 DUP2 SWAP1 MSTORE PUSH1 0x40 SWAP1 KECCAK256 PUSH1 0x5 DUP2 ADD SLOAD PUSH2 0x100 SWAP1 DIV PUSH1 0xFF AND ISZERO DUP1 PUSH2 0x129B JUMPI POP PUSH1 0x2 DUP2 ADD SLOAD ISZERO JUMPDEST ISZERO PUSH2 0x12A9 JUMPI PUSH0 SWAP3 POP POP PUSH2 0x12BE JUMP JUMPDEST PUSH1 0x1 DUP2 ADD SLOAD PUSH1 0x3 SWAP1 SWAP2 ADD SLOAD PUSH1 0xFF SWAP1 SWAP2 AND GT ISZERO SWAP2 POP JUMPDEST POP SWAP2 SWAP1 POP JUMP JUMPDEST PUSH1 0x1 PUSH1 0x1 PUSH1 0xA0 SHL SUB DUP2 AND PUSH0 SWAP1 DUP2 MSTORE PUSH1 0x20 DUP2 SWAP1 MSTORE PUSH1 0x40 SWAP1 KECCAK256 PUSH1 0x5 ADD SLOAD DUP2 SWAP1 PUSH1 0xFF AND PUSH2 0x1301 JUMPI PUSH1 0x40 MLOAD PUSH4 0x9A09FD87 PUSH1 0xE0 SHL DUP2 MSTORE PUSH1 0x4 ADD PUSH1 0x40 MLOAD DUP1 SWAP2 SUB SWAP1 REVERT JUMPDEST PUSH1 0x1 PUSH1 0x1 PUSH1 0xA0 SHL SUB DUP3 AND PUSH0 SWAP1 DUP2 MSTORE PUSH1 0x2 PUSH1 0x20 SWAP1 DUP2 MSTORE PUSH1 0x40 DUP1 DUP4 KECCAK256 CALLER DUP5 MSTORE SWAP1 SWAP2 MSTORE SWAP1 KECCAK256 SLOAD DUP3 SWAP1 PUSH1 0xFF AND PUSH2 0x1346 JUMPI PUSH1 0x40 MLOAD PUSH4 0x77B68781 PUSH1 0xE1 SHL DUP2 MSTORE PUSH1 0x4 ADD PUSH1 0x40 MLOAD DUP1 SWAP2 SUB SWAP1 REVERT JUMPDEST PUSH1 0x1 PUSH1 0x1 PUSH1 0xA0 SHL SUB DUP4 AND PUSH0 SWAP1 DUP2 MSTORE PUSH1 0x20 DUP2 SWAP1 MSTORE PUSH1 0x40 SWAP1 KECCAK256 PUSH1 0x5 DUP2 ADD SLOAD PUSH2 0x100 SWAP1 DIV PUSH1 0xFF AND ISZERO DUP1 PUSH2 0x1378 JUMPI POP PUSH1 0x2 DUP2 ADD SLOAD ISZERO JUMPDEST ISZERO PUSH2 0x1396 JUMPI PUSH1 0x40 MLOAD PUSH4 0x5CAA3547 PUSH1 0xE0 SHL DUP2 MSTORE PUSH1 0x4 ADD PUSH1 0x40 MLOAD DUP1 SWAP2 SUB SWAP1 REVERT JUMPDEST PUSH2 0x12C DUP2 PUSH1 0x4 ADD SLOAD PUSH2 0x13A8 SWAP2 SWAP1 PUSH2 0x20CF JUMP JUMPDEST TIMESTAMP GT ISZERO PUSH2 0x13D6 JUMPI PUSH1 0x5 DUP2 ADD DUP1 SLOAD PUSH2 0xFF00 NOT AND SWAP1 SSTORE PUSH1 0x40 DUP1 MLOAD PUSH4 0x5CAA3547 PUSH1 0xE0 SHL DUP2 MSTORE SWAP1 MLOAD SWAP1 DUP2 SWAP1 SUB PUSH1 0x4 ADD SWAP1 REVERT JUMPDEST PUSH1 0x1 PUSH1 0x1 PUSH1 0xA0 SHL SUB DUP5 AND PUSH0 SWAP1 DUP2 MSTORE PUSH1 0x5 PUSH1 0x20 SWAP1 DUP2 MSTORE PUSH1 0x40 DUP1 DUP4 KECCAK256 PUSH1 0x2 DUP6 ADD SLOAD DUP5 MSTORE DUP3 MSTORE DUP1 DUP4 KECCAK256 CALLER DUP5 MSTORE SWAP1 SWAP2 MSTORE SWAP1 KECCAK256 SLOAD PUSH1 0xFF AND ISZERO PUSH2 0x1426 JUMPI PUSH1 0x40 MLOAD PUSH4 0x80FC0BD PUSH1 0xE1 SHL DUP2 MSTORE PUSH1 0x4 ADD PUSH1 0x40 MLOAD DUP1 SWAP2 SUB SWAP1 REVERT JUMPDEST PUSH1 0x1 PUSH1 0x1 PUSH1 0xA0 SHL SUB DUP5 AND PUSH0 SWAP1 DUP2 MSTORE PUSH1 0x5 PUSH1 0x20 SWAP1 DUP2 MSTORE PUSH1 0x40 DUP1 DUP4 KECCAK256 PUSH1 0x2 DUP6 ADD SLOAD DUP5 MSTORE DUP3 MSTORE DUP1 DUP4 KECCAK256 CALLER DUP5 MSTORE SWAP1 SWAP2 MSTORE DUP2 KECCAK256 DUP1 SLOAD PUSH1 0xFF NOT AND PUSH1 0x1 SWAP1 DUP2 OR SWAP1 SWAP2 SSTORE PUSH1 0x3 DUP4 ADD DUP1 SLOAD SWAP2 SWAP3 SWAP1 SWAP2 PUSH2 0x1477 SWAP1 DUP5 SWAP1 PUSH2 0x20CF JUMP JUMPDEST SWAP1 SWAP2 SSTORE POP POP PUSH1 0x2 DUP2 ADD SLOAD PUSH1 0x3 DUP3 ADD SLOAD PUSH1 0x40 MLOAD SWAP1 DUP2 MSTORE CALLER SWAP2 SWAP1 PUSH1 0x1 PUSH1 0x1 PUSH1 0xA0 SHL SUB DUP8 AND SWAP1 PUSH32 0x66A24788C1F8A1E2C9F4F326C823531A758A5BF8B9937B312F683C56143A6E8A SWAP1 PUSH1 0x20 ADD PUSH1 0x40 MLOAD DUP1 SWAP2 SUB SWAP1 LOG4 POP POP POP POP JUMP JUMPDEST CALLER PUSH0 DUP2 DUP2 MSTORE PUSH1 0x20 DUP2 SWAP1 MSTORE PUSH1 0x40 SWAP1 KECCAK256 PUSH1 0x5 ADD SLOAD PUSH1 0xFF AND PUSH2 0x14FF JUMPI PUSH1 0x40 MLOAD PUSH4 0x9A09FD87 PUSH1 0xE0 SHL DUP2 MSTORE PUSH1 0x4 ADD PUSH1 0x40 MLOAD DUP1 SWAP2 SUB SWAP1 REVERT JUMPDEST CALLER PUSH0 SWAP1 DUP2 MSTORE PUSH1 0x3 PUSH1 0x20 MSTORE PUSH1 0x40 SWAP1 DUP2 SWAP1 KECCAK256 SWAP1 MLOAD PUSH2 0x151E SWAP1 DUP8 SWAP1 DUP8 SWAP1 PUSH2 0x1F58 JUMP JUMPDEST SWAP1 DUP2 MSTORE PUSH1 0x40 MLOAD SWAP1 DUP2 SWAP1 SUB PUSH1 0x20 ADD SWAP1 KECCAK256 PUSH1 0x2 ADD SLOAD PUSH1 0xFF AND PUSH2 0x1551 JUMPI PUSH1 0x40 MLOAD PUSH4 0x5D47E149 PUSH1 0xE1 SHL DUP2 MSTORE PUSH1 0x4 ADD PUSH1 0x40 MLOAD DUP1 SWAP2 SUB SWAP1 REVERT JUMPDEST CALLER PUSH0 SWAP1 DUP2 MSTORE PUSH1 0x3 PUSH1 0x20 MSTORE PUSH1 0x40 SWAP1 DUP2 SWAP1 KECCAK256 SWAP1 MLOAD DUP5 SWAP2 DUP5 SWAP2 PUSH2 0x1574 SWAP1 DUP10 SWAP1 DUP10 SWAP1 PUSH2 0x1F58 JUMP JUMPDEST SWAP1 DUP2 MSTORE PUSH1 0x40 MLOAD SWAP1 DUP2 SWAP1 SUB PUSH1 0x20 ADD SWAP1 KECCAK256 SWAP2 PUSH2 0x158F SWAP2 SWAP1 DUP4 PUSH2 0x1EA1 JUMP JUMPDEST POP CALLER PUSH1 0x1 PUSH1 0x1 PUSH1 0xA0 SHL SUB AND PUSH32 0x379C1D2B166DDDCA664ED07EEA9F2CDE55A32FD3010F384AA08A04F49ED4DF95 DUP7 DUP7 PUSH1 0x40 MLOAD PUSH2 0xAF3 SWAP3 SWAP2 SWAP1 PUSH2 0x20B4 JUMP JUMPDEST PUSH1 0x1 PUSH1 0x1 PUSH1 0xA0 SHL SUB DUP2 AND PUSH0 SWAP1 DUP2 MSTORE PUSH1 0x4 PUSH1 0x20 SWAP1 DUP2 MSTORE PUSH1 0x40 DUP1 DUP4 KECCAK256 DUP1 SLOAD DUP3 MLOAD DUP2 DUP6 MUL DUP2 ADD DUP6 ADD SWAP1 SWAP4 MSTORE DUP1 DUP4 MSTORE PUSH1 0x60 SWAP5 SWAP3 SWAP4 SWAP2 SWAP3 SWAP1 SWAP2 DUP5 ADD JUMPDEST DUP3 DUP3 LT ISZERO PUSH2 0x16AA JUMPI DUP4 DUP3 SWAP1 PUSH0 MSTORE PUSH1 0x20 PUSH0 KECCAK256 ADD DUP1 SLOAD PUSH2 0x161F SWAP1 PUSH2 0x1E0D JUMP JUMPDEST DUP1 PUSH1 0x1F ADD PUSH1 0x20 DUP1 SWAP2 DIV MUL PUSH1 0x20 ADD PUSH1 0x40 MLOAD SWAP1 DUP2 ADD PUSH1 0x40 MSTORE DUP1 SWAP3 SWAP2 SWAP1 DUP2 DUP2 MSTORE PUSH1 0x20 ADD DUP3 DUP1 SLOAD PUSH2 0x164B SWAP1 PUSH2 0x1E0D JUMP JUMPDEST DUP1 ISZERO PUSH2 0x1696 JUMPI DUP1 PUSH1 0x1F LT PUSH2 0x166D JUMPI PUSH2 0x100 DUP1 DUP4 SLOAD DIV MUL DUP4 MSTORE SWAP2 PUSH1 0x20 ADD SWAP2 PUSH2 0x1696 JUMP JUMPDEST DUP3 ADD SWAP2 SWAP1 PUSH0 MSTORE PUSH1 0x20 PUSH0 KECCAK256 SWAP1 JUMPDEST DUP2 SLOAD DUP2 MSTORE SWAP1 PUSH1 0x1 ADD SWAP1 PUSH1 0x20 ADD DUP1 DUP4 GT PUSH2 0x1679 JUMPI DUP3 SWAP1 SUB PUSH1 0x1F AND DUP3 ADD SWAP2 JUMPDEST POP POP POP POP POP DUP2 MSTORE PUSH1 0x20 ADD SWAP1 PUSH1 0x1 ADD SWAP1 PUSH2 0x1602 JUMP JUMPDEST POP POP POP POP SWAP1 POP SWAP2 SWAP1 POP JUMP JUMPDEST CALLER PUSH0 DUP2 DUP2 MSTORE PUSH1 0x20 DUP2 SWAP1 MSTORE PUSH1 0x40 SWAP1 KECCAK256 PUSH1 0x5 ADD SLOAD PUSH1 0xFF AND PUSH2 0x16E7 JUMPI PUSH1 0x40 MLOAD PUSH4 0x9A09FD87 PUSH1 0xE0 SHL DUP2 MSTORE PUSH1 0x4 ADD PUSH1 0x40 MLOAD DUP1 SWAP2 SUB SWAP1 REVERT JUMPDEST CALLER PUSH0 SWAP1 DUP2 MSTORE PUSH1 0x20 DUP2 SWAP1 MSTORE PUSH1 0x40 SWAP1 KECCAK256 PUSH1 0x5 DUP2 ADD SLOAD PUSH2 0x100 SWAP1 DIV PUSH1 0xFF AND ISZERO DUP1 PUSH2 0x1710 JUMPI POP PUSH1 0x2 DUP2 ADD SLOAD ISZERO JUMPDEST ISZERO PUSH2 0x172E JUMPI PUSH1 0x40 MLOAD PUSH4 0x5CAA3547 PUSH1 0xE0 SHL DUP2 MSTORE PUSH1 0x4 ADD PUSH1 0x40 MLOAD DUP1 SWAP2 SUB SWAP1 REVERT JUMPDEST CALLER PUSH0 SWAP1 DUP2 MSTORE PUSH1 0x1 PUSH1 0x20 MSTORE PUSH1 0x40 DUP2 KECCAK256 SWAP1 JUMPDEST DUP2 SLOAD DUP2 LT ISZERO PUSH2 0x17BF JUMPI CALLER PUSH0 SWAP1 DUP2 MSTORE PUSH1 0x5 PUSH1 0x20 SWAP1 DUP2 MSTORE PUSH1 0x40 DUP1 DUP4 KECCAK256 PUSH1 0x2 DUP8 ADD SLOAD DUP5 MSTORE SWAP1 SWAP2 MSTORE DUP2 KECCAK256 DUP4 SLOAD DUP3 SWAP1 DUP6 SWAP1 DUP6 SWAP1 DUP2 LT PUSH2 0x177A JUMPI PUSH2 0x177A PUSH2 0x1DB9 JUMP JUMPDEST PUSH0 SWAP2 DUP3 MSTORE PUSH1 0x20 DUP1 DUP4 KECCAK256 SWAP2 SWAP1 SWAP2 ADD SLOAD PUSH1 0x1 PUSH1 0x1 PUSH1 0xA0 SHL SUB AND DUP4 MSTORE DUP3 ADD SWAP3 SWAP1 SWAP3 MSTORE PUSH1 0x40 ADD SWAP1 KECCAK256 DUP1 SLOAD PUSH1 0xFF NOT AND SWAP2 ISZERO ISZERO SWAP2 SWAP1 SWAP2 OR SWAP1 SSTORE DUP1 PUSH2 0x17B7 DUP2 PUSH2 0x1DE1 JUMP JUMPDEST SWAP2 POP POP PUSH2 0x173E JUMP JUMPDEST POP PUSH0 PUSH1 0x3 DUP4 ADD DUP2 SWAP1 SSTORE PUSH1 0x5 DUP4 ADD DUP1 SLOAD PUSH2 0xFF00 NOT AND SWAP1 SSTORE PUSH1 0x2 DUP4 ADD SLOAD PUSH1 0x40 MLOAD SWAP1 SWAP2 CALLER SWAP2 PUSH32 0x4E19D4165C8EC779F6414C11C110B66128A1AEFFE6596C4FAD0E3AF0ECCBA33D SWAP2 SWAP1 LOG3 POP POP POP JUMP JUMPDEST PUSH1 0x1 PUSH1 0x1 PUSH1 0xA0 SHL SUB DUP2 AND PUSH0 SWAP1 DUP2 MSTORE PUSH1 0x1 PUSH1 0x20 SWAP1 DUP2 MSTORE PUSH1 0x40 SWAP2 DUP3 SWAP1 KECCAK256 DUP1 SLOAD DUP4 MLOAD DUP2 DUP5 MUL DUP2 ADD DUP5 ADD SWAP1 SWAP5 MSTORE DUP1 DUP5 MSTORE PUSH1 0x60 SWAP4 SWAP3 DUP4 ADD DUP3 DUP3 DUP1 ISZERO PUSH2 0x92C JUMPI PUSH1 0x20 MUL DUP3 ADD SWAP2 SWAP1 PUSH0 MSTORE PUSH1 0x20 PUSH0 KECCAK256 SWAP1 JUMPDEST DUP2 SLOAD PUSH1 0x1 PUSH1 0x1 PUSH1 0xA0 SHL SUB AND DUP2 MSTORE PUSH1 0x1 SWAP1 SWAP2 ADD SWAP1 PUSH1 0x20 ADD DUP1 DUP4 GT PUSH2 0x1853 JUMPI POP POP POP POP POP SWAP1 POP SWAP2 SWAP1 POP JUMP JUMPDEST PUSH1 0x1 PUSH1 0x1 PUSH1 0xA0 SHL SUB DUP1 DUP4 AND PUSH0 SWAP1 DUP2 MSTORE PUSH1 0x2 PUSH1 0x20 SWAP1 DUP2 MSTORE PUSH1 0x40 DUP1 DUP4 KECCAK256 SWAP4 DUP6 AND DUP4 MSTORE SWAP3 SWAP1 MSTORE KECCAK256 SLOAD PUSH1 0xFF AND JUMPDEST SWAP3 SWAP2 POP POP JUMP JUMPDEST POP DUP1 SLOAD PUSH0 DUP3 SSTORE SWAP1 PUSH0 MSTORE PUSH1 0x20 PUSH0 KECCAK256 SWAP1 DUP2 ADD SWAP1 PUSH2 0x18C6 SWAP2 SWAP1 PUSH2 0x18FC JUMP JUMPDEST POP JUMP JUMPDEST POP DUP1 SLOAD PUSH2 0x18D5 SWAP1 PUSH2 0x1E0D JUMP JUMPDEST PUSH0 DUP3 SSTORE DUP1 PUSH1 0x1F LT PUSH2 0x18E4 JUMPI POP POP JUMP JUMPDEST PUSH1 0x1F ADD PUSH1 0x20 SWAP1 DIV SWAP1 PUSH0 MSTORE PUSH1 0x20 PUSH0 KECCAK256 SWAP1 DUP2 ADD SWAP1 PUSH2 0x18C6 SWAP2 SWAP1 JUMPDEST JUMPDEST DUP1 DUP3 GT ISZERO PUSH2 0x1910 JUMPI PUSH0 DUP2 SSTORE PUSH1 0x1 ADD PUSH2 0x18FD JUMP JUMPDEST POP SWAP1 JUMP JUMPDEST DUP1 CALLDATALOAD PUSH1 0x1 PUSH1 0x1 PUSH1 0xA0 SHL SUB DUP2 AND DUP2 EQ PUSH2 0x192A JUMPI PUSH0 DUP1 REVERT JUMPDEST SWAP2 SWAP1 POP JUMP JUMPDEST PUSH0 PUSH1 0x20 DUP3 DUP5 SUB SLT ISZERO PUSH2 0x193F JUMPI PUSH0 DUP1 REVERT JUMPDEST PUSH2 0x1948 DUP3 PUSH2 0x1914 JUMP JUMPDEST SWAP4 SWAP3 POP POP POP JUMP JUMPDEST PUSH0 DUP1 DUP4 PUSH1 0x1F DUP5 ADD SLT PUSH2 0x195F JUMPI PUSH0 DUP1 REVERT JUMPDEST POP DUP2 CALLDATALOAD PUSH8 0xFFFFFFFFFFFFFFFF DUP2 GT ISZERO PUSH2 0x1976 JUMPI PUSH0 DUP1 REVERT JUMPDEST PUSH1 0x20 DUP4 ADD SWAP2 POP DUP4 PUSH1 0x20 DUP3 DUP6 ADD ADD GT ISZERO PUSH2 0x198D JUMPI PUSH0 DUP1 REVERT JUMPDEST SWAP3 POP SWAP3 SWAP1 POP JUMP JUMPDEST PUSH0 DUP1 DUP4 PUSH1 0x1F DUP5 ADD SLT PUSH2 0x19A4 JUMPI PUSH0 DUP1 REVERT JUMPDEST POP DUP2 CALLDATALOAD PUSH8 0xFFFFFFFFFFFFFFFF DUP2 GT ISZERO PUSH2 0x19BB JUMPI PUSH0 DUP1 REVERT JUMPDEST PUSH1 0x20 DUP4 ADD SWAP2 POP DUP4 PUSH1 0x20 DUP3 PUSH1 0x5 SHL DUP6 ADD ADD GT ISZERO PUSH2 0x198D JUMPI PUSH0 DUP1 REVERT JUMPDEST DUP1 CALLDATALOAD PUSH1 0xFF DUP2 AND DUP2 EQ PUSH2 0x192A JUMPI PUSH0 DUP1 REVERT JUMPDEST PUSH0 DUP1 PUSH0 DUP1 PUSH0 DUP1 PUSH0 DUP1 PUSH0 PUSH1 0xA0 DUP11 DUP13 SUB SLT ISZERO PUSH2 0x19FD JUMPI PUSH0 DUP1 REVERT JUMPDEST DUP10 CALLDATALOAD PUSH8 0xFFFFFFFFFFFFFFFF DUP1 DUP3 GT ISZERO PUSH2 0x1A14 JUMPI PUSH0 DUP1 REVERT JUMPDEST PUSH2 0x1A20 DUP14 DUP4 DUP15 ADD PUSH2 0x194F JUMP JUMPDEST SWAP1 SWAP12 POP SWAP10 POP PUSH1 0x20 DUP13 ADD CALLDATALOAD SWAP2 POP DUP1 DUP3 GT ISZERO PUSH2 0x1A38 JUMPI PUSH0 DUP1 REVERT JUMPDEST PUSH2 0x1A44 DUP14 DUP4 DUP15 ADD PUSH2 0x1994 JUMP JUMPDEST SWAP1 SWAP10 POP SWAP8 POP DUP8 SWAP2 POP PUSH2 0x1A58 PUSH1 0x40 DUP14 ADD PUSH2 0x19D5 JUMP JUMPDEST SWAP7 POP PUSH1 0x60 DUP13 ADD CALLDATALOAD SWAP2 POP DUP1 DUP3 GT ISZERO PUSH2 0x1A6D JUMPI PUSH0 DUP1 REVERT JUMPDEST PUSH2 0x1A79 DUP14 DUP4 DUP15 ADD PUSH2 0x194F JUMP JUMPDEST SWAP1 SWAP7 POP SWAP5 POP PUSH1 0x80 DUP13 ADD CALLDATALOAD SWAP2 POP DUP1 DUP3 GT ISZERO PUSH2 0x1A91 JUMPI PUSH0 DUP1 REVERT JUMPDEST POP PUSH2 0x1A9E DUP13 DUP3 DUP14 ADD PUSH2 0x194F JUMP JUMPDEST SWAP2 POP DUP1 SWAP4 POP POP DUP1 SWAP2 POP POP SWAP3 SWAP6 SWAP9 POP SWAP3 SWAP6 SWAP9 POP SWAP3 SWAP6 SWAP9 JUMP JUMPDEST PUSH0 DUP2 MLOAD DUP1 DUP5 MSTORE PUSH0 JUMPDEST DUP2 DUP2 LT ISZERO PUSH2 0x1AD9 JUMPI PUSH1 0x20 DUP2 DUP6 ADD DUP2 ADD MLOAD DUP7 DUP4 ADD DUP3 ADD MSTORE ADD PUSH2 0x1ABD JUMP JUMPDEST POP PUSH0 PUSH1 0x20 DUP3 DUP7 ADD ADD MSTORE PUSH1 0x20 PUSH1 0x1F NOT PUSH1 0x1F DUP4 ADD AND DUP6 ADD ADD SWAP2 POP POP SWAP3 SWAP2 POP POP JUMP JUMPDEST PUSH1 0x20 DUP2 MSTORE PUSH0 PUSH2 0x1948 PUSH1 0x20 DUP4 ADD DUP5 PUSH2 0x1AB5 JUMP JUMPDEST PUSH0 DUP1 PUSH0 DUP1 PUSH1 0x40 DUP6 DUP8 SUB SLT ISZERO PUSH2 0x1B1D JUMPI PUSH0 DUP1 REVERT JUMPDEST DUP5 CALLDATALOAD PUSH8 0xFFFFFFFFFFFFFFFF DUP1 DUP3 GT ISZERO PUSH2 0x1B34 JUMPI PUSH0 DUP1 REVERT JUMPDEST PUSH2 0x1B40 DUP9 DUP4 DUP10 ADD PUSH2 0x194F JUMP JUMPDEST SWAP1 SWAP7 POP SWAP5 POP PUSH1 0x20 DUP8 ADD CALLDATALOAD SWAP2 POP DUP1 DUP3 GT ISZERO PUSH2 0x1B58 JUMPI PUSH0 DUP1 REVERT JUMPDEST POP PUSH2 0x1B65 DUP8 DUP3 DUP9 ADD PUSH2 0x194F JUMP JUMPDEST SWAP6 SWAP9 SWAP5 SWAP8 POP SWAP6 POP POP POP POP JUMP JUMPDEST PUSH0 DUP1 PUSH0 PUSH1 0x40 DUP5 DUP7 SUB SLT ISZERO PUSH2 0x1B83 JUMPI PUSH0 DUP1 REVERT JUMPDEST PUSH2 0x1B8C DUP5 PUSH2 0x1914 JUMP JUMPDEST SWAP3 POP PUSH1 0x20 DUP5 ADD CALLDATALOAD PUSH8 0xFFFFFFFFFFFFFFFF DUP2 GT ISZERO PUSH2 0x1BA7 JUMPI PUSH0 DUP1 REVERT JUMPDEST PUSH2 0x1BB3 DUP7 DUP3 DUP8 ADD PUSH2 0x194F JUMP JUMPDEST SWAP5 SWAP8 SWAP1 SWAP7 POP SWAP4 SWAP5 POP POP POP POP JUMP JUMPDEST PUSH1 0x60 DUP2 MSTORE PUSH0 PUSH2 0x1BD2 PUSH1 0x60 DUP4 ADD DUP7 PUSH2 0x1AB5 JUMP JUMPDEST PUSH1 0x20 DUP4 ADD SWAP5 SWAP1 SWAP5 MSTORE POP SWAP1 ISZERO ISZERO PUSH1 0x40 SWAP1 SWAP2 ADD MSTORE SWAP2 SWAP1 POP JUMP JUMPDEST PUSH0 DUP1 PUSH1 0x20 DUP4 DUP6 SUB SLT ISZERO PUSH2 0x1BFA JUMPI PUSH0 DUP1 REVERT JUMPDEST DUP3 CALLDATALOAD PUSH8 0xFFFFFFFFFFFFFFFF DUP2 GT ISZERO PUSH2 0x1C10 JUMPI PUSH0 DUP1 REVERT JUMPDEST PUSH2 0x1C1C DUP6 DUP3 DUP7 ADD PUSH2 0x194F JUMP JUMPDEST SWAP1 SWAP7 SWAP1 SWAP6 POP SWAP4 POP POP POP POP JUMP JUMPDEST PUSH0 DUP1 PUSH0 DUP1 PUSH0 PUSH1 0x60 DUP7 DUP9 SUB SLT ISZERO PUSH2 0x1C3C JUMPI PUSH0 DUP1 REVERT JUMPDEST DUP6 CALLDATALOAD PUSH8 0xFFFFFFFFFFFFFFFF DUP1 DUP3 GT ISZERO PUSH2 0x1C53 JUMPI PUSH0 DUP1 REVERT JUMPDEST PUSH2 0x1C5F DUP10 DUP4 DUP11 ADD PUSH2 0x194F JUMP JUMPDEST SWAP1 SWAP8 POP SWAP6 POP PUSH1 0x20 DUP9 ADD CALLDATALOAD SWAP2 POP DUP1 DUP3 GT ISZERO PUSH2 0x1C77 JUMPI PUSH0 DUP1 REVERT JUMPDEST POP PUSH2 0x1C84 DUP9 DUP3 DUP10 ADD PUSH2 0x1994 JUMP JUMPDEST SWAP1 SWAP5 POP SWAP3 POP PUSH2 0x1C97 SWAP1 POP PUSH1 0x40 DUP8 ADD PUSH2 0x19D5 JUMP JUMPDEST SWAP1 POP SWAP3 SWAP6 POP SWAP3 SWAP6 SWAP1 SWAP4 POP JUMP JUMPDEST PUSH0 DUP1 PUSH0 PUSH1 0x60 DUP5 DUP7 SUB SLT ISZERO PUSH2 0x1CB5 JUMPI PUSH0 DUP1 REVERT JUMPDEST PUSH2 0x1CBE DUP5 PUSH2 0x1914 JUMP JUMPDEST SWAP3 POP PUSH1 0x20 DUP5 ADD CALLDATALOAD SWAP2 POP PUSH2 0x1CD3 PUSH1 0x40 DUP6 ADD PUSH2 0x1914 JUMP JUMPDEST SWAP1 POP SWAP3 POP SWAP3 POP SWAP3 JUMP JUMPDEST PUSH0 PUSH1 0x20 DUP1 DUP4 ADD DUP2 DUP5 MSTORE DUP1 DUP6 MLOAD DUP1 DUP4 MSTORE PUSH1 0x40 DUP7 ADD SWAP2 POP PUSH1 0x40 DUP2 PUSH1 0x5 SHL DUP8 ADD ADD SWAP3 POP DUP4 DUP8 ADD PUSH0 JUMPDEST DUP3 DUP2 LT ISZERO PUSH2 0x1D2F JUMPI PUSH1 0x3F NOT DUP9 DUP7 SUB ADD DUP5 MSTORE PUSH2 0x1D1D DUP6 DUP4 MLOAD PUSH2 0x1AB5 JUMP JUMPDEST SWAP5 POP SWAP3 DUP6 ADD SWAP3 SWAP1 DUP6 ADD SWAP1 PUSH1 0x1 ADD PUSH2 0x1D01 JUMP JUMPDEST POP SWAP3 SWAP8 SWAP7 POP POP POP POP POP POP POP JUMP JUMPDEST PUSH1 0x20 DUP1 DUP3 MSTORE DUP3 MLOAD DUP3 DUP3 ADD DUP2 SWAP1 MSTORE PUSH0 SWAP2 SWAP1 DUP5 DUP3 ADD SWAP1 PUSH1 0x40 DUP6 ADD SWAP1 DUP5 JUMPDEST DUP2 DUP2 LT ISZERO PUSH2 0x1D7C JUMPI DUP4 MLOAD PUSH1 0x1 PUSH1 0x1 PUSH1 0xA0 SHL SUB AND DUP4 MSTORE SWAP3 DUP5 ADD SWAP3 SWAP2 DUP5 ADD SWAP2 PUSH1 0x1 ADD PUSH2 0x1D57 JUMP JUMPDEST POP SWAP1 SWAP7 SWAP6 POP POP POP POP POP POP JUMP JUMPDEST PUSH0 DUP1 PUSH1 0x40 DUP4 DUP6 SUB SLT ISZERO PUSH2 0x1D99 JUMPI PUSH0 DUP1 REVERT JUMPDEST PUSH2 0x1DA2 DUP4 PUSH2 0x1914 JUMP JUMPDEST SWAP2 POP PUSH2 0x1DB0 PUSH1 0x20 DUP5 ADD PUSH2 0x1914 JUMP JUMPDEST SWAP1 POP SWAP3 POP SWAP3 SWAP1 POP JUMP JUMPDEST PUSH4 0x4E487B71 PUSH1 0xE0 SHL PUSH0 MSTORE PUSH1 0x32 PUSH1 0x4 MSTORE PUSH1 0x24 PUSH0 REVERT JUMPDEST PUSH4 0x4E487B71 PUSH1 0xE0 SHL PUSH0 MSTORE PUSH1 0x11 PUSH1 0x4 MSTORE PUSH1 0x24 PUSH0 REVERT JUMPDEST PUSH0 PUSH1 0x1 DUP3 ADD PUSH2 0x1DF2 JUMPI PUSH2 0x1DF2 PUSH2 0x1DCD JUMP JUMPDEST POP PUSH1 0x1 ADD SWAP1 JUMP JUMPDEST PUSH4 0x4E487B71 PUSH1 0xE0 SHL PUSH0 MSTORE PUSH1 0x41 PUSH1 0x4 MSTORE PUSH1 0x24 PUSH0 REVERT JUMPDEST PUSH1 0x1 DUP2 DUP2 SHR SWAP1 DUP3 AND DUP1 PUSH2 0x1E21 JUMPI PUSH1 0x7F DUP3 AND SWAP2 POP JUMPDEST PUSH1 0x20 DUP3 LT DUP2 SUB PUSH2 0x12BE JUMPI PUSH4 0x4E487B71 PUSH1 0xE0 SHL PUSH0 MSTORE PUSH1 0x22 PUSH1 0x4 MSTORE PUSH1 0x24 PUSH0 REVERT JUMPDEST PUSH1 0x1F DUP3 GT ISZERO PUSH2 0x1E88 JUMPI PUSH0 DUP2 DUP2 MSTORE PUSH1 0x20 DUP2 KECCAK256 PUSH1 0x1F DUP6 ADD PUSH1 0x5 SHR DUP2 ADD PUSH1 0x20 DUP7 LT ISZERO PUSH2 0x1E65 JUMPI POP DUP1 JUMPDEST PUSH1 0x1F DUP6 ADD PUSH1 0x5 SHR DUP3 ADD SWAP2 POP JUMPDEST DUP2 DUP2 LT ISZERO PUSH2 0x1E84 JUMPI DUP3 DUP2 SSTORE PUSH1 0x1 ADD PUSH2 0x1E71 JUMP JUMPDEST POP POP POP JUMPDEST POP POP POP JUMP JUMPDEST PUSH0 NOT PUSH1 0x3 DUP4 SWAP1 SHL SHR NOT AND PUSH1 0x1 SWAP2 SWAP1 SWAP2 SHL OR SWAP1 JUMP JUMPDEST PUSH8 0xFFFFFFFFFFFFFFFF DUP4 GT ISZERO PUSH2 0x1EB9 JUMPI PUSH2 0x1EB9 PUSH2 0x1DF9 JUMP JUMPDEST PUSH2 0x1ECD DUP4 PUSH2 0x1EC7 DUP4 SLOAD PUSH2 0x1E0D JUMP JUMPDEST DUP4 PUSH2 0x1E3F JUMP JUMPDEST PUSH0 PUSH1 0x1F DUP5 GT PUSH1 0x1 DUP2 EQ PUSH2 0x1EF9 JUMPI PUSH0 DUP6 ISZERO PUSH2 0x1EE7 JUMPI POP DUP4 DUP3 ADD CALLDATALOAD JUMPDEST PUSH2 0x1EF1 DUP7 DUP3 PUSH2 0x1E8D JUMP JUMPDEST DUP5 SSTORE POP PUSH2 0x1F51 JUMP JUMPDEST PUSH0 DUP4 DUP2 MSTORE PUSH1 0x20 SWAP1 KECCAK256 PUSH1 0x1F NOT DUP7 AND SWAP1 DUP4 JUMPDEST DUP3 DUP2 LT ISZERO PUSH2 0x1F29 JUMPI DUP7 DUP6 ADD CALLDATALOAD DUP3 SSTORE PUSH1 0x20 SWAP5 DUP6 ADD SWAP5 PUSH1 0x1 SWAP1 SWAP3 ADD SWAP2 ADD PUSH2 0x1F09 JUMP JUMPDEST POP DUP7 DUP3 LT ISZERO PUSH2 0x1F45 JUMPI PUSH0 NOT PUSH1 0xF8 DUP9 PUSH1 0x3 SHL AND SHR NOT DUP5 DUP8 ADD CALLDATALOAD AND DUP2 SSTORE JUMPDEST POP POP PUSH1 0x1 DUP6 PUSH1 0x1 SHL ADD DUP4 SSTORE JUMPDEST POP POP POP POP POP JUMP JUMPDEST DUP2 DUP4 DUP3 CALLDATACOPY PUSH0 SWAP2 ADD SWAP1 DUP2 MSTORE SWAP2 SWAP1 POP JUMP JUMPDEST DUP2 MLOAD PUSH8 0xFFFFFFFFFFFFFFFF DUP2 GT ISZERO PUSH2 0x1F81 JUMPI PUSH2 0x1F81 PUSH2 0x1DF9 JUMP JUMPDEST PUSH2 0x1F95 DUP2 PUSH2 0x1F8F DUP5 SLOAD PUSH2 0x1E0D JUMP JUMPDEST DUP5 PUSH2 0x1E3F JUMP JUMPDEST PUSH1 0x20 DUP1 PUSH1 0x1F DUP4 GT PUSH1 0x1 DUP2 EQ PUSH2 0x1FC3 JUMPI PUSH0 DUP5 ISZERO PUSH2 0x1FB1 JUMPI POP DUP6 DUP4 ADD MLOAD JUMPDEST PUSH2 0x1FBB DUP6 DUP3 PUSH2 0x1E8D JUMP JUMPDEST DUP7 SSTORE POP PUSH2 0x1E84 JUMP JUMPDEST PUSH0 DUP6 DUP2 MSTORE PUSH1 0x20 DUP2 KECCAK256 PUSH1 0x1F NOT DUP7 AND SWAP2 JUMPDEST DUP3 DUP2 LT ISZERO PUSH2 0x1FF1 JUMPI DUP9 DUP7 ADD MLOAD DUP3 SSTORE SWAP5 DUP5 ADD SWAP5 PUSH1 0x1 SWAP1 SWAP2 ADD SWAP1 DUP5 ADD PUSH2 0x1FD2 JUMP JUMPDEST POP DUP6 DUP3 LT ISZERO PUSH2 0x200E JUMPI DUP8 DUP6 ADD MLOAD PUSH0 NOT PUSH1 0x3 DUP9 SWAP1 SHL PUSH1 0xF8 AND SHR NOT AND DUP2 SSTORE JUMPDEST POP POP POP POP POP PUSH1 0x1 SWAP1 DUP2 SHL ADD SWAP1 SSTORE POP JUMP JUMPDEST DUP2 DUP4 MSTORE DUP2 DUP2 PUSH1 0x20 DUP6 ADD CALLDATACOPY POP PUSH0 DUP3 DUP3 ADD PUSH1 0x20 SWAP1 DUP2 ADD SWAP2 SWAP1 SWAP2 MSTORE PUSH1 0x1F SWAP1 SWAP2 ADD PUSH1 0x1F NOT AND SWAP1 SWAP2 ADD ADD SWAP1 JUMP JUMPDEST PUSH1 0x60 DUP2 MSTORE PUSH0 PUSH2 0x2059 PUSH1 0x60 DUP4 ADD DUP7 DUP9 PUSH2 0x201E JUMP JUMPDEST PUSH1 0x20 PUSH1 0xFF DUP7 AND DUP2 DUP6 ADD MSTORE DUP4 DUP3 SUB PUSH1 0x40 DUP6 ADD MSTORE DUP2 DUP6 SLOAD DUP1 DUP5 MSTORE DUP3 DUP5 ADD SWAP2 POP DUP7 PUSH0 MSTORE DUP3 PUSH0 KECCAK256 SWAP4 POP PUSH0 JUMPDEST DUP2 DUP2 LT ISZERO PUSH2 0x20A5 JUMPI DUP5 SLOAD PUSH1 0x1 PUSH1 0x1 PUSH1 0xA0 SHL SUB AND DUP4 MSTORE PUSH1 0x1 SWAP5 DUP6 ADD SWAP5 SWAP3 DUP5 ADD SWAP3 ADD PUSH2 0x2080 JUMP JUMPDEST POP SWAP1 SWAP10 SWAP9 POP POP POP POP POP POP POP POP POP JUMP JUMPDEST PUSH1 0x20 DUP2 MSTORE PUSH0 PUSH2 0x20C7 PUSH1 0x20 DUP4 ADD DUP5 DUP7 PUSH2 0x201E JUMP JUMPDEST SWAP5 SWAP4 POP POP POP POP JUMP JUMPDEST DUP1 DUP3 ADD DUP1 DUP3 GT ISZERO PUSH2 0x18A5 JUMPI PUSH2 0x18A5 PUSH2 0x1DCD JUMP JUMPDEST PUSH0 DUP1 DUP4 SLOAD PUSH2 0x20EF DUP2 PUSH2 0x1E0D JUMP JUMPDEST PUSH1 0x1 DUP3 DUP2 AND DUP1 ISZERO PUSH2 0x2107 JUMPI PUSH1 0x1 DUP2 EQ PUSH2 0x211C JUMPI PUSH2 0x2148 JUMP JUMPDEST PUSH1 0xFF NOT DUP5 AND DUP8 MSTORE DUP3 ISZERO ISZERO DUP4 MUL DUP8 ADD SWAP5 POP PUSH2 0x2148 JUMP JUMPDEST DUP8 PUSH0 MSTORE PUSH1 0x20 DUP1 PUSH0 KECCAK256 PUSH0 JUMPDEST DUP6 DUP2 LT ISZERO PUSH2 0x213F JUMPI DUP2 SLOAD DUP11 DUP3 ADD MSTORE SWAP1 DUP5 ADD SWAP1 DUP3 ADD PUSH2 0x2126 JUMP JUMPDEST POP POP POP DUP3 DUP8 ADD SWAP5 POP JUMPDEST POP SWAP3 SWAP7 SWAP6 POP POP POP POP POP POP JUMP JUMPDEST DUP2 DUP2 SUB DUP2 DUP2 GT ISZERO PUSH2 0x18A5 JUMPI PUSH2 0x18A5 PUSH2 0x1DCD JUMP JUMPDEST DUP2 DUP2 SUB PUSH2 0x2172 JUMPI POP POP JUMP JUMPDEST PUSH2 0x217C DUP3 SLOAD PUSH2 0x1E0D JUMP JUMPDEST PUSH8 0xFFFFFFFFFFFFFFFF DUP2 GT ISZERO PUSH2 0x2194 JUMPI PUSH2 0x2194 PUSH2 0x1DF9 JUMP JUMPDEST PUSH2 0x21A2 DUP2 PUSH2 0x1F8F DUP5 SLOAD PUSH2 0x1E0D JUMP JUMPDEST PUSH0 PUSH1 0x1F DUP3 GT PUSH1 0x1 DUP2 EQ PUSH2 0x21CE JUMPI PUSH0 DUP4 ISZERO PUSH2 0x21BC JUMPI POP DUP5 DUP3 ADD SLOAD JUMPDEST PUSH2 0x21C6 DUP5 DUP3 PUSH2 0x1E8D JUMP JUMPDEST DUP6 SSTORE POP PUSH2 0x1F51 JUMP JUMPDEST PUSH0 DUP6 DUP2 MSTORE PUSH1 0x20 SWAP1 KECCAK256 PUSH1 0x1F NOT DUP5 AND SWAP1 PUSH0 DUP7 DUP2 MSTORE PUSH1 0x20 SWAP1 KECCAK256 DUP5 JUMPDEST DUP4 DUP2 LT ISZERO PUSH2 0x2206 JUMPI DUP3 DUP7 ADD SLOAD DUP3 SSTORE PUSH1 0x1 SWAP6 DUP7 ADD SWAP6 SWAP1 SWAP2 ADD SWAP1 PUSH1 0x20 ADD PUSH2 0x21E6 JUMP JUMPDEST POP DUP6 DUP4 LT ISZERO PUSH2 0x200E JUMPI SWAP4 ADD SLOAD PUSH0 NOT PUSH1 0xF8 PUSH1 0x3 DUP8 SWAP1 SHL AND SHR NOT AND SWAP1 SWAP3 SSTORE POP POP PUSH1 0x1 SWAP1 DUP2 SHL ADD SWAP1 SSTORE POP JUMP JUMPDEST PUSH4 0x4E487B71 PUSH1 0xE0 SHL PUSH0 MSTORE PUSH1 0x31 PUSH1 0x4 MSTORE PUSH1 0x24 PUSH0 REVERT INVALID LOG2 PUSH5 0x6970667358 0x22 SLT KECCAK256 0x5D 0x24 0x24 CREATE EQ PUSH4 0xE7C1ACFD 0x24 PUSH12 0x26C4DCAD01AECBAE5BE49FD6 0xAE 0x1E 0xC7 0xC8 0x5C 0x24 0xA5 PUSH7 0x64736F6C634300 ADDMOD ISZERO STOP CALLER "},"methodIdentifiers":{"RECOVERY_WINDOW()":"0a4636b2","addEntry(string,string)":"5ce308a7","approveRecovery(address)":"cbc3b3c2","finalizeRecovery()":"e2ccb305","getEntry(address,string)":"8957d767","getEntryCount(address)":"c5c9bd25","getEntryUids(address)":"d759889e","getGuardians(address)":"f18858ab","getRecoveryStatus(address)":"07c73d34","getThreshold(address)":"78977168","getVaultCid(address)":"355a68d6","hasApproved(address,uint256,address)":"c32a60a5","isGuardianFor(address,address)":"f7617a25","isRecoveryApprovedForOwner(address)":"b90f0aac","isVaultInitialized(address)":"62157727","registerVault(string,address[],uint8)":"b51ec7df","registerVaultAndAddEntry(string,address[],uint8,string,string)":"12e301d9","removeEntry(string)":"b067d186","startRecovery()":"923689e4","updateEntry(string,string)":"d2606793","updateVaultCid(string)":"b11797e6"}}}}}