{"project/contracts/WayneLockGuardianRecovery.sol":{"WayneLockGuardianRecovery":{"abi":[{"inputs":[],"name":"AlreadyApproved","type":"error"},{"inputs":[],"name":"DuplicateGuardian","type":"error"},{"inputs":[],"name":"EmptyUid","type":"error"},{"inputs":[],"name":"EntryAlreadyExists","type":"error"},{"inputs":[],"name":"EntryNotFound","type":"error"},{"inputs":[],"name":"InvalidGuardian","type":"error"},{"inputs":[],"name":"InvalidThreshold","type":"error"},{"inputs":[],"name":"NotGuardian","type":"error"},{"inputs":[],"name":"NotOwner","type":"error"},{"inputs":[],"name":"RecoveryNotActive","type":"error"},{"inputs":[],"name":"VaultNotInitialized","type":"error"},{"anonymous":false,"inputs":[{"indexed":true,"internalType":"address","name":"owner","type":"address"},{"indexed":false,"internalType":"string","name":"uid","type":"string"}],"name":"EntryAdded","type":"event"},{"anonymous":false,"inputs":[{"indexed":true,"internalType":"address","name":"owner","type":"address"},{"indexed":false,"internalType":"string","name":"uid","type":"string"}],"name":"EntryRemoved","type":"event"},{"anonymous":false,"inputs":[{"indexed":true,"internalType":"address","name":"owner","type":"address"},{"indexed":false,"internalType":"string","name":"uid","type":"string"}],"name":"EntryUpdated","type":"event"},{"anonymous":false,"inputs":[{"indexed":true,"internalType":"address","name":"owner","type":"address"},{"indexed":true,"internalType":"uint256","name":"recoveryId","type":"uint256"},{"indexed":true,"internalType":"address","name":"guardian","type":"address"},{"indexed":false,"internalType":"uint256","name":"approvals","type":"uint256"}],"name":"RecoveryApproved","type":"event"},{"anonymous":false,"inputs":[{"indexed":true,"internalType":"address","name":"owner","type":"address"},{"indexed":true,"internalType":"uint256","name":"recoveryId","type":"uint256"}],"name":"RecoveryFinalized","type":"event"},{"anonymous":false,"inputs":[{"indexed":true,"internalType":"address","name":"owner","type":"address"},{"indexed":true,"internalType":"uint256","name":"recoveryId","type":"uint256"}],"name":"RecoveryStarted","type":"event"},{"anonymous":false,"inputs":[{"indexed":true,"internalType":"address","name":"owner","type":"address"},{"indexed":false,"internalType":"string","name":"ipfsCid","type":"string"}],"name":"VaultCidUpdated","type":"event"},{"anonymous":false,"inputs":[{"indexed":true,"internalType":"address","name":"owner","type":"address"},{"indexed":false,"internalType":"string","name":"ipfsCid","type":"string"},{"indexed":false,"internalType":"uint8","name":"threshold","type":"uint8"},{"indexed":false,"internalType":"address[]","name":"guardians","type":"address[]"}],"name":"VaultRegistered","type":"event"},{"inputs":[],"name":"RECOVERY_WINDOW","outputs":[{"internalType":"uint256","name":"","type":"uint256"}],"stateMutability":"view","type":"function"},{"inputs":[{"internalType":"string","name":"uid","type":"string"},{"internalType":"string","name":"metadataJson","type":"string"}],"name":"addEntry","outputs":[],"stateMutability":"nonpayable","type":"function"},{"inputs":[{"internalType":"address","name":"owner","type":"address"}],"name":"approveRecovery","outputs":[],"stateMutability":"nonpayable","type":"function"},{"inputs":[],"name":"finalizeRecovery","outputs":[],"stateMutability":"nonpayable","type":"function"},{"inputs":[{"internalType":"address","name":"owner","type":"address"},{"internalType":"string","name":"uid","type":"string"}],"name":"getEntry","outputs":[{"internalType":"string","name":"metadataJson","type":"string"},{"internalType":"uint256","name":"createdAt","type":"uint256"},{"internalType":"bool","name":"exists","type":"bool"}],"stateMutability":"view","type":"function"},{"inputs":[{"internalType":"address","name":"owner","type":"address"}],"name":"getEntryCount","outputs":[{"internalType":"uint256","name":"","type":"uint256"}],"stateMutability":"view","type":"function"},{"inputs":[{"internalType":"address","name":"owner","type":"address"}],"name":"getEntryUids","outputs":[{"internalType":"string[]","name":"","type":"string[]"}],"stateMutability":"view","type":"function"},{"inputs":[{"internalType":"address","name":"owner","type":"address"}],"name":"getGuardians","outputs":[{"internalType":"address[]","name":"","type":"address[]"}],"stateMutability":"view","type":"function"},{"inputs":[{"internalType":"address","name":"owner","type":"address"}],"name":"getRecoveryStatus","outputs":[{"internalType":"uint256","name":"recoveryId","type":"uint256"},{"internalType":"bool","name":"active","type":"bool"},{"internalType":"uint256","name":"approvals","type":"uint256"},{"internalType":"uint8","name":"threshold","type":"uint8"}],"stateMutability":"view","type":"function"},{"inputs":[{"internalType":"address","name":"owner","type":"address"}],"name":"getThreshold","outputs":[{"internalType":"uint8","name":"","type":"uint8"}],"stateMutability":"view","type":"function"},{"inputs":[{"internalType":"address","name":"owner","type":"address"}],"name":"getVaultCid","outputs":[{"internalType":"string","name":"","type":"string"}],"stateMutability":"view","type":"function"},{"inputs":[{"internalType":"address","name":"owner","type":"address"},{"internalType":"uint256","name":"recoveryId","type":"uint256"},{"internalType":"address","name":"guardian","type":"address"}],"name":"hasApproved","outputs":[{"internalType":"bool","name":"","type":"bool"}],"stateMutability":"view","type":"function"},{"inputs":[{"internalType":"address","name":"owner","type":"address"},{"internalType":"address","name":"guardian","type":"address"}],"name":"isGuardianFor","outputs":[{"internalType":"bool","name":"","type":"bool"}],"stateMutability":"view","type":"function"},{"inputs":[{"internalType":"address","name":"owner","type":"address"}],"name":"isRecoveryApprovedForOwner","outputs":[{"internalType":"bool","name":"","type":"bool"}],"stateMutability":"view","type":"function"},{"inputs":[{"internalType":"address","name":"owner","type":"address"}],"name":"isVaultInitialized","outputs":[{"internalType":"bool","name":"","type":"bool"}],"stateMutability":"view","type":"function"},{"inputs":[{"internalType":"string","name":"ipfsCid","type":"string"},{"internalType":"address[]","name":"newGuardians","type":"address[]"},{"internalType":"uint8","name":"threshold","type":"uint8"}],"name":"registerVault","outputs":[],"stateMutability":"nonpayable","type":"function"},{"inputs":[{"internalType":"string","name":"uid","type":"string"}],"name":"removeEntry","outputs":[],"stateMutability":"nonpayable","type":"function"},{"inputs":[],"name":"startRecovery","outputs":[],"stateMutability":"nonpayable","type":"function"},{"inputs":[{"internalType":"string","name":"uid","type":"string"},{"internalType":"string","name":"metadataJson","type":"string"}],"name":"updateEntry","outputs":[],"stateMutability":"nonpayable","type":"function"},{"inputs":[{"internalType":"string","name":"ipfsCid","type":"string"}],"name":"updateVaultCid","outputs":[],"stateMutability":"nonpayable","type":"function"}],"evm":{"bytecode":{"linkReferences":{},"object":"608060405234801561000f575f80fd5b50611cd18061001d5f395ff3fe608060405234801561000f575f80fd5b5060043610610127575f3560e01c8063b51ec7df116100a9578063d26067931161006e578063d26067931461035d578063d759889e14610370578063e2ccb30514610390578063f18858ab14610398578063f7617a25146103b8575f80fd5b8063b51ec7df146102b9578063b90f0aac146102cc578063c32a60a5146102df578063c5c9bd2514610322578063cbc3b3c21461034a575f80fd5b806378977168116100ef57806378977168146102295780638957d76714610269578063923689e41461028b578063b067d18614610293578063b11797e6146102a6575f80fd5b806307c73d341461012b5780630a4636b21461019f578063355a68d6146101b65780635ce308a7146101d657806362157727146101eb575b5f80fd5b61017761013936600461146b565b6001600160a01b03165f908152602081905260409020600281015460058201546003830154600190930154919361010090910460ff90811693921690565b6040805194855292151560208501529183015260ff1660608201526080015b60405180910390f35b6101a861012c81565b604051908152602001610196565b6101c96101c436600461146b565b6103cb565b60405161019691906114ce565b6101e96101e4366004611525565b610474565b005b6102196101f936600461146b565b6001600160a01b03165f9081526020819052604090206005015460ff1690565b6040519015158152602001610196565b61025761023736600461146b565b6001600160a01b03165f9081526020819052604090206001015460ff1690565b60405160ff9091168152602001610196565b61027c61027736600461158c565b61063e565b604051610196939291906115db565b6101e9610735565b6101e96102a1366004611604565b6107e3565b6101e96102b4366004611604565b6109f4565b6101e96102c7366004611653565b610a88565b6102196102da36600461146b565b610d68565b6102196102ed3660046116fb565b6001600160a01b039283165f908152600560209081526040808320948352938152838220929094168152925290205460ff1690565b6101a861033036600461146b565b6001600160a01b03165f9081526004602052604090205490565b6101e961035836600461146b565b610e00565b6101e961036b366004611525565b611009565b61038361037e36600461146b565b611107565b6040516101969190611734565b6101e96111f1565b6103ab6103a636600461146b565b611346565b6040516101969190611794565b6102196103c63660046117e0565b6113b8565b6001600160a01b0381165f9081526020819052604090208054606091906103f190611811565b80601f016020809104026020016040519081016040528092919081815260200182805461041d90611811565b80156104685780601f1061043f57610100808354040283529160200191610468565b820191905f5260205f20905b81548152906001019060200180831161044b57829003601f168201915b50505050509050919050565b335f8181526020819052604090206005015460ff166104a657604051639a09fd8760e01b815260040160405180910390fd5b5f8490036104c757604051630c19b64360e31b815260040160405180910390fd5b335f908152600360205260409081902090516104e69087908790611843565b9081526040519081900360200190206002015460ff161561051a5760405163fea82a7d60e01b815260040160405180910390fd5b604051806060016040528084848080601f0160208091040260200160405190810160405280939291908181526020018383808284375f9201829052509385525050426020808501919091526001604094850152338352600390525081902090516105879088908890611843565b908152604051908190036020019020815181906105a490826118c8565b506020828101516001838101919091556040938401516002909301805460ff191693151593909317909255335f90815260048252928320805492830181558352909120016105f385878361197f565b50336001600160a01b03167fa39bf56b0e015deece3471e3a54cf84b07202031b637f5d7b644e3cd71b8171a868660405161062f929190611a5e565b60405180910390a25050505050565b60605f805f60035f886001600160a01b03166001600160a01b031681526020019081526020015f208686604051610676929190611843565b908152604051908190036020019020600181015460028201548254929350839260ff9091169083906106a790611811565b80601f01602080910402602001604051908101604052809291908181526020018280546106d390611811565b801561071e5780601f106106f55761010080835404028352916020019161071e565b820191905f5260205f20905b81548152906001019060200180831161070157829003601f168201915b505050505092509350935093505093509350939050565b335f8181526020819052604090206005015460ff1661076757604051639a09fd8760e01b815260040160405180910390fd5b335f908152602081905260408120600281018054919260019261078b908490611a8d565b90915550505f6003820181905560058201805461ff0019166101001790554260048301556002820154604051909133917f68ed0096b24a0e62be18a90af2932f6da5fe498003e14175d1028e2d1c207cd59190a35050565b335f8181526020819052604090206005015460ff1661081557604051639a09fd8760e01b815260040160405180910390fd5b335f908152600360205260409081902090516108349085908590611843565b9081526040519081900360200190206002015460ff1661086757604051635d47e14960e11b815260040160405180910390fd5b335f908152600360205260409081902090516108869085908590611843565b9081526040519081900360200190205f6108a082826113e7565b505f600182018190556002909101805460ff19169055338152600460205260408120905b81548110156109aa5784846040516108dd929190611843565b60405180910390208282815481106108f7576108f7611aa0565b905f5260205f200160405161090c9190611ab4565b604051809103902003610998578154829061092990600190611b26565b8154811061093957610939611aa0565b905f5260205f200182828154811061095357610953611aa0565b905f5260205f200190816109679190611b39565b508180548061097857610978611c01565b600190038181905f5260205f20015f61099191906113e7565b90556109aa565b806109a281611c15565b9150506108c4565b50336001600160a01b03167fba9b962fb9ee465a8877d213f2158c7b0437e68d39c8f1a273d45cc70813f2de85856040516109e6929190611a5e565b60405180910390a250505050565b335f8181526020819052604090206005015460ff16610a2657604051639a09fd8760e01b815260040160405180910390fd5b335f908152602081905260409020610a3f83858361197f565b50336001600160a01b03167fe6d2edded44df0e1445fbe0a40703575ce09cd5824537c4194124c0b567dfe038484604051610a7b929190611a5e565b60405180910390a2505050565b5f829003610aa95760405163a6c1146b60e01b815260040160405180910390fd5b60ff81161580610abb575060ff811682105b15610ad95760405163aabd5a0960e01b815260040160405180910390fd5b335f818152600160205260408120905b8154811015610b64576001600160a01b0383165f90815260026020526040812083548290859085908110610b1f57610b1f611aa0565b5f918252602080832091909101546001600160a01b031683528201929092526040019020805460ff191691151591909117905580610b5c81611c15565b915050610ae9565b506001600160a01b0382165f908152600160205260408120610b8591611421565b5f5b84811015610cb4575f868683818110610ba257610ba2611aa0565b9050602002016020810190610bb7919061146b565b90506001600160a01b0381161580610be05750836001600160a01b0316816001600160a01b0316145b15610bfe5760405163a6c1146b60e01b815260040160405180910390fd5b6001600160a01b038085165f9081526002602090815260408083209385168352929052205460ff1615610c4457604051636f3bdabb60e01b815260040160405180910390fd5b6001600160a01b038085165f81815260026020908152604080832095909416808352948152838220805460ff19166001908117909155928252828152928120805492830181558152919091200180546001600160a01b031916909117905580610cac81611c15565b915050610b87565b506001600160a01b0382165f90815260208190526040902080610cd8888a8361197f565b506001818101805460ff191660ff87161790555f600283018190556003830181905560058301805461ffff1916831790556001600160a01b03851680825260209290925260409081902090517f820657cc0b60fa6a5579dcfe63e64b56562d6e099cfcf9ad1ab5d3b25c45a46391610d56918c918c918a9190611c2d565b60405180910390a25050505050505050565b6001600160a01b0381165f90815260208190526040812060050154829060ff16610da557604051639a09fd8760e01b815260040160405180910390fd5b6001600160a01b0383165f9081526020819052604090206005810154610100900460ff161580610dd757506002810154155b15610de5575f925050610dfa565b600181015460039091015460ff909116111591505b50919050565b6001600160a01b0381165f90815260208190526040902060050154819060ff16610e3d57604051639a09fd8760e01b815260040160405180910390fd5b6001600160a01b0382165f908152600260209081526040808320338452909152902054829060ff16610e82576040516377b6878160e11b815260040160405180910390fd5b6001600160a01b0383165f9081526020819052604090206005810154610100900460ff161580610eb457506002810154155b15610ed257604051635caa354760e01b815260040160405180910390fd5b61012c8160040154610ee49190611a8d565b421115610f125760058101805461ff001916905560408051635caa354760e01b815290519081900360040190fd5b6001600160a01b0384165f90815260056020908152604080832060028501548452825280832033845290915290205460ff1615610f625760405163080fc0bd60e11b815260040160405180910390fd5b6001600160a01b0384165f9081526005602090815260408083206002850154845282528083203384529091528120805460ff1916600190811790915560038301805491929091610fb3908490611a8d565b9091555050600281015460038201546040519081523391906001600160a01b038716907f66a24788c1f8a1e2c9f4f326c823531a758a5bf8b9937b312f683c56143a6e8a9060200160405180910390a450505050565b335f8181526020819052604090206005015460ff1661103b57604051639a09fd8760e01b815260040160405180910390fd5b335f9081526003602052604090819020905161105a9087908790611843565b9081526040519081900360200190206002015460ff1661108d57604051635d47e14960e11b815260040160405180910390fd5b335f90815260036020526040908190209051849184916110b09089908990611843565b908152604051908190036020019020916110cb91908361197f565b50336001600160a01b03167f379c1d2b166dddca664ed07eea9f2cde55a32fd3010f384aa08a04f49ed4df95868660405161062f929190611a5e565b6001600160a01b0381165f908152600460209081526040808320805482518185028101850190935280835260609492939192909184015b828210156111e6578382905f5260205f2001805461115b90611811565b80601f016020809104026020016040519081016040528092919081815260200182805461118790611811565b80156111d25780601f106111a9576101008083540402835291602001916111d2565b820191905f5260205f20905b8154815290600101906020018083116111b557829003601f168201915b50505050508152602001906001019061113e565b505050509050919050565b335f8181526020819052604090206005015460ff1661122357604051639a09fd8760e01b815260040160405180910390fd5b335f9081526020819052604090206005810154610100900460ff16158061124c57506002810154155b1561126a57604051635caa354760e01b815260040160405180910390fd5b335f908152600160205260408120905b81548110156112fb57335f908152600560209081526040808320600287015484529091528120835482908590859081106112b6576112b6611aa0565b5f918252602080832091909101546001600160a01b031683528201929092526040019020805460ff1916911515919091179055806112f381611c15565b91505061127a565b505f6003830181905560058301805461ff00191690556002830154604051909133917f4e19d4165c8ec779f6414c11c110b66128a1aeffe6596c4fad0e3af0eccba33d9190a3505050565b6001600160a01b0381165f9081526001602090815260409182902080548351818402810184019094528084526060939283018282801561046857602002820191905f5260205f20905b81546001600160a01b0316815260019091019060200180831161138f5750505050509050919050565b6001600160a01b038083165f9081526002602090815260408083209385168352929052205460ff165b92915050565b5080546113f390611811565b5f825580601f10611402575050565b601f0160209004905f5260205f209081019061141e9190611438565b50565b5080545f8255905f5260205f209081019061141e91905b5b8082111561144c575f8155600101611439565b5090565b80356001600160a01b0381168114611466575f80fd5b919050565b5f6020828403121561147b575f80fd5b61148482611450565b9392505050565b5f81518084525f5b818110156114af57602081850181015186830182015201611493565b505f602082860101526020601f19601f83011685010191505092915050565b602081525f611484602083018461148b565b5f8083601f8401126114f0575f80fd5b50813567ffffffffffffffff811115611507575f80fd5b60208301915083602082850101111561151e575f80fd5b9250929050565b5f805f8060408587031215611538575f80fd5b843567ffffffffffffffff8082111561154f575f80fd5b61155b888389016114e0565b90965094506020870135915080821115611573575f80fd5b50611580878288016114e0565b95989497509550505050565b5f805f6040848603121561159e575f80fd5b6115a784611450565b9250602084013567ffffffffffffffff8111156115c2575f80fd5b6115ce868287016114e0565b9497909650939450505050565b606081525f6115ed606083018661148b565b602083019490945250901515604090910152919050565b5f8060208385031215611615575f80fd5b823567ffffffffffffffff81111561162b575f80fd5b611637858286016114e0565b90969095509350505050565b803560ff81168114611466575f80fd5b5f805f805f60608688031215611667575f80fd5b853567ffffffffffffffff8082111561167e575f80fd5b61168a89838a016114e0565b909750955060208801359150808211156116a2575f80fd5b818801915088601f8301126116b5575f80fd5b8135818111156116c3575f80fd5b8960208260051b85010111156116d7575f80fd5b6020830195508094505050506116ef60408701611643565b90509295509295909350565b5f805f6060848603121561170d575f80fd5b61171684611450565b92506020840135915061172b60408501611450565b90509250925092565b5f602080830181845280855180835260408601915060408160051b87010192508387015f5b8281101561178757603f1988860301845261177585835161148b565b94509285019290850190600101611759565b5092979650505050505050565b602080825282518282018190525f9190848201906040850190845b818110156117d45783516001600160a01b0316835292840192918401916001016117af565b50909695505050505050565b5f80604083850312156117f1575f80fd5b6117fa83611450565b915061180860208401611450565b90509250929050565b600181811c9082168061182557607f821691505b602082108103610dfa57634e487b7160e01b5f52602260045260245ffd5b818382375f9101908152919050565b634e487b7160e01b5f52604160045260245ffd5b601f8211156118af575f81815260208120601f850160051c8101602086101561188c5750805b601f850160051c820191505b818110156118ab57828155600101611898565b5050505b505050565b5f19600383901b1c191660019190911b1790565b815167ffffffffffffffff8111156118e2576118e2611852565b6118f6816118f08454611811565b84611866565b602080601f831160018114611924575f84156119125750858301515b61191c85826118b4565b8655506118ab565b5f85815260208120601f198616915b8281101561195257888601518255948401946001909101908401611933565b508582101561196f57878501515f19600388901b60f8161c191681555b5050505050600190811b01905550565b67ffffffffffffffff83111561199757611997611852565b6119ab836119a58354611811565b83611866565b5f601f8411600181146119d7575f85156119c55750838201355b6119cf86826118b4565b845550611a2f565b5f83815260209020601f19861690835b82811015611a0757868501358255602094850194600190920191016119e7565b5086821015611a23575f1960f88860031b161c19848701351681555b505060018560011b0183555b5050505050565b81835281816020850137505f828201602090810191909152601f909101601f19169091010190565b602081525f611a71602083018486611a36565b949350505050565b634e487b7160e01b5f52601160045260245ffd5b808201808211156113e1576113e1611a79565b634e487b7160e01b5f52603260045260245ffd5b5f808354611ac181611811565b60018281168015611ad95760018114611aee57611b1a565b60ff1984168752821515830287019450611b1a565b875f526020805f205f5b85811015611b115781548a820152908401908201611af8565b50505082870194505b50929695505050505050565b818103818111156113e1576113e1611a79565b818103611b44575050565b611b4e8254611811565b67ffffffffffffffff811115611b6657611b66611852565b611b74816118f08454611811565b5f601f821160018114611ba0575f8315611b8e5750848201545b611b9884826118b4565b855550611a2f565b5f85815260209020601f198416905f86815260209020845b83811015611bd85782860154825560019586019590910190602001611bb8565b508583101561196f579301545f1960f8600387901b161c19169092555050600190811b01905550565b634e487b7160e01b5f52603160045260245ffd5b5f60018201611c2657611c26611a79565b5060010190565b606081525f611c40606083018688611a36565b602060ff86168185015283820360408501528185548084528284019150865f52825f2093505f5b81811015611c8c5784546001600160a01b031683526001948501949284019201611c67565b5090999850505050505050505056fea2646970667358221220f2f2bb78253f7604e712ed24cc74ff08d64cf5d7bada98e7455ecc2a80d53aaa64736f6c63430008150033","opcodes":"PUSH1 0x80 PUSH1 0x40 MSTORE CALLVALUE DUP1 ISZERO PUSH2 0xF JUMPI PUSH0 DUP1 REVERT JUMPDEST POP PUSH2 0x1CD1 DUP1 PUSH2 0x1D PUSH0 CODECOPY PUSH0 RETURN INVALID PUSH1 0x80 PUSH1 0x40 MSTORE CALLVALUE DUP1 ISZERO PUSH2 0xF JUMPI PUSH0 DUP1 REVERT JUMPDEST POP PUSH1 0x4 CALLDATASIZE LT PUSH2 0x127 JUMPI PUSH0 CALLDATALOAD PUSH1 0xE0 SHR DUP1 PUSH4 0xB51EC7DF GT PUSH2 0xA9 JUMPI DUP1 PUSH4 0xD2606793 GT PUSH2 0x6E JUMPI DUP1 PUSH4 0xD2606793 EQ PUSH2 0x35D JUMPI DUP1 PUSH4 0xD759889E EQ PUSH2 0x370 JUMPI DUP1 PUSH4 0xE2CCB305 EQ PUSH2 0x390 JUMPI DUP1 PUSH4 0xF18858AB EQ PUSH2 0x398 JUMPI DUP1 PUSH4 0xF7617A25 EQ PUSH2 0x3B8 JUMPI PUSH0 DUP1 REVERT JUMPDEST DUP1 PUSH4 0xB51EC7DF EQ PUSH2 0x2B9 JUMPI DUP1 PUSH4 0xB90F0AAC EQ PUSH2 0x2CC JUMPI DUP1 PUSH4 0xC32A60A5 EQ PUSH2 0x2DF JUMPI DUP1 PUSH4 0xC5C9BD25 EQ PUSH2 0x322 JUMPI DUP1 PUSH4 0xCBC3B3C2 EQ PUSH2 0x34A JUMPI PUSH0 DUP1 REVERT JUMPDEST DUP1 PUSH4 0x78977168 GT PUSH2 0xEF JUMPI DUP1 PUSH4 0x78977168 EQ PUSH2 0x229 JUMPI DUP1 PUSH4 0x8957D767 EQ PUSH2 0x269 JUMPI DUP1 PUSH4 0x923689E4 EQ PUSH2 0x28B JUMPI DUP1 PUSH4 0xB067D186 EQ PUSH2 0x293 JUMPI DUP1 PUSH4 0xB11797E6 EQ PUSH2 0x2A6 JUMPI PUSH0 DUP1 REVERT JUMPDEST DUP1 PUSH4 0x7C73D34 EQ PUSH2 0x12B JUMPI DUP1 PUSH4 0xA4636B2 EQ PUSH2 0x19F JUMPI DUP1 PUSH4 0x355A68D6 EQ PUSH2 0x1B6 JUMPI DUP1 PUSH4 0x5CE308A7 EQ PUSH2 0x1D6 JUMPI DUP1 PUSH4 0x62157727 EQ PUSH2 0x1EB JUMPI JUMPDEST PUSH0 DUP1 REVERT JUMPDEST PUSH2 0x177 PUSH2 0x139 CALLDATASIZE PUSH1 0x4 PUSH2 0x146B JUMP JUMPDEST PUSH1 0x1 PUSH1 0x1 PUSH1 0xA0 SHL SUB AND PUSH0 SWAP1 DUP2 MSTORE PUSH1 0x20 DUP2 SWAP1 MSTORE PUSH1 0x40 SWAP1 KECCAK256 PUSH1 0x2 DUP2 ADD SLOAD PUSH1 0x5 DUP3 ADD SLOAD PUSH1 0x3 DUP4 ADD SLOAD PUSH1 0x1 SWAP1 SWAP4 ADD SLOAD SWAP2 SWAP4 PUSH2 0x100 SWAP1 SWAP2 DIV PUSH1 0xFF SWAP1 DUP2 AND SWAP4 SWAP3 AND SWAP1 JUMP JUMPDEST PUSH1 0x40 DUP1 MLOAD SWAP5 DUP6 MSTORE SWAP3 ISZERO ISZERO PUSH1 0x20 DUP6 ADD MSTORE SWAP2 DUP4 ADD MSTORE PUSH1 0xFF AND PUSH1 0x60 DUP3 ADD MSTORE PUSH1 0x80 ADD JUMPDEST PUSH1 0x40 MLOAD DUP1 SWAP2 SUB SWAP1 RETURN JUMPDEST PUSH2 0x1A8 PUSH2 0x12C DUP2 JUMP JUMPDEST PUSH1 0x40 MLOAD SWAP1 DUP2 MSTORE PUSH1 0x20 ADD PUSH2 0x196 JUMP JUMPDEST PUSH2 0x1C9 PUSH2 0x1C4 CALLDATASIZE PUSH1 0x4 PUSH2 0x146B JUMP JUMPDEST PUSH2 0x3CB JUMP JUMPDEST PUSH1 0x40 MLOAD PUSH2 0x196 SWAP2 SWAP1 PUSH2 0x14CE JUMP JUMPDEST PUSH2 0x1E9 PUSH2 0x1E4 CALLDATASIZE PUSH1 0x4 PUSH2 0x1525 JUMP JUMPDEST PUSH2 0x474 JUMP JUMPDEST STOP JUMPDEST PUSH2 0x219 PUSH2 0x1F9 CALLDATASIZE PUSH1 0x4 PUSH2 0x146B JUMP JUMPDEST PUSH1 0x1 PUSH1 0x1 PUSH1 0xA0 SHL SUB AND PUSH0 SWAP1 DUP2 MSTORE PUSH1 0x20 DUP2 SWAP1 MSTORE PUSH1 0x40 SWAP1 KECCAK256 PUSH1 0x5 ADD SLOAD PUSH1 0xFF AND SWAP1 JUMP JUMPDEST PUSH1 0x40 MLOAD SWAP1 ISZERO ISZERO DUP2 MSTORE PUSH1 0x20 ADD PUSH2 0x196 JUMP JUMPDEST PUSH2 0x257 PUSH2 0x237 CALLDATASIZE PUSH1 0x4 PUSH2 0x146B JUMP JUMPDEST PUSH1 0x1 PUSH1 0x1 PUSH1 0xA0 SHL SUB AND PUSH0 SWAP1 DUP2 MSTORE PUSH1 0x20 DUP2 SWAP1 MSTORE PUSH1 0x40 SWAP1 KECCAK256 PUSH1 0x1 ADD SLOAD PUSH1 0xFF AND SWAP1 JUMP JUMPDEST PUSH1 0x40 MLOAD PUSH1 0xFF SWAP1 SWAP2 AND DUP2 MSTORE PUSH1 0x20 ADD PUSH2 0x196 JUMP JUMPDEST PUSH2 0x27C PUSH2 0x277 CALLDATASIZE PUSH1 0x4 PUSH2 0x158C JUMP JUMPDEST PUSH2 0x63E JUMP JUMPDEST PUSH1 0x40 MLOAD PUSH2 0x196 SWAP4 SWAP3 SWAP2 SWAP1 PUSH2 0x15DB JUMP JUMPDEST PUSH2 0x1E9 PUSH2 0x735 JUMP JUMPDEST PUSH2 0x1E9 PUSH2 0x2A1 CALLDATASIZE PUSH1 0x4 PUSH2 0x1604 JUMP JUMPDEST PUSH2 0x7E3 JUMP JUMPDEST PUSH2 0x1E9 PUSH2 0x2B4 CALLDATASIZE PUSH1 0x4 PUSH2 0x1604 JUMP JUMPDEST PUSH2 0x9F4 JUMP JUMPDEST PUSH2 0x1E9 PUSH2 0x2C7 CALLDATASIZE PUSH1 0x4 PUSH2 0x1653 JUMP JUMPDEST PUSH2 0xA88 JUMP JUMPDEST PUSH2 0x219 PUSH2 0x2DA CALLDATASIZE PUSH1 0x4 PUSH2 0x146B JUMP JUMPDEST PUSH2 0xD68 JUMP JUMPDEST PUSH2 0x219 PUSH2 0x2ED CALLDATASIZE PUSH1 0x4 PUSH2 0x16FB JUMP JUMPDEST PUSH1 0x1 PUSH1 0x1 PUSH1 0xA0 SHL SUB SWAP3 DUP4 AND PUSH0 SWAP1 DUP2 MSTORE PUSH1 0x5 PUSH1 0x20 SWAP1 DUP2 MSTORE PUSH1 0x40 DUP1 DUP4 KECCAK256 SWAP5 DUP4 MSTORE SWAP4 DUP2 MSTORE DUP4 DUP3 KECCAK256 SWAP3 SWAP1 SWAP5 AND DUP2 MSTORE SWAP3 MSTORE SWAP1 KECCAK256 SLOAD PUSH1 0xFF AND SWAP1 JUMP JUMPDEST PUSH2 0x1A8 PUSH2 0x330 CALLDATASIZE PUSH1 0x4 PUSH2 0x146B JUMP JUMPDEST PUSH1 0x1 PUSH1 0x1 PUSH1 0xA0 SHL SUB AND PUSH0 SWAP1 DUP2 MSTORE PUSH1 0x4 PUSH1 0x20 MSTORE PUSH1 0x40 SWAP1 KECCAK256 SLOAD SWAP1 JUMP JUMPDEST PUSH2 0x1E9 PUSH2 0x358 CALLDATASIZE PUSH1 0x4 PUSH2 0x146B JUMP JUMPDEST PUSH2 0xE00 JUMP JUMPDEST PUSH2 0x1E9 PUSH2 0x36B CALLDATASIZE PUSH1 0x4 PUSH2 0x1525 JUMP JUMPDEST PUSH2 0x1009 JUMP JUMPDEST PUSH2 0x383 PUSH2 0x37E CALLDATASIZE PUSH1 0x4 PUSH2 0x146B JUMP JUMPDEST PUSH2 0x1107 JUMP JUMPDEST PUSH1 0x40 MLOAD PUSH2 0x196 SWAP2 SWAP1 PUSH2 0x1734 JUMP JUMPDEST PUSH2 0x1E9 PUSH2 0x11F1 JUMP JUMPDEST PUSH2 0x3AB PUSH2 0x3A6 CALLDATASIZE PUSH1 0x4 PUSH2 0x146B JUMP JUMPDEST PUSH2 0x1346 JUMP JUMPDEST PUSH1 0x40 MLOAD PUSH2 0x196 SWAP2 SWAP1 PUSH2 0x1794 JUMP JUMPDEST PUSH2 0x219 PUSH2 0x3C6 CALLDATASIZE PUSH1 0x4 PUSH2 0x17E0 JUMP JUMPDEST PUSH2 0x13B8 JUMP JUMPDEST PUSH1 0x1 PUSH1 0x1 PUSH1 0xA0 SHL SUB DUP2 AND PUSH0 SWAP1 DUP2 MSTORE PUSH1 0x20 DUP2 SWAP1 MSTORE PUSH1 0x40 SWAP1 KECCAK256 DUP1 SLOAD PUSH1 0x60 SWAP2 SWAP1 PUSH2 0x3F1 SWAP1 PUSH2 0x1811 JUMP JUMPDEST DUP1 PUSH1 0x1F ADD PUSH1 0x20 DUP1 SWAP2 DIV MUL PUSH1 0x20 ADD PUSH1 0x40 MLOAD SWAP1 DUP2 ADD PUSH1 0x40 MSTORE DUP1 SWAP3 SWAP2 SWAP1 DUP2 DUP2 MSTORE PUSH1 0x20 ADD DUP3 DUP1 SLOAD PUSH2 0x41D SWAP1 PUSH2 0x1811 JUMP JUMPDEST DUP1 ISZERO PUSH2 0x468 JUMPI DUP1 PUSH1 0x1F LT PUSH2 0x43F JUMPI PUSH2 0x100 DUP1 DUP4 SLOAD DIV MUL DUP4 MSTORE SWAP2 PUSH1 0x20 ADD SWAP2 PUSH2 0x468 JUMP JUMPDEST DUP3 ADD SWAP2 SWAP1 PUSH0 MSTORE PUSH1 0x20 PUSH0 KECCAK256 SWAP1 JUMPDEST DUP2 SLOAD DUP2 MSTORE SWAP1 PUSH1 0x1 ADD SWAP1 PUSH1 0x20 ADD DUP1 DUP4 GT PUSH2 0x44B JUMPI DUP3 SWAP1 SUB PUSH1 0x1F AND DUP3 ADD SWAP2 JUMPDEST POP POP POP POP POP SWAP1 POP SWAP2 SWAP1 POP JUMP JUMPDEST CALLER PUSH0 DUP2 DUP2 MSTORE PUSH1 0x20 DUP2 SWAP1 MSTORE PUSH1 0x40 SWAP1 KECCAK256 PUSH1 0x5 ADD SLOAD PUSH1 0xFF AND PUSH2 0x4A6 JUMPI PUSH1 0x40 MLOAD PUSH4 0x9A09FD87 PUSH1 0xE0 SHL DUP2 MSTORE PUSH1 0x4 ADD PUSH1 0x40 MLOAD DUP1 SWAP2 SUB SWAP1 REVERT JUMPDEST PUSH0 DUP5 SWAP1 SUB PUSH2 0x4C7 JUMPI PUSH1 0x40 MLOAD PUSH4 0xC19B643 PUSH1 0xE3 SHL DUP2 MSTORE PUSH1 0x4 ADD PUSH1 0x40 MLOAD DUP1 SWAP2 SUB SWAP1 REVERT JUMPDEST CALLER PUSH0 SWAP1 DUP2 MSTORE PUSH1 0x3 PUSH1 0x20 MSTORE PUSH1 0x40 SWAP1 DUP2 SWAP1 KECCAK256 SWAP1 MLOAD PUSH2 0x4E6 SWAP1 DUP8 SWAP1 DUP8 SWAP1 PUSH2 0x1843 JUMP JUMPDEST SWAP1 DUP2 MSTORE PUSH1 0x40 MLOAD SWAP1 DUP2 SWAP1 SUB PUSH1 0x20 ADD SWAP1 KECCAK256 PUSH1 0x2 ADD SLOAD PUSH1 0xFF AND ISZERO PUSH2 0x51A JUMPI PUSH1 0x40 MLOAD PUSH4 0xFEA82A7D PUSH1 0xE0 SHL DUP2 MSTORE PUSH1 0x4 ADD PUSH1 0x40 MLOAD DUP1 SWAP2 SUB SWAP1 REVERT JUMPDEST PUSH1 0x40 MLOAD DUP1 PUSH1 0x60 ADD PUSH1 0x40 MSTORE DUP1 DUP5 DUP5 DUP1 DUP1 PUSH1 0x1F ADD PUSH1 0x20 DUP1 SWAP2 DIV MUL PUSH1 0x20 ADD PUSH1 0x40 MLOAD SWAP1 DUP2 ADD PUSH1 0x40 MSTORE DUP1 SWAP4 SWAP3 SWAP2 SWAP1 DUP2 DUP2 MSTORE PUSH1 0x20 ADD DUP4 DUP4 DUP1 DUP3 DUP5 CALLDATACOPY PUSH0 SWAP3 ADD DUP3 SWAP1 MSTORE POP SWAP4 DUP6 MSTORE POP POP TIMESTAMP PUSH1 0x20 DUP1 DUP6 ADD SWAP2 SWAP1 SWAP2 MSTORE PUSH1 0x1 PUSH1 0x40 SWAP5 DUP6 ADD MSTORE CALLER DUP4 MSTORE PUSH1 0x3 SWAP1 MSTORE POP DUP2 SWAP1 KECCAK256 SWAP1 MLOAD PUSH2 0x587 SWAP1 DUP9 SWAP1 DUP9 SWAP1 PUSH2 0x1843 JUMP JUMPDEST SWAP1 DUP2 MSTORE PUSH1 0x40 MLOAD SWAP1 DUP2 SWAP1 SUB PUSH1 0x20 ADD SWAP1 KECCAK256 DUP2 MLOAD DUP2 SWAP1 PUSH2 0x5A4 SWAP1 DUP3 PUSH2 0x18C8 JUMP JUMPDEST POP PUSH1 0x20 DUP3 DUP2 ADD MLOAD PUSH1 0x1 DUP4 DUP2 ADD SWAP2 SWAP1 SWAP2 SSTORE PUSH1 0x40 SWAP4 DUP5 ADD MLOAD PUSH1 0x2 SWAP1 SWAP4 ADD DUP1 SLOAD PUSH1 0xFF NOT AND SWAP4 ISZERO ISZERO SWAP4 SWAP1 SWAP4 OR SWAP1 SWAP3 SSTORE CALLER PUSH0 SWAP1 DUP2 MSTORE PUSH1 0x4 DUP3 MSTORE SWAP3 DUP4 KECCAK256 DUP1 SLOAD SWAP3 DUP4 ADD DUP2 SSTORE DUP4 MSTORE SWAP1 SWAP2 KECCAK256 ADD PUSH2 0x5F3 DUP6 DUP8 DUP4 PUSH2 0x197F JUMP JUMPDEST POP CALLER PUSH1 0x1 PUSH1 0x1 PUSH1 0xA0 SHL SUB AND PUSH32 0xA39BF56B0E015DEECE3471E3A54CF84B07202031B637F5D7B644E3CD71B8171A DUP7 DUP7 PUSH1 0x40 MLOAD PUSH2 0x62F SWAP3 SWAP2 SWAP1 PUSH2 0x1A5E JUMP JUMPDEST PUSH1 0x40 MLOAD DUP1 SWAP2 SUB SWAP1 LOG2 POP POP POP POP POP JUMP JUMPDEST PUSH1 0x60 PUSH0 DUP1 PUSH0 PUSH1 0x3 PUSH0 DUP9 PUSH1 0x1 PUSH1 0x1 PUSH1 0xA0 SHL SUB AND PUSH1 0x1 PUSH1 0x1 PUSH1 0xA0 SHL SUB AND DUP2 MSTORE PUSH1 0x20 ADD SWAP1 DUP2 MSTORE PUSH1 0x20 ADD PUSH0 KECCAK256 DUP7 DUP7 PUSH1 0x40 MLOAD PUSH2 0x676 SWAP3 SWAP2 SWAP1 PUSH2 0x1843 JUMP JUMPDEST SWAP1 DUP2 MSTORE PUSH1 0x40 MLOAD SWAP1 DUP2 SWAP1 SUB PUSH1 0x20 ADD SWAP1 KECCAK256 PUSH1 0x1 DUP2 ADD SLOAD PUSH1 0x2 DUP3 ADD SLOAD DUP3 SLOAD SWAP3 SWAP4 POP DUP4 SWAP3 PUSH1 0xFF SWAP1 SWAP2 AND SWAP1 DUP4 SWAP1 PUSH2 0x6A7 SWAP1 PUSH2 0x1811 JUMP JUMPDEST DUP1 PUSH1 0x1F ADD PUSH1 0x20 DUP1 SWAP2 DIV MUL PUSH1 0x20 ADD PUSH1 0x40 MLOAD SWAP1 DUP2 ADD PUSH1 0x40 MSTORE DUP1 SWAP3 SWAP2 SWAP1 DUP2 DUP2 MSTORE PUSH1 0x20 ADD DUP3 DUP1 SLOAD PUSH2 0x6D3 SWAP1 PUSH2 0x1811 JUMP JUMPDEST DUP1 ISZERO PUSH2 0x71E JUMPI DUP1 PUSH1 0x1F LT PUSH2 0x6F5 JUMPI PUSH2 0x100 DUP1 DUP4 SLOAD DIV MUL DUP4 MSTORE SWAP2 PUSH1 0x20 ADD SWAP2 PUSH2 0x71E JUMP JUMPDEST DUP3 ADD SWAP2 SWAP1 PUSH0 MSTORE PUSH1 0x20 PUSH0 KECCAK256 SWAP1 JUMPDEST DUP2 SLOAD DUP2 MSTORE SWAP1 PUSH1 0x1 ADD SWAP1 PUSH1 0x20 ADD DUP1 DUP4 GT PUSH2 0x701 JUMPI DUP3 SWAP1 SUB PUSH1 0x1F AND DUP3 ADD SWAP2 JUMPDEST POP POP POP POP POP SWAP3 POP SWAP4 POP SWAP4 POP SWAP4 POP POP SWAP4 POP SWAP4 POP SWAP4 SWAP1 POP JUMP JUMPDEST CALLER PUSH0 DUP2 DUP2 MSTORE PUSH1 0x20 DUP2 SWAP1 MSTORE PUSH1 0x40 SWAP1 KECCAK256 PUSH1 0x5 ADD SLOAD PUSH1 0xFF AND PUSH2 0x767 JUMPI PUSH1 0x40 MLOAD PUSH4 0x9A09FD87 PUSH1 0xE0 SHL DUP2 MSTORE PUSH1 0x4 ADD PUSH1 0x40 MLOAD DUP1 SWAP2 SUB SWAP1 REVERT JUMPDEST CALLER PUSH0 SWAP1 DUP2 MSTORE PUSH1 0x20 DUP2 SWAP1 MSTORE PUSH1 0x40 DUP2 KECCAK256 PUSH1 0x2 DUP2 ADD DUP1 SLOAD SWAP2 SWAP3 PUSH1 0x1 SWAP3 PUSH2 0x78B SWAP1 DUP5 SWAP1 PUSH2 0x1A8D JUMP JUMPDEST SWAP1 SWAP2 SSTORE POP POP PUSH0 PUSH1 0x3 DUP3 ADD DUP2 SWAP1 SSTORE PUSH1 0x5 DUP3 ADD DUP1 SLOAD PUSH2 0xFF00 NOT AND PUSH2 0x100 OR SWAP1 SSTORE TIMESTAMP PUSH1 0x4 DUP4 ADD SSTORE PUSH1 0x2 DUP3 ADD SLOAD PUSH1 0x40 MLOAD SWAP1 SWAP2 CALLER SWAP2 PUSH32 0x68ED0096B24A0E62BE18A90AF2932F6DA5FE498003E14175D1028E2D1C207CD5 SWAP2 SWAP1 LOG3 POP POP JUMP JUMPDEST CALLER PUSH0 DUP2 DUP2 MSTORE PUSH1 0x20 DUP2 SWAP1 MSTORE PUSH1 0x40 SWAP1 KECCAK256 PUSH1 0x5 ADD SLOAD PUSH1 0xFF AND PUSH2 0x815 JUMPI PUSH1 0x40 MLOAD PUSH4 0x9A09FD87 PUSH1 0xE0 SHL DUP2 MSTORE PUSH1 0x4 ADD PUSH1 0x40 MLOAD DUP1 SWAP2 SUB SWAP1 REVERT JUMPDEST CALLER PUSH0 SWAP1 DUP2 MSTORE PUSH1 0x3 PUSH1 0x20 MSTORE PUSH1 0x40 SWAP1 DUP2 SWAP1 KECCAK256 SWAP1 MLOAD PUSH2 0x834 SWAP1 DUP6 SWAP1 DUP6 SWAP1 PUSH2 0x1843 JUMP JUMPDEST SWAP1 DUP2 MSTORE PUSH1 0x40 MLOAD SWAP1 DUP2 SWAP1 SUB PUSH1 0x20 ADD SWAP1 KECCAK256 PUSH1 0x2 ADD SLOAD PUSH1 0xFF AND PUSH2 0x867 JUMPI PUSH1 0x40 MLOAD PUSH4 0x5D47E149 PUSH1 0xE1 SHL DUP2 MSTORE PUSH1 0x4 ADD PUSH1 0x40 MLOAD DUP1 SWAP2 SUB SWAP1 REVERT JUMPDEST CALLER PUSH0 SWAP1 DUP2 MSTORE PUSH1 0x3 PUSH1 0x20 MSTORE PUSH1 0x40 SWAP1 DUP2 SWAP1 KECCAK256 SWAP1 MLOAD PUSH2 0x886 SWAP1 DUP6 SWAP1 DUP6 SWAP1 PUSH2 0x1843 JUMP JUMPDEST SWAP1 DUP2 MSTORE PUSH1 0x40 MLOAD SWAP1 DUP2 SWAP1 SUB PUSH1 0x20 ADD SWAP1 KECCAK256 PUSH0 PUSH2 0x8A0 DUP3 DUP3 PUSH2 0x13E7 JUMP JUMPDEST POP PUSH0 PUSH1 0x1 DUP3 ADD DUP2 SWAP1 SSTORE PUSH1 0x2 SWAP1 SWAP2 ADD DUP1 SLOAD PUSH1 0xFF NOT AND SWAP1 SSTORE CALLER DUP2 MSTORE PUSH1 0x4 PUSH1 0x20 MSTORE PUSH1 0x40 DUP2 KECCAK256 SWAP1 JUMPDEST DUP2 SLOAD DUP2 LT ISZERO PUSH2 0x9AA JUMPI DUP5 DUP5 PUSH1 0x40 MLOAD PUSH2 0x8DD SWAP3 SWAP2 SWAP1 PUSH2 0x1843 JUMP JUMPDEST PUSH1 0x40 MLOAD DUP1 SWAP2 SUB SWAP1 KECCAK256 DUP3 DUP3 DUP2 SLOAD DUP2 LT PUSH2 0x8F7 JUMPI PUSH2 0x8F7 PUSH2 0x1AA0 JUMP JUMPDEST SWAP1 PUSH0 MSTORE PUSH1 0x20 PUSH0 KECCAK256 ADD PUSH1 0x40 MLOAD PUSH2 0x90C SWAP2 SWAP1 PUSH2 0x1AB4 JUMP JUMPDEST PUSH1 0x40 MLOAD DUP1 SWAP2 SUB SWAP1 KECCAK256 SUB PUSH2 0x998 JUMPI DUP2 SLOAD DUP3 SWAP1 PUSH2 0x929 SWAP1 PUSH1 0x1 SWAP1 PUSH2 0x1B26 JUMP JUMPDEST DUP2 SLOAD DUP2 LT PUSH2 0x939 JUMPI PUSH2 0x939 PUSH2 0x1AA0 JUMP JUMPDEST SWAP1 PUSH0 MSTORE PUSH1 0x20 PUSH0 KECCAK256 ADD DUP3 DUP3 DUP2 SLOAD DUP2 LT PUSH2 0x953 JUMPI PUSH2 0x953 PUSH2 0x1AA0 JUMP JUMPDEST SWAP1 PUSH0 MSTORE PUSH1 0x20 PUSH0 KECCAK256 ADD SWAP1 DUP2 PUSH2 0x967 SWAP2 SWAP1 PUSH2 0x1B39 JUMP JUMPDEST POP DUP2 DUP1 SLOAD DUP1 PUSH2 0x978 JUMPI PUSH2 0x978 PUSH2 0x1C01 JUMP JUMPDEST PUSH1 0x1 SWAP1 SUB DUP2 DUP2 SWAP1 PUSH0 MSTORE PUSH1 0x20 PUSH0 KECCAK256 ADD PUSH0 PUSH2 0x991 SWAP2 SWAP1 PUSH2 0x13E7 JUMP JUMPDEST SWAP1 SSTORE PUSH2 0x9AA JUMP JUMPDEST DUP1 PUSH2 0x9A2 DUP2 PUSH2 0x1C15 JUMP JUMPDEST SWAP2 POP POP PUSH2 0x8C4 JUMP JUMPDEST POP CALLER PUSH1 0x1 PUSH1 0x1 PUSH1 0xA0 SHL SUB AND PUSH32 0xBA9B962FB9EE465A8877D213F2158C7B0437E68D39C8F1A273D45CC70813F2DE DUP6 DUP6 PUSH1 0x40 MLOAD PUSH2 0x9E6 SWAP3 SWAP2 SWAP1 PUSH2 0x1A5E JUMP JUMPDEST PUSH1 0x40 MLOAD DUP1 SWAP2 SUB SWAP1 LOG2 POP POP POP POP JUMP JUMPDEST CALLER PUSH0 DUP2 DUP2 MSTORE PUSH1 0x20 DUP2 SWAP1 MSTORE PUSH1 0x40 SWAP1 KECCAK256 PUSH1 0x5 ADD SLOAD PUSH1 0xFF AND PUSH2 0xA26 JUMPI PUSH1 0x40 MLOAD PUSH4 0x9A09FD87 PUSH1 0xE0 SHL DUP2 MSTORE PUSH1 0x4 ADD PUSH1 0x40 MLOAD DUP1 SWAP2 SUB SWAP1 REVERT JUMPDEST CALLER PUSH0 SWAP1 DUP2 MSTORE PUSH1 0x20 DUP2 SWAP1 MSTORE PUSH1 0x40 SWAP1 KECCAK256 PUSH2 0xA3F DUP4 DUP6 DUP4 PUSH2 0x197F JUMP JUMPDEST POP CALLER PUSH1 0x1 PUSH1 0x1 PUSH1 0xA0 SHL SUB AND PUSH32 0xE6D2EDDED44DF0E1445FBE0A40703575CE09CD5824537C4194124C0B567DFE03 DUP5 DUP5 PUSH1 0x40 MLOAD PUSH2 0xA7B SWAP3 SWAP2 SWAP1 PUSH2 0x1A5E JUMP JUMPDEST PUSH1 0x40 MLOAD DUP1 SWAP2 SUB SWAP1 LOG2 POP POP POP JUMP JUMPDEST PUSH0 DUP3 SWAP1 SUB PUSH2 0xAA9 JUMPI PUSH1 0x40 MLOAD PUSH4 0xA6C1146B PUSH1 0xE0 SHL DUP2 MSTORE PUSH1 0x4 ADD PUSH1 0x40 MLOAD DUP1 SWAP2 SUB SWAP1 REVERT JUMPDEST PUSH1 0xFF DUP2 AND ISZERO DUP1 PUSH2 0xABB JUMPI POP PUSH1 0xFF DUP2 AND DUP3 LT JUMPDEST ISZERO PUSH2 0xAD9 JUMPI PUSH1 0x40 MLOAD PUSH4 0xAABD5A09 PUSH1 0xE0 SHL DUP2 MSTORE PUSH1 0x4 ADD PUSH1 0x40 MLOAD DUP1 SWAP2 SUB SWAP1 REVERT JUMPDEST CALLER PUSH0 DUP2 DUP2 MSTORE PUSH1 0x1 PUSH1 0x20 MSTORE PUSH1 0x40 DUP2 KECCAK256 SWAP1 JUMPDEST DUP2 SLOAD DUP2 LT ISZERO PUSH2 0xB64 JUMPI PUSH1 0x1 PUSH1 0x1 PUSH1 0xA0 SHL SUB DUP4 AND PUSH0 SWAP1 DUP2 MSTORE PUSH1 0x2 PUSH1 0x20 MSTORE PUSH1 0x40 DUP2 KECCAK256 DUP4 SLOAD DUP3 SWAP1 DUP6 SWAP1 DUP6 SWAP1 DUP2 LT PUSH2 0xB1F JUMPI PUSH2 0xB1F PUSH2 0x1AA0 JUMP JUMPDEST PUSH0 SWAP2 DUP3 MSTORE PUSH1 0x20 DUP1 DUP4 KECCAK256 SWAP2 SWAP1 SWAP2 ADD SLOAD PUSH1 0x1 PUSH1 0x1 PUSH1 0xA0 SHL SUB AND DUP4 MSTORE DUP3 ADD SWAP3 SWAP1 SWAP3 MSTORE PUSH1 0x40 ADD SWAP1 KECCAK256 DUP1 SLOAD PUSH1 0xFF NOT AND SWAP2 ISZERO ISZERO SWAP2 SWAP1 SWAP2 OR SWAP1 SSTORE DUP1 PUSH2 0xB5C DUP2 PUSH2 0x1C15 JUMP JUMPDEST SWAP2 POP POP PUSH2 0xAE9 JUMP JUMPDEST POP PUSH1 0x1 PUSH1 0x1 PUSH1 0xA0 SHL SUB DUP3 AND PUSH0 SWAP1 DUP2 MSTORE PUSH1 0x1 PUSH1 0x20 MSTORE PUSH1 0x40 DUP2 KECCAK256 PUSH2 0xB85 SWAP2 PUSH2 0x1421 JUMP JUMPDEST PUSH0 JUMPDEST DUP5 DUP2 LT ISZERO PUSH2 0xCB4 JUMPI PUSH0 DUP7 DUP7 DUP4 DUP2 DUP2 LT PUSH2 0xBA2 JUMPI PUSH2 0xBA2 PUSH2 0x1AA0 JUMP JUMPDEST SWAP1 POP PUSH1 0x20 MUL ADD PUSH1 0x20 DUP2 ADD SWAP1 PUSH2 0xBB7 SWAP2 SWAP1 PUSH2 0x146B JUMP JUMPDEST SWAP1 POP PUSH1 0x1 PUSH1 0x1 PUSH1 0xA0 SHL SUB DUP2 AND ISZERO DUP1 PUSH2 0xBE0 JUMPI POP DUP4 PUSH1 0x1 PUSH1 0x1 PUSH1 0xA0 SHL SUB AND DUP2 PUSH1 0x1 PUSH1 0x1 PUSH1 0xA0 SHL SUB AND EQ JUMPDEST ISZERO PUSH2 0xBFE JUMPI PUSH1 0x40 MLOAD PUSH4 0xA6C1146B PUSH1 0xE0 SHL DUP2 MSTORE PUSH1 0x4 ADD PUSH1 0x40 MLOAD DUP1 SWAP2 SUB SWAP1 REVERT JUMPDEST PUSH1 0x1 PUSH1 0x1 PUSH1 0xA0 SHL SUB DUP1 DUP6 AND PUSH0 SWAP1 DUP2 MSTORE PUSH1 0x2 PUSH1 0x20 SWAP1 DUP2 MSTORE PUSH1 0x40 DUP1 DUP4 KECCAK256 SWAP4 DUP6 AND DUP4 MSTORE SWAP3 SWAP1 MSTORE KECCAK256 SLOAD PUSH1 0xFF AND ISZERO PUSH2 0xC44 JUMPI PUSH1 0x40 MLOAD PUSH4 0x6F3BDABB PUSH1 0xE0 SHL DUP2 MSTORE PUSH1 0x4 ADD PUSH1 0x40 MLOAD DUP1 SWAP2 SUB SWAP1 REVERT JUMPDEST PUSH1 0x1 PUSH1 0x1 PUSH1 0xA0 SHL SUB DUP1 DUP6 AND PUSH0 DUP2 DUP2 MSTORE PUSH1 0x2 PUSH1 0x20 SWAP1 DUP2 MSTORE PUSH1 0x40 DUP1 DUP4 KECCAK256 SWAP6 SWAP1 SWAP5 AND DUP1 DUP4 MSTORE SWAP5 DUP2 MSTORE DUP4 DUP3 KECCAK256 DUP1 SLOAD PUSH1 0xFF NOT AND PUSH1 0x1 SWAP1 DUP2 OR SWAP1 SWAP2 SSTORE SWAP3 DUP3 MSTORE DUP3 DUP2 MSTORE SWAP3 DUP2 KECCAK256 DUP1 SLOAD SWAP3 DUP4 ADD DUP2 SSTORE DUP2 MSTORE SWAP2 SWAP1 SWAP2 KECCAK256 ADD DUP1 SLOAD PUSH1 0x1 PUSH1 0x1 PUSH1 0xA0 SHL SUB NOT AND SWAP1 SWAP2 OR SWAP1 SSTORE DUP1 PUSH2 0xCAC DUP2 PUSH2 0x1C15 JUMP JUMPDEST SWAP2 POP POP PUSH2 0xB87 JUMP JUMPDEST POP PUSH1 0x1 PUSH1 0x1 PUSH1 0xA0 SHL SUB DUP3 AND PUSH0 SWAP1 DUP2 MSTORE PUSH1 0x20 DUP2 SWAP1 MSTORE PUSH1 0x40 SWAP1 KECCAK256 DUP1 PUSH2 0xCD8 DUP9 DUP11 DUP4 PUSH2 0x197F JUMP JUMPDEST POP PUSH1 0x1 DUP2 DUP2 ADD DUP1 SLOAD PUSH1 0xFF NOT AND PUSH1 0xFF DUP8 AND OR SWAP1 SSTORE PUSH0 PUSH1 0x2 DUP4 ADD DUP2 SWAP1 SSTORE PUSH1 0x3 DUP4 ADD DUP2 SWAP1 SSTORE PUSH1 0x5 DUP4 ADD DUP1 SLOAD PUSH2 0xFFFF NOT AND DUP4 OR SWAP1 SSTORE PUSH1 0x1 PUSH1 0x1 PUSH1 0xA0 SHL SUB DUP6 AND DUP1 DUP3 MSTORE PUSH1 0x20 SWAP3 SWAP1 SWAP3 MSTORE PUSH1 0x40 SWAP1 DUP2 SWAP1 KECCAK256 SWAP1 MLOAD PUSH32 0x820657CC0B60FA6A5579DCFE63E64B56562D6E099CFCF9AD1AB5D3B25C45A463 SWAP2 PUSH2 0xD56 SWAP2 DUP13 SWAP2 DUP13 SWAP2 DUP11 SWAP2 SWAP1 PUSH2 0x1C2D JUMP JUMPDEST PUSH1 0x40 MLOAD DUP1 SWAP2 SUB SWAP1 LOG2 POP POP POP POP POP POP POP POP JUMP JUMPDEST PUSH1 0x1 PUSH1 0x1 PUSH1 0xA0 SHL SUB DUP2 AND PUSH0 SWAP1 DUP2 MSTORE PUSH1 0x20 DUP2 SWAP1 MSTORE PUSH1 0x40 DUP2 KECCAK256 PUSH1 0x5 ADD SLOAD DUP3 SWAP1 PUSH1 0xFF AND PUSH2 0xDA5 JUMPI PUSH1 0x40 MLOAD PUSH4 0x9A09FD87 PUSH1 0xE0 SHL DUP2 MSTORE PUSH1 0x4 ADD PUSH1 0x40 MLOAD DUP1 SWAP2 SUB SWAP1 REVERT JUMPDEST PUSH1 0x1 PUSH1 0x1 PUSH1 0xA0 SHL SUB DUP4 AND PUSH0 SWAP1 DUP2 MSTORE PUSH1 0x20 DUP2 SWAP1 MSTORE PUSH1 0x40 SWAP1 KECCAK256 PUSH1 0x5 DUP2 ADD SLOAD PUSH2 0x100 SWAP1 DIV PUSH1 0xFF AND ISZERO DUP1 PUSH2 0xDD7 JUMPI POP PUSH1 0x2 DUP2 ADD SLOAD ISZERO JUMPDEST ISZERO PUSH2 0xDE5 JUMPI PUSH0 SWAP3 POP POP PUSH2 0xDFA JUMP JUMPDEST PUSH1 0x1 DUP2 ADD SLOAD PUSH1 0x3 SWAP1 SWAP2 ADD SLOAD PUSH1 0xFF SWAP1 SWAP2 AND GT ISZERO SWAP2 POP JUMPDEST POP SWAP2 SWAP1 POP JUMP JUMPDEST PUSH1 0x1 PUSH1 0x1 PUSH1 0xA0 SHL SUB DUP2 AND PUSH0 SWAP1 DUP2 MSTORE PUSH1 0x20 DUP2 SWAP1 MSTORE PUSH1 0x40 SWAP1 KECCAK256 PUSH1 0x5 ADD SLOAD DUP2 SWAP1 PUSH1 0xFF AND PUSH2 0xE3D JUMPI PUSH1 0x40 MLOAD PUSH4 0x9A09FD87 PUSH1 0xE0 SHL DUP2 MSTORE PUSH1 0x4 ADD PUSH1 0x40 MLOAD DUP1 SWAP2 SUB SWAP1 REVERT JUMPDEST PUSH1 0x1 PUSH1 0x1 PUSH1 0xA0 SHL SUB DUP3 AND PUSH0 SWAP1 DUP2 MSTORE PUSH1 0x2 PUSH1 0x20 SWAP1 DUP2 MSTORE PUSH1 0x40 DUP1 DUP4 KECCAK256 CALLER DUP5 MSTORE SWAP1 SWAP2 MSTORE SWAP1 KECCAK256 SLOAD DUP3 SWAP1 PUSH1 0xFF AND PUSH2 0xE82 JUMPI PUSH1 0x40 MLOAD PUSH4 0x77B68781 PUSH1 0xE1 SHL DUP2 MSTORE PUSH1 0x4 ADD PUSH1 0x40 MLOAD DUP1 SWAP2 SUB SWAP1 REVERT JUMPDEST PUSH1 0x1 PUSH1 0x1 PUSH1 0xA0 SHL SUB DUP4 AND PUSH0 SWAP1 DUP2 MSTORE PUSH1 0x20 DUP2 SWAP1 MSTORE PUSH1 0x40 SWAP1 KECCAK256 PUSH1 0x5 DUP2 ADD SLOAD PUSH2 0x100 SWAP1 DIV PUSH1 0xFF AND ISZERO DUP1 PUSH2 0xEB4 JUMPI POP PUSH1 0x2 DUP2 ADD SLOAD ISZERO JUMPDEST ISZERO PUSH2 0xED2 JUMPI PUSH1 0x40 MLOAD PUSH4 0x5CAA3547 PUSH1 0xE0 SHL DUP2 MSTORE PUSH1 0x4 ADD PUSH1 0x40 MLOAD DUP1 SWAP2 SUB SWAP1 REVERT JUMPDEST PUSH2 0x12C DUP2 PUSH1 0x4 ADD SLOAD PUSH2 0xEE4 SWAP2 SWAP1 PUSH2 0x1A8D JUMP JUMPDEST TIMESTAMP GT ISZERO PUSH2 0xF12 JUMPI PUSH1 0x5 DUP2 ADD DUP1 SLOAD PUSH2 0xFF00 NOT AND SWAP1 SSTORE PUSH1 0x40 DUP1 MLOAD PUSH4 0x5CAA3547 PUSH1 0xE0 SHL DUP2 MSTORE SWAP1 MLOAD SWAP1 DUP2 SWAP1 SUB PUSH1 0x4 ADD SWAP1 REVERT JUMPDEST PUSH1 0x1 PUSH1 0x1 PUSH1 0xA0 SHL SUB DUP5 AND PUSH0 SWAP1 DUP2 MSTORE PUSH1 0x5 PUSH1 0x20 SWAP1 DUP2 MSTORE PUSH1 0x40 DUP1 DUP4 KECCAK256 PUSH1 0x2 DUP6 ADD SLOAD DUP5 MSTORE DUP3 MSTORE DUP1 DUP4 KECCAK256 CALLER DUP5 MSTORE SWAP1 SWAP2 MSTORE SWAP1 KECCAK256 SLOAD PUSH1 0xFF AND ISZERO PUSH2 0xF62 JUMPI PUSH1 0x40 MLOAD PUSH4 0x80FC0BD PUSH1 0xE1 SHL DUP2 MSTORE PUSH1 0x4 ADD PUSH1 0x40 MLOAD DUP1 SWAP2 SUB SWAP1 REVERT JUMPDEST PUSH1 0x1 PUSH1 0x1 PUSH1 0xA0 SHL SUB DUP5 AND PUSH0 SWAP1 DUP2 MSTORE PUSH1 0x5 PUSH1 0x20 SWAP1 DUP2 MSTORE PUSH1 0x40 DUP1 DUP4 KECCAK256 PUSH1 0x2 DUP6 ADD SLOAD DUP5 MSTORE DUP3 MSTORE DUP1 DUP4 KECCAK256 CALLER DUP5 MSTORE SWAP1 SWAP2 MSTORE DUP2 KECCAK256 DUP1 SLOAD PUSH1 0xFF NOT AND PUSH1 0x1 SWAP1 DUP2 OR SWAP1 SWAP2 SSTORE PUSH1 0x3 DUP4 ADD DUP1 SLOAD SWAP2 SWAP3 SWAP1 SWAP2 PUSH2 0xFB3 SWAP1 DUP5 SWAP1 PUSH2 0x1A8D JUMP JUMPDEST SWAP1 SWAP2 SSTORE POP POP PUSH1 0x2 DUP2 ADD SLOAD PUSH1 0x3 DUP3 ADD SLOAD PUSH1 0x40 MLOAD SWAP1 DUP2 MSTORE CALLER SWAP2 SWAP1 PUSH1 0x1 PUSH1 0x1 PUSH1 0xA0 SHL SUB DUP8 AND SWAP1 PUSH32 0x66A24788C1F8A1E2C9F4F326C823531A758A5BF8B9937B312F683C56143A6E8A SWAP1 PUSH1 0x20 ADD PUSH1 0x40 MLOAD DUP1 SWAP2 SUB SWAP1 LOG4 POP POP POP POP JUMP JUMPDEST CALLER PUSH0 DUP2 DUP2 MSTORE PUSH1 0x20 DUP2 SWAP1 MSTORE PUSH1 0x40 SWAP1 KECCAK256 PUSH1 0x5 ADD SLOAD PUSH1 0xFF AND PUSH2 0x103B JUMPI PUSH1 0x40 MLOAD PUSH4 0x9A09FD87 PUSH1 0xE0 SHL DUP2 MSTORE PUSH1 0x4 ADD PUSH1 0x40 MLOAD DUP1 SWAP2 SUB SWAP1 REVERT JUMPDEST CALLER PUSH0 SWAP1 DUP2 MSTORE PUSH1 0x3 PUSH1 0x20 MSTORE PUSH1 0x40 SWAP1 DUP2 SWAP1 KECCAK256 SWAP1 MLOAD PUSH2 0x105A SWAP1 DUP8 SWAP1 DUP8 SWAP1 PUSH2 0x1843 JUMP JUMPDEST SWAP1 DUP2 MSTORE PUSH1 0x40 MLOAD SWAP1 DUP2 SWAP1 SUB PUSH1 0x20 ADD SWAP1 KECCAK256 PUSH1 0x2 ADD SLOAD PUSH1 0xFF AND PUSH2 0x108D JUMPI PUSH1 0x40 MLOAD PUSH4 0x5D47E149 PUSH1 0xE1 SHL DUP2 MSTORE PUSH1 0x4 ADD PUSH1 0x40 MLOAD DUP1 SWAP2 SUB SWAP1 REVERT JUMPDEST CALLER PUSH0 SWAP1 DUP2 MSTORE PUSH1 0x3 PUSH1 0x20 MSTORE PUSH1 0x40 SWAP1 DUP2 SWAP1 KECCAK256 SWAP1 MLOAD DUP5 SWAP2 DUP5 SWAP2 PUSH2 0x10B0 SWAP1 DUP10 SWAP1 DUP10 SWAP1 PUSH2 0x1843 JUMP JUMPDEST SWAP1 DUP2 MSTORE PUSH1 0x40 MLOAD SWAP1 DUP2 SWAP1 SUB PUSH1 0x20 ADD SWAP1 KECCAK256 SWAP2 PUSH2 0x10CB SWAP2 SWAP1 DUP4 PUSH2 0x197F JUMP JUMPDEST POP CALLER PUSH1 0x1 PUSH1 0x1 PUSH1 0xA0 SHL SUB AND PUSH32 0x379C1D2B166DDDCA664ED07EEA9F2CDE55A32FD3010F384AA08A04F49ED4DF95 DUP7 DUP7 PUSH1 0x40 MLOAD PUSH2 0x62F SWAP3 SWAP2 SWAP1 PUSH2 0x1A5E JUMP JUMPDEST PUSH1 0x1 PUSH1 0x1 PUSH1 0xA0 SHL SUB DUP2 AND PUSH0 SWAP1 DUP2 MSTORE PUSH1 0x4 PUSH1 0x20 SWAP1 DUP2 MSTORE PUSH1 0x40 DUP1 DUP4 KECCAK256 DUP1 SLOAD DUP3 MLOAD DUP2 DUP6 MUL DUP2 ADD DUP6 ADD SWAP1 SWAP4 MSTORE DUP1 DUP4 MSTORE PUSH1 0x60 SWAP5 SWAP3 SWAP4 SWAP2 SWAP3 SWAP1 SWAP2 DUP5 ADD JUMPDEST DUP3 DUP3 LT ISZERO PUSH2 0x11E6 JUMPI DUP4 DUP3 SWAP1 PUSH0 MSTORE PUSH1 0x20 PUSH0 KECCAK256 ADD DUP1 SLOAD PUSH2 0x115B SWAP1 PUSH2 0x1811 JUMP JUMPDEST DUP1 PUSH1 0x1F ADD PUSH1 0x20 DUP1 SWAP2 DIV MUL PUSH1 0x20 ADD PUSH1 0x40 MLOAD SWAP1 DUP2 ADD PUSH1 0x40 MSTORE DUP1 SWAP3 SWAP2 SWAP1 DUP2 DUP2 MSTORE PUSH1 0x20 ADD DUP3 DUP1 SLOAD PUSH2 0x1187 SWAP1 PUSH2 0x1811 JUMP JUMPDEST DUP1 ISZERO PUSH2 0x11D2 JUMPI DUP1 PUSH1 0x1F LT PUSH2 0x11A9 JUMPI PUSH2 0x100 DUP1 DUP4 SLOAD DIV MUL DUP4 MSTORE SWAP2 PUSH1 0x20 ADD SWAP2 PUSH2 0x11D2 JUMP JUMPDEST DUP3 ADD SWAP2 SWAP1 PUSH0 MSTORE PUSH1 0x20 PUSH0 KECCAK256 SWAP1 JUMPDEST DUP2 SLOAD DUP2 MSTORE SWAP1 PUSH1 0x1 ADD SWAP1 PUSH1 0x20 ADD DUP1 DUP4 GT PUSH2 0x11B5 JUMPI DUP3 SWAP1 SUB PUSH1 0x1F AND DUP3 ADD SWAP2 JUMPDEST POP POP POP POP POP DUP2 MSTORE PUSH1 0x20 ADD SWAP1 PUSH1 0x1 ADD SWAP1 PUSH2 0x113E JUMP JUMPDEST POP POP POP POP SWAP1 POP SWAP2 SWAP1 POP JUMP JUMPDEST CALLER PUSH0 DUP2 DUP2 MSTORE PUSH1 0x20 DUP2 SWAP1 MSTORE PUSH1 0x40 SWAP1 KECCAK256 PUSH1 0x5 ADD SLOAD PUSH1 0xFF AND PUSH2 0x1223 JUMPI PUSH1 0x40 MLOAD PUSH4 0x9A09FD87 PUSH1 0xE0 SHL DUP2 MSTORE PUSH1 0x4 ADD PUSH1 0x40 MLOAD DUP1 SWAP2 SUB SWAP1 REVERT JUMPDEST CALLER PUSH0 SWAP1 DUP2 MSTORE PUSH1 0x20 DUP2 SWAP1 MSTORE PUSH1 0x40 SWAP1 KECCAK256 PUSH1 0x5 DUP2 ADD SLOAD PUSH2 0x100 SWAP1 DIV PUSH1 0xFF AND ISZERO DUP1 PUSH2 0x124C JUMPI POP PUSH1 0x2 DUP2 ADD SLOAD ISZERO JUMPDEST ISZERO PUSH2 0x126A JUMPI PUSH1 0x40 MLOAD PUSH4 0x5CAA3547 PUSH1 0xE0 SHL DUP2 MSTORE PUSH1 0x4 ADD PUSH1 0x40 MLOAD DUP1 SWAP2 SUB SWAP1 REVERT JUMPDEST CALLER PUSH0 SWAP1 DUP2 MSTORE PUSH1 0x1 PUSH1 0x20 MSTORE PUSH1 0x40 DUP2 KECCAK256 SWAP1 JUMPDEST DUP2 SLOAD DUP2 LT ISZERO PUSH2 0x12FB JUMPI CALLER PUSH0 SWAP1 DUP2 MSTORE PUSH1 0x5 PUSH1 0x20 SWAP1 DUP2 MSTORE PUSH1 0x40 DUP1 DUP4 KECCAK256 PUSH1 0x2 DUP8 ADD SLOAD DUP5 MSTORE SWAP1 SWAP2 MSTORE DUP2 KECCAK256 DUP4 SLOAD DUP3 SWAP1 DUP6 SWAP1 DUP6 SWAP1 DUP2 LT PUSH2 0x12B6 JUMPI PUSH2 0x12B6 PUSH2 0x1AA0 JUMP JUMPDEST PUSH0 SWAP2 DUP3 MSTORE PUSH1 0x20 DUP1 DUP4 KECCAK256 SWAP2 SWAP1 SWAP2 ADD SLOAD PUSH1 0x1 PUSH1 0x1 PUSH1 0xA0 SHL SUB AND DUP4 MSTORE DUP3 ADD SWAP3 SWAP1 SWAP3 MSTORE PUSH1 0x40 ADD SWAP1 KECCAK256 DUP1 SLOAD PUSH1 0xFF NOT AND SWAP2 ISZERO ISZERO SWAP2 SWAP1 SWAP2 OR SWAP1 SSTORE DUP1 PUSH2 0x12F3 DUP2 PUSH2 0x1C15 JUMP JUMPDEST SWAP2 POP POP PUSH2 0x127A JUMP JUMPDEST POP PUSH0 PUSH1 0x3 DUP4 ADD DUP2 SWAP1 SSTORE PUSH1 0x5 DUP4 ADD DUP1 SLOAD PUSH2 0xFF00 NOT AND SWAP1 SSTORE PUSH1 0x2 DUP4 ADD SLOAD PUSH1 0x40 MLOAD SWAP1 SWAP2 CALLER SWAP2 PUSH32 0x4E19D4165C8EC779F6414C11C110B66128A1AEFFE6596C4FAD0E3AF0ECCBA33D SWAP2 SWAP1 LOG3 POP POP POP JUMP JUMPDEST PUSH1 0x1 PUSH1 0x1 PUSH1 0xA0 SHL SUB DUP2 AND PUSH0 SWAP1 DUP2 MSTORE PUSH1 0x1 PUSH1 0x20 SWAP1 DUP2 MSTORE PUSH1 0x40 SWAP2 DUP3 SWAP1 KECCAK256 DUP1 SLOAD DUP4 MLOAD DUP2 DUP5 MUL DUP2 ADD DUP5 ADD SWAP1 SWAP5 MSTORE DUP1 DUP5 MSTORE PUSH1 0x60 SWAP4 SWAP3 DUP4 ADD DUP3 DUP3 DUP1 ISZERO PUSH2 0x468 JUMPI PUSH1 0x20 MUL DUP3 ADD SWAP2 SWAP1 PUSH0 MSTORE PUSH1 0x20 PUSH0 KECCAK256 SWAP1 JUMPDEST DUP2 SLOAD PUSH1 0x1 PUSH1 0x1 PUSH1 0xA0 SHL SUB AND DUP2 MSTORE PUSH1 0x1 SWAP1 SWAP2 ADD SWAP1 PUSH1 0x20 ADD DUP1 DUP4 GT PUSH2 0x138F JUMPI POP POP POP POP POP SWAP1 POP SWAP2 SWAP1 POP JUMP JUMPDEST PUSH1 0x1 PUSH1 0x1 PUSH1 0xA0 SHL SUB DUP1 DUP4 AND PUSH0 SWAP1 DUP2 MSTORE PUSH1 0x2 PUSH1 0x20 SWAP1 DUP2 MSTORE PUSH1 0x40 DUP1 DUP4 KECCAK256 SWAP4 DUP6 AND DUP4 MSTORE SWAP3 SWAP1 MSTORE KECCAK256 SLOAD PUSH1 0xFF AND JUMPDEST SWAP3 SWAP2 POP POP JUMP JUMPDEST POP DUP1 SLOAD PUSH2 0x13F3 SWAP1 PUSH2 0x1811 JUMP JUMPDEST PUSH0 DUP3 SSTORE DUP1 PUSH1 0x1F LT PUSH2 0x1402 JUMPI POP POP JUMP JUMPDEST PUSH1 0x1F ADD PUSH1 0x20 SWAP1 DIV SWAP1 PUSH0 MSTORE PUSH1 0x20 PUSH0 KECCAK256 SWAP1 DUP2 ADD SWAP1 PUSH2 0x141E SWAP2 SWAP1 PUSH2 0x1438 JUMP JUMPDEST POP JUMP JUMPDEST POP DUP1 SLOAD PUSH0 DUP3 SSTORE SWAP1 PUSH0 MSTORE PUSH1 0x20 PUSH0 KECCAK256 SWAP1 DUP2 ADD SWAP1 PUSH2 0x141E SWAP2 SWAP1 JUMPDEST JUMPDEST DUP1 DUP3 GT ISZERO PUSH2 0x144C JUMPI PUSH0 DUP2 SSTORE PUSH1 0x1 ADD PUSH2 0x1439 JUMP JUMPDEST POP SWAP1 JUMP JUMPDEST DUP1 CALLDATALOAD PUSH1 0x1 PUSH1 0x1 PUSH1 0xA0 SHL SUB DUP2 AND DUP2 EQ PUSH2 0x1466 JUMPI PUSH0 DUP1 REVERT JUMPDEST SWAP2 SWAP1 POP JUMP JUMPDEST PUSH0 PUSH1 0x20 DUP3 DUP5 SUB SLT ISZERO PUSH2 0x147B JUMPI PUSH0 DUP1 REVERT JUMPDEST PUSH2 0x1484 DUP3 PUSH2 0x1450 JUMP JUMPDEST SWAP4 SWAP3 POP POP POP JUMP JUMPDEST PUSH0 DUP2 MLOAD DUP1 DUP5 MSTORE PUSH0 JUMPDEST DUP2 DUP2 LT ISZERO PUSH2 0x14AF JUMPI PUSH1 0x20 DUP2 DUP6 ADD DUP2 ADD MLOAD DUP7 DUP4 ADD DUP3 ADD MSTORE ADD PUSH2 0x1493 JUMP JUMPDEST POP PUSH0 PUSH1 0x20 DUP3 DUP7 ADD ADD MSTORE PUSH1 0x20 PUSH1 0x1F NOT PUSH1 0x1F DUP4 ADD AND DUP6 ADD ADD SWAP2 POP POP SWAP3 SWAP2 POP POP JUMP JUMPDEST PUSH1 0x20 DUP2 MSTORE PUSH0 PUSH2 0x1484 PUSH1 0x20 DUP4 ADD DUP5 PUSH2 0x148B JUMP JUMPDEST PUSH0 DUP1 DUP4 PUSH1 0x1F DUP5 ADD SLT PUSH2 0x14F0 JUMPI PUSH0 DUP1 REVERT JUMPDEST POP DUP2 CALLDATALOAD PUSH8 0xFFFFFFFFFFFFFFFF DUP2 GT ISZERO PUSH2 0x1507 JUMPI PUSH0 DUP1 REVERT JUMPDEST PUSH1 0x20 DUP4 ADD SWAP2 POP DUP4 PUSH1 0x20 DUP3 DUP6 ADD ADD GT ISZERO PUSH2 0x151E JUMPI PUSH0 DUP1 REVERT JUMPDEST SWAP3 POP SWAP3 SWAP1 POP JUMP JUMPDEST PUSH0 DUP1 PUSH0 DUP1 PUSH1 0x40 DUP6 DUP8 SUB SLT ISZERO PUSH2 0x1538 JUMPI PUSH0 DUP1 REVERT JUMPDEST DUP5 CALLDATALOAD PUSH8 0xFFFFFFFFFFFFFFFF DUP1 DUP3 GT ISZERO PUSH2 0x154F JUMPI PUSH0 DUP1 REVERT JUMPDEST PUSH2 0x155B DUP9 DUP4 DUP10 ADD PUSH2 0x14E0 JUMP JUMPDEST SWAP1 SWAP7 POP SWAP5 POP PUSH1 0x20 DUP8 ADD CALLDATALOAD SWAP2 POP DUP1 DUP3 GT ISZERO PUSH2 0x1573 JUMPI PUSH0 DUP1 REVERT JUMPDEST POP PUSH2 0x1580 DUP8 DUP3 DUP9 ADD PUSH2 0x14E0 JUMP JUMPDEST SWAP6 SWAP9 SWAP5 SWAP8 POP SWAP6 POP POP POP POP JUMP JUMPDEST PUSH0 DUP1 PUSH0 PUSH1 0x40 DUP5 DUP7 SUB SLT ISZERO PUSH2 0x159E JUMPI PUSH0 DUP1 REVERT JUMPDEST PUSH2 0x15A7 DUP5 PUSH2 0x1450 JUMP JUMPDEST SWAP3 POP PUSH1 0x20 DUP5 ADD CALLDATALOAD PUSH8 0xFFFFFFFFFFFFFFFF DUP2 GT ISZERO PUSH2 0x15C2 JUMPI PUSH0 DUP1 REVERT JUMPDEST PUSH2 0x15CE DUP7 DUP3 DUP8 ADD PUSH2 0x14E0 JUMP JUMPDEST SWAP5 SWAP8 SWAP1 SWAP7 POP SWAP4 SWAP5 POP POP POP POP JUMP JUMPDEST PUSH1 0x60 DUP2 MSTORE PUSH0 PUSH2 0x15ED PUSH1 0x60 DUP4 ADD DUP7 PUSH2 0x148B JUMP JUMPDEST PUSH1 0x20 DUP4 ADD SWAP5 SWAP1 SWAP5 MSTORE POP SWAP1 ISZERO ISZERO PUSH1 0x40 SWAP1 SWAP2 ADD MSTORE SWAP2 SWAP1 POP JUMP JUMPDEST PUSH0 DUP1 PUSH1 0x20 DUP4 DUP6 SUB SLT ISZERO PUSH2 0x1615 JUMPI PUSH0 DUP1 REVERT JUMPDEST DUP3 CALLDATALOAD PUSH8 0xFFFFFFFFFFFFFFFF DUP2 GT ISZERO PUSH2 0x162B JUMPI PUSH0 DUP1 REVERT JUMPDEST PUSH2 0x1637 DUP6 DUP3 DUP7 ADD PUSH2 0x14E0 JUMP JUMPDEST SWAP1 SWAP7 SWAP1 SWAP6 POP SWAP4 POP POP POP POP JUMP JUMPDEST DUP1 CALLDATALOAD PUSH1 0xFF DUP2 AND DUP2 EQ PUSH2 0x1466 JUMPI PUSH0 DUP1 REVERT JUMPDEST PUSH0 DUP1 PUSH0 DUP1 PUSH0 PUSH1 0x60 DUP7 DUP9 SUB SLT ISZERO PUSH2 0x1667 JUMPI PUSH0 DUP1 REVERT JUMPDEST DUP6 CALLDATALOAD PUSH8 0xFFFFFFFFFFFFFFFF DUP1 DUP3 GT ISZERO PUSH2 0x167E JUMPI PUSH0 DUP1 REVERT JUMPDEST PUSH2 0x168A DUP10 DUP4 DUP11 ADD PUSH2 0x14E0 JUMP JUMPDEST SWAP1 SWAP8 POP SWAP6 POP PUSH1 0x20 DUP9 ADD CALLDATALOAD SWAP2 POP DUP1 DUP3 GT ISZERO PUSH2 0x16A2 JUMPI PUSH0 DUP1 REVERT JUMPDEST DUP2 DUP9 ADD SWAP2 POP DUP9 PUSH1 0x1F DUP4 ADD SLT PUSH2 0x16B5 JUMPI PUSH0 DUP1 REVERT JUMPDEST DUP2 CALLDATALOAD DUP2 DUP2 GT ISZERO PUSH2 0x16C3 JUMPI PUSH0 DUP1 REVERT JUMPDEST DUP10 PUSH1 0x20 DUP3 PUSH1 0x5 SHL DUP6 ADD ADD GT ISZERO PUSH2 0x16D7 JUMPI PUSH0 DUP1 REVERT JUMPDEST PUSH1 0x20 DUP4 ADD SWAP6 POP DUP1 SWAP5 POP POP POP POP PUSH2 0x16EF PUSH1 0x40 DUP8 ADD PUSH2 0x1643 JUMP JUMPDEST SWAP1 POP SWAP3 SWAP6 POP SWAP3 SWAP6 SWAP1 SWAP4 POP JUMP JUMPDEST PUSH0 DUP1 PUSH0 PUSH1 0x60 DUP5 DUP7 SUB SLT ISZERO PUSH2 0x170D JUMPI PUSH0 DUP1 REVERT JUMPDEST PUSH2 0x1716 DUP5 PUSH2 0x1450 JUMP JUMPDEST SWAP3 POP PUSH1 0x20 DUP5 ADD CALLDATALOAD SWAP2 POP PUSH2 0x172B PUSH1 0x40 DUP6 ADD PUSH2 0x1450 JUMP JUMPDEST SWAP1 POP SWAP3 POP SWAP3 POP SWAP3 JUMP JUMPDEST PUSH0 PUSH1 0x20 DUP1 DUP4 ADD DUP2 DUP5 MSTORE DUP1 DUP6 MLOAD DUP1 DUP4 MSTORE PUSH1 0x40 DUP7 ADD SWAP2 POP PUSH1 0x40 DUP2 PUSH1 0x5 SHL DUP8 ADD ADD SWAP3 POP DUP4 DUP8 ADD PUSH0 JUMPDEST DUP3 DUP2 LT ISZERO PUSH2 0x1787 JUMPI PUSH1 0x3F NOT DUP9 DUP7 SUB ADD DUP5 MSTORE PUSH2 0x1775 DUP6 DUP4 MLOAD PUSH2 0x148B JUMP JUMPDEST SWAP5 POP SWAP3 DUP6 ADD SWAP3 SWAP1 DUP6 ADD SWAP1 PUSH1 0x1 ADD PUSH2 0x1759 JUMP JUMPDEST POP SWAP3 SWAP8 SWAP7 POP POP POP POP POP POP POP JUMP JUMPDEST PUSH1 0x20 DUP1 DUP3 MSTORE DUP3 MLOAD DUP3 DUP3 ADD DUP2 SWAP1 MSTORE PUSH0 SWAP2 SWAP1 DUP5 DUP3 ADD SWAP1 PUSH1 0x40 DUP6 ADD SWAP1 DUP5 JUMPDEST DUP2 DUP2 LT ISZERO PUSH2 0x17D4 JUMPI DUP4 MLOAD PUSH1 0x1 PUSH1 0x1 PUSH1 0xA0 SHL SUB AND DUP4 MSTORE SWAP3 DUP5 ADD SWAP3 SWAP2 DUP5 ADD SWAP2 PUSH1 0x1 ADD PUSH2 0x17AF JUMP JUMPDEST POP SWAP1 SWAP7 SWAP6 POP POP POP POP POP POP JUMP JUMPDEST PUSH0 DUP1 PUSH1 0x40 DUP4 DUP6 SUB SLT ISZERO PUSH2 0x17F1 JUMPI PUSH0 DUP1 REVERT JUMPDEST PUSH2 0x17FA DUP4 PUSH2 0x1450 JUMP JUMPDEST SWAP2 POP PUSH2 0x1808 PUSH1 0x20 DUP5 ADD PUSH2 0x1450 JUMP JUMPDEST SWAP1 POP SWAP3 POP SWAP3 SWAP1 POP JUMP JUMPDEST PUSH1 0x1 DUP2 DUP2 SHR SWAP1 DUP3 AND DUP1 PUSH2 0x1825 JUMPI PUSH1 0x7F DUP3 AND SWAP2 POP JUMPDEST PUSH1 0x20 DUP3 LT DUP2 SUB PUSH2 0xDFA JUMPI PUSH4 0x4E487B71 PUSH1 0xE0 SHL PUSH0 MSTORE PUSH1 0x22 PUSH1 0x4 MSTORE PUSH1 0x24 PUSH0 REVERT JUMPDEST DUP2 DUP4 DUP3 CALLDATACOPY PUSH0 SWAP2 ADD SWAP1 DUP2 MSTORE SWAP2 SWAP1 POP JUMP JUMPDEST PUSH4 0x4E487B71 PUSH1 0xE0 SHL PUSH0 MSTORE PUSH1 0x41 PUSH1 0x4 MSTORE PUSH1 0x24 PUSH0 REVERT JUMPDEST PUSH1 0x1F DUP3 GT ISZERO PUSH2 0x18AF JUMPI PUSH0 DUP2 DUP2 MSTORE PUSH1 0x20 DUP2 KECCAK256 PUSH1 0x1F DUP6 ADD PUSH1 0x5 SHR DUP2 ADD PUSH1 0x20 DUP7 LT ISZERO PUSH2 0x188C JUMPI POP DUP1 JUMPDEST PUSH1 0x1F DUP6 ADD PUSH1 0x5 SHR DUP3 ADD SWAP2 POP JUMPDEST DUP2 DUP2 LT ISZERO PUSH2 0x18AB JUMPI DUP3 DUP2 SSTORE PUSH1 0x1 ADD PUSH2 0x1898 JUMP JUMPDEST POP POP POP JUMPDEST POP POP POP JUMP JUMPDEST PUSH0 NOT PUSH1 0x3 DUP4 SWAP1 SHL SHR NOT AND PUSH1 0x1 SWAP2 SWAP1 SWAP2 SHL OR SWAP1 JUMP JUMPDEST DUP2 MLOAD PUSH8 0xFFFFFFFFFFFFFFFF DUP2 GT ISZERO PUSH2 0x18E2 JUMPI PUSH2 0x18E2 PUSH2 0x1852 JUMP JUMPDEST PUSH2 0x18F6 DUP2 PUSH2 0x18F0 DUP5 SLOAD PUSH2 0x1811 JUMP JUMPDEST DUP5 PUSH2 0x1866 JUMP JUMPDEST PUSH1 0x20 DUP1 PUSH1 0x1F DUP4 GT PUSH1 0x1 DUP2 EQ PUSH2 0x1924 JUMPI PUSH0 DUP5 ISZERO PUSH2 0x1912 JUMPI POP DUP6 DUP4 ADD MLOAD JUMPDEST PUSH2 0x191C DUP6 DUP3 PUSH2 0x18B4 JUMP JUMPDEST DUP7 SSTORE POP PUSH2 0x18AB JUMP JUMPDEST PUSH0 DUP6 DUP2 MSTORE PUSH1 0x20 DUP2 KECCAK256 PUSH1 0x1F NOT DUP7 AND SWAP2 JUMPDEST DUP3 DUP2 LT ISZERO PUSH2 0x1952 JUMPI DUP9 DUP7 ADD MLOAD DUP3 SSTORE SWAP5 DUP5 ADD SWAP5 PUSH1 0x1 SWAP1 SWAP2 ADD SWAP1 DUP5 ADD PUSH2 0x1933 JUMP JUMPDEST POP DUP6 DUP3 LT ISZERO PUSH2 0x196F JUMPI DUP8 DUP6 ADD MLOAD PUSH0 NOT PUSH1 0x3 DUP9 SWAP1 SHL PUSH1 0xF8 AND SHR NOT AND DUP2 SSTORE JUMPDEST POP POP POP POP POP PUSH1 0x1 SWAP1 DUP2 SHL ADD SWAP1 SSTORE POP JUMP JUMPDEST PUSH8 0xFFFFFFFFFFFFFFFF DUP4 GT ISZERO PUSH2 0x1997 JUMPI PUSH2 0x1997 PUSH2 0x1852 JUMP JUMPDEST PUSH2 0x19AB DUP4 PUSH2 0x19A5 DUP4 SLOAD PUSH2 0x1811 JUMP JUMPDEST DUP4 PUSH2 0x1866 JUMP JUMPDEST PUSH0 PUSH1 0x1F DUP5 GT PUSH1 0x1 DUP2 EQ PUSH2 0x19D7 JUMPI PUSH0 DUP6 ISZERO PUSH2 0x19C5 JUMPI POP DUP4 DUP3 ADD CALLDATALOAD JUMPDEST PUSH2 0x19CF DUP7 DUP3 PUSH2 0x18B4 JUMP JUMPDEST DUP5 SSTORE POP PUSH2 0x1A2F JUMP JUMPDEST PUSH0 DUP4 DUP2 MSTORE PUSH1 0x20 SWAP1 KECCAK256 PUSH1 0x1F NOT DUP7 AND SWAP1 DUP4 JUMPDEST DUP3 DUP2 LT ISZERO PUSH2 0x1A07 JUMPI DUP7 DUP6 ADD CALLDATALOAD DUP3 SSTORE PUSH1 0x20 SWAP5 DUP6 ADD SWAP5 PUSH1 0x1 SWAP1 SWAP3 ADD SWAP2 ADD PUSH2 0x19E7 JUMP JUMPDEST POP DUP7 DUP3 LT ISZERO PUSH2 0x1A23 JUMPI PUSH0 NOT PUSH1 0xF8 DUP9 PUSH1 0x3 SHL AND SHR NOT DUP5 DUP8 ADD CALLDATALOAD AND DUP2 SSTORE JUMPDEST POP POP PUSH1 0x1 DUP6 PUSH1 0x1 SHL ADD DUP4 SSTORE JUMPDEST POP POP POP POP POP JUMP JUMPDEST DUP2 DUP4 MSTORE DUP2 DUP2 PUSH1 0x20 DUP6 ADD CALLDATACOPY POP PUSH0 DUP3 DUP3 ADD PUSH1 0x20 SWAP1 DUP2 ADD SWAP2 SWAP1 SWAP2 MSTORE PUSH1 0x1F SWAP1 SWAP2 ADD PUSH1 0x1F NOT AND SWAP1 SWAP2 ADD ADD SWAP1 JUMP JUMPDEST PUSH1 0x20 DUP2 MSTORE PUSH0 PUSH2 0x1A71 PUSH1 0x20 DUP4 ADD DUP5 DUP7 PUSH2 0x1A36 JUMP JUMPDEST SWAP5 SWAP4 POP POP POP POP JUMP JUMPDEST PUSH4 0x4E487B71 PUSH1 0xE0 SHL PUSH0 MSTORE PUSH1 0x11 PUSH1 0x4 MSTORE PUSH1 0x24 PUSH0 REVERT JUMPDEST DUP1 DUP3 ADD DUP1 DUP3 GT ISZERO PUSH2 0x13E1 JUMPI PUSH2 0x13E1 PUSH2 0x1A79 JUMP JUMPDEST PUSH4 0x4E487B71 PUSH1 0xE0 SHL PUSH0 MSTORE PUSH1 0x32 PUSH1 0x4 MSTORE PUSH1 0x24 PUSH0 REVERT JUMPDEST PUSH0 DUP1 DUP4 SLOAD PUSH2 0x1AC1 DUP2 PUSH2 0x1811 JUMP JUMPDEST PUSH1 0x1 DUP3 DUP2 AND DUP1 ISZERO PUSH2 0x1AD9 JUMPI PUSH1 0x1 DUP2 EQ PUSH2 0x1AEE JUMPI PUSH2 0x1B1A JUMP JUMPDEST PUSH1 0xFF NOT DUP5 AND DUP8 MSTORE DUP3 ISZERO ISZERO DUP4 MUL DUP8 ADD SWAP5 POP PUSH2 0x1B1A JUMP JUMPDEST DUP8 PUSH0 MSTORE PUSH1 0x20 DUP1 PUSH0 KECCAK256 PUSH0 JUMPDEST DUP6 DUP2 LT ISZERO PUSH2 0x1B11 JUMPI DUP2 SLOAD DUP11 DUP3 ADD MSTORE SWAP1 DUP5 ADD SWAP1 DUP3 ADD PUSH2 0x1AF8 JUMP JUMPDEST POP POP POP DUP3 DUP8 ADD SWAP5 POP JUMPDEST POP SWAP3 SWAP7 SWAP6 POP POP POP POP POP POP JUMP JUMPDEST DUP2 DUP2 SUB DUP2 DUP2 GT ISZERO PUSH2 0x13E1 JUMPI PUSH2 0x13E1 PUSH2 0x1A79 JUMP JUMPDEST DUP2 DUP2 SUB PUSH2 0x1B44 JUMPI POP POP JUMP JUMPDEST PUSH2 0x1B4E DUP3 SLOAD PUSH2 0x1811 JUMP JUMPDEST PUSH8 0xFFFFFFFFFFFFFFFF DUP2 GT ISZERO PUSH2 0x1B66 JUMPI PUSH2 0x1B66 PUSH2 0x1852 JUMP JUMPDEST PUSH2 0x1B74 DUP2 PUSH2 0x18F0 DUP5 SLOAD PUSH2 0x1811 JUMP JUMPDEST PUSH0 PUSH1 0x1F DUP3 GT PUSH1 0x1 DUP2 EQ PUSH2 0x1BA0 JUMPI PUSH0 DUP4 ISZERO PUSH2 0x1B8E JUMPI POP DUP5 DUP3 ADD SLOAD JUMPDEST PUSH2 0x1B98 DUP5 DUP3 PUSH2 0x18B4 JUMP JUMPDEST DUP6 SSTORE POP PUSH2 0x1A2F JUMP JUMPDEST PUSH0 DUP6 DUP2 MSTORE PUSH1 0x20 SWAP1 KECCAK256 PUSH1 0x1F NOT DUP5 AND SWAP1 PUSH0 DUP7 DUP2 MSTORE PUSH1 0x20 SWAP1 KECCAK256 DUP5 JUMPDEST DUP4 DUP2 LT ISZERO PUSH2 0x1BD8 JUMPI DUP3 DUP7 ADD SLOAD DUP3 SSTORE PUSH1 0x1 SWAP6 DUP7 ADD SWAP6 SWAP1 SWAP2 ADD SWAP1 PUSH1 0x20 ADD PUSH2 0x1BB8 JUMP JUMPDEST POP DUP6 DUP4 LT ISZERO PUSH2 0x196F JUMPI SWAP4 ADD SLOAD PUSH0 NOT PUSH1 0xF8 PUSH1 0x3 DUP8 SWAP1 SHL AND SHR NOT AND SWAP1 SWAP3 SSTORE POP POP PUSH1 0x1 SWAP1 DUP2 SHL ADD SWAP1 SSTORE POP JUMP JUMPDEST PUSH4 0x4E487B71 PUSH1 0xE0 SHL PUSH0 MSTORE PUSH1 0x31 PUSH1 0x4 MSTORE PUSH1 0x24 PUSH0 REVERT JUMPDEST PUSH0 PUSH1 0x1 DUP3 ADD PUSH2 0x1C26 JUMPI PUSH2 0x1C26 PUSH2 0x1A79 JUMP JUMPDEST POP PUSH1 0x1 ADD SWAP1 JUMP JUMPDEST PUSH1 0x60 DUP2 MSTORE PUSH0 PUSH2 0x1C40 PUSH1 0x60 DUP4 ADD DUP7 DUP9 PUSH2 0x1A36 JUMP JUMPDEST PUSH1 0x20 PUSH1 0xFF DUP7 AND DUP2 DUP6 ADD MSTORE DUP4 DUP3 SUB PUSH1 0x40 DUP6 ADD MSTORE DUP2 DUP6 SLOAD DUP1 DUP5 MSTORE DUP3 DUP5 ADD SWAP2 POP DUP7 PUSH0 MSTORE DUP3 PUSH0 KECCAK256 SWAP4 POP PUSH0 JUMPDEST DUP2 DUP2 LT ISZERO PUSH2 0x1C8C JUMPI DUP5 SLOAD PUSH1 0x1 PUSH1 0x1 PUSH1 0xA0 SHL SUB AND DUP4 MSTORE PUSH1 0x1 SWAP5 DUP6 ADD SWAP5 SWAP3 DUP5 ADD SWAP3 ADD PUSH2 0x1C67 JUMP JUMPDEST POP SWAP1 SWAP10 SWAP9 POP POP POP POP POP POP POP POP POP JUMP INVALID LOG2 PUSH5 0x6970667358 0x22 SLT KECCAK256 CALLCODE CALLCODE 0xBB PUSH25 0x253F7604E712ED24CC74FF08D64CF5D7BADA98E7455ECC2A80 0xD5 GASPRICE 0xAA PUSH5 0x736F6C6343 STOP ADDMOD ISZERO STOP CALLER "},"methodIdentifiers":{"RECOVERY_WINDOW()":"0a4636b2","addEntry(string,string)":"5ce308a7","approveRecovery(address)":"cbc3b3c2","finalizeRecovery()":"e2ccb305","getEntry(address,string)":"8957d767","getEntryCount(address)":"c5c9bd25","getEntryUids(address)":"d759889e","getGuardians(address)":"f18858ab","getRecoveryStatus(address)":"07c73d34","getThreshold(address)":"78977168","getVaultCid(address)":"355a68d6","hasApproved(address,uint256,address)":"c32a60a5","isGuardianFor(address,address)":"f7617a25","isRecoveryApprovedForOwner(address)":"b90f0aac","isVaultInitialized(address)":"62157727","registerVault(string,address[],uint8)":"b51ec7df","removeEntry(string)":"b067d186","startRecovery()":"923689e4","updateEntry(string,string)":"d2606793","updateVaultCid(string)":"b11797e6"}}}}}